:100000000C94F7030C943E040C943E040C94382991
:100010000C943E040C943E040C943E040C943E0458
:100020000C943E040C943E040C94A1170C945D17A0
:100030000C9491270C943E040C943E040C943E04C2
:100040000C943E040C943E040C943E040C943E0428
:100050000C943E040C946D270C943E040C943E04C6
:100060000C943E040C943E040C943E040C943E0408
:100070000C943E040C943E040C943E040C943E04F8
:100080000C943E040C943E040C943E040C943E04E8
:100090000C943E040C943E040C943E040C943E04D8
:1000A0000C943E040C943E040C943E040501090299
:1000B000A10185020901A1000509190129081500FE
:1000C0002501950875018102050109300931158165
:1000D000257F95027508810609381581257F9501D0
:1000E00075088106050C0A38021581257F95017572
:1000F000088106C0C005010980A101850319012AF4
:10010000B700150126B700950175108100C0050CD8
:100110000901A101850419012AA002150126A002E6
:10012000950175108100C005010906A1018505052D
:100130000719E029E71500250195087501810205D9
:1001400007190029EF1500250195F07501810205B9
:10015000081901290595057501910295017503910D
:1001600001C00660FF0961A1010962150026FF00B8
:100170009520750881020963150026FF00952075FA
:10018000089102C005010906A101050719E029E748
:1001900015002501950875018102950175088101F9
:1001A0000507190029FF150026FF0095067508812F
:1001B000000508190129059505750191029501753C
:1001C000039101C0000000000000000000000000DA
:1001D000000000000000000000000000000000001F
:1001E00000000000000000007E0F00D4FFFFFFC7EA
:1001F0000000007800000000000000002A2B28000A
:1002000000000000000000000000000000000029C5
:10021000000000002C1E3420212224342627252E05
:10022000362D3738271E1F2021222324252633333D
:10023000362E37381F0405060708090A0B0C0D0E69
:100240000F101112131415161718191A1B1C1D2F35
:100250003130232D350405060708090A0B0C0D0E55
:100260000F101112131415161718191A1B1C1D2F15
:100270003130354C0001010101010101010102028F
:100280000202020202020203030303030303030444
:10029000040404040404050505050506060606060F
:1002A000070707070708080808090909090A0A0AC9
:1002B0000B0B0B0C0C0C0D0D0D0E0E0E0F0F0F106B
:1002C00010111111121213131414151516161717F5
:1002D000181819191A1A1B1B1C1D1D1E1E1F202061
:1002E000212222232424252626272829292A2B2CAB
:1002F0002D2D2E2F30313232333435363738393ACE
:100300003B3C3D3E3F404142434445464748494AC5
:100310004C4D4E4F50515354555658595A5B5D5E93
:100320005F616264656668696B6C6D6F707273752E
:1003300077787A7B7D7E8082838587888A8C8E8F92
:1003400091939596989A9C9EA0A2A3A5A7A9ABADC0
:10035000AFB1B3B5B7BABCBEC0C2C4C6C9CBCDCFAE
:10036000D1D4D6D8DBDDDFE2E4E7E9EBEEF0F3F55C
:10037000F8FAFDFFFFAA7F55402223252628292AC7
:100380002C2D2F3032333536383A3B3D3E404243F8
:100390004547494A4C4E5051535557595A5C5E6037
:1003A00062646668696B6D6F71737577797B7D7F49
:1003B00081838587898A8C8E90929496989A9C9E48
:1003C0009FA1A3A5A7A8AAACAEAFB1B3B4B6B8B964
:1003D000BBBCBEBFC1C2C3C5C6C7C9CACBCCCDCECC
:1003E000D0D1D2D2D3D4D5D6D7D7D8D9D9DADADBAF
:1003F000DBDBDCDCDCDCDCDDDDDDDDDCDCDCDCDC3B
:10040000DBDBDBDADAD9D9D8D7D7D6D5D4D3D2D279
:10041000D1D0CECDCCCBCAC9C7C6C5C3C2C1BFBE61
:10042000BCBBB9B8B6B4B3B1AFAEACAAA8A7A5A3CC
:10043000A19F9E9C9A98969492908E8C8A8987858B
:1004400083817F7D7B79777573716F6D6B6968666A
:100450006462605E5C5A5957555351504E4C4A493C
:1004600047454342403E3D3B3A3836353332302FE4
:100470002D2C2A2928262523222E00260227022A6F
:100480000029003A003B003C003D003E0053005470
:100490000055002B0035001E001F00200021002207
:1004A000005F006000610056002B0014001A000875
:1004B00000150017005C005D005E00570039000465
:1004C000001600070009000A0059005A005B0028C6
:1004D00000E1001D001B0006001900050062002954
:1004E0005D63003600E000E300E2008B002C002C8E
:1004F000003F0040004100420043004400450046E8
:10050000004C004900230024002500260027002D70
:10051000002E002A002A004A001C0018000C0012BD
:100520000013002F003000310028004D000B000D9B
:10053000000E000F00330034002800280028004B74
:100540000011001000360037003800E500E500E536
:100550000052004E002C008A008800E6006500E48E
:10056000000151500051004F00C35CC45C0000000A
:1005700000000000000000000000000000C65CC891
:100580005CCA5C00000000000000000000000000E9
:1005900000C75CC95CCB5C000000000000000000EC
:1005A000000000000000000000000000000000004B
:1005B000000000000000000000000000000000003B
:1005C0000000000000000000000000DF5C000000F0
:1005D000000000000000000000000000000000001B
:1005E0005C000000000000000000000000000000AF
:1005F00000000000000000000000000000000000FB
:1006000000000000000000000000000000000000EA
:1006100000000000000000000000000000000000DA
:1006200000000000000000000000000000000000CA
:1006300000000000000000000000000000000000BA
:1006400000000000000000000000000000000000AA
:100650000001000000000000000000000000000099
:10066000000000000000000000000000000000008A
:10067000000000000000000000000000000000007A
:10068000000000000000000000000000000000006A
:10069000000000000000000000000000000000005A
:1006A000000000000000000000000000000000004A
:1006B000000000000000000000000000000000003A
:1006C000000000000000000000000000000000002A
:1006D000000000000000000000000000000000001A
:1006E000000000000000000000000000000000000A
:1006F00000000000000000000000000000000000FA
:1007000000000000000000000000000000000000E9
:1007100000000000000000000000000000000000D9
:1007200000000000000000000000000000000000C9
:1007300000000000000000000000000000000000B9
:1007400000010000000000000030303000303000B8
:100750007F3F1F643214643214783C1E1E140A0555
:1007600009025B00030100A0FA0904000001030173
:100770000100092111010001224000070581030841
:10078000000A090401000203000000092111010010
:100790000122220007058203200001070503032030
:1007A00000010904020001030000000921110100F9
:1007B0000122B6000705840320000A12011001007F
:1007C000000008091249460100010200010C035310
:1007D00000550031003200300000000C036500338A
:1007E00000770032007100000004030904001124A6
:1007F0001FBECFEFDAE0DEBFCDBF04B603FE27C0D9
:1008000080914D0390914E03A0914F03B0915003FE
:100810008730904BA740B04BD1F410924D0310920B
:100820004E0310924F031092500314BE84B7877F7B
:1008300084BF0FB6F894A89580916000886180937A
:100840006000109260000FBEE0E0F8E3099511E04F
:10085000A0E0B1E0ECE6F6E502C005900D92A23A08
:10086000B107D9F723E0A2EAB1E001C01D92AD348F
:10087000B207E1F70E94A3210C94E92A0C9400002E
:10088000E8EDF0E080818E7F80831092E20010928C
:10089000DA001092E100A0EEB0E08C9181608C93C0
:1008A00080818F77808319BCA7EDB0E08C918E7F1B
:1008B0008C9380818F7E80831092FA02089520911C
:1008C000E4003091E50095E6A9012091EC00822F2B
:1008D000817020FF06C08091E80080FF06C080E0A4
:1008E00008952091E80022FD1AC080911F038823FB
:1008F00089F0853089F08091EB0085FD0FC0209153
:10090000E4003091E50042175307F9F29150E1F607
:1009100084E0089582E0089583E0089581E00895D9
:10092000EF92FF920F931F93CF937C018B010E9454
:100930005F04C82F811117C08091E80085FD0BC0AE
:100940008091E8008E778093E8000E945F048823FE
:1009500099F3C82F08C0F70181917F018093F100BE
:100960000150110949F78C2FCF911F910F91FF90E2
:10097000EF9008958091210387FF13C08091E800D4
:1009800082FF06C08091E8008B778093E80004C066
:1009900080911F038111F2CF089580911F03882356
:1009A000D9F38091E80080FFF8CF8091E8008E773E
:1009B000ECCF982F9093E900242F762F50E08917E1
:1009C00031F07091EC002091ED005091F00021FD8C
:1009D00007C09F5F973071F78093E90081E0089529
:1009E0003091EB003E7F3093EB003091ED003D7F86
:1009F0003093ED003091EB0031603093EB00709359
:100A0000EC002093ED005093F0002091EE0027FDC4
:100A1000E0CF80E00895CF92DF92EF92FF920F93A4
:100A20001F93CF93DF93C8EDD0E088818F7E8883BA
:100A3000E7EDF0E080818160808384E082BF81E027
:100A40008093FA0288818E7F888302EE10E0F8019D
:100A500010821092DA0081EEC82ED12CF60110829D
:100A600088818F77888388818068888388818F7D5B
:100A7000888319BC10921F031092200310921E034A
:100A800010921D0390EEE92EF12CF70180818B7FEF
:100A9000808388818160888342E060E080E00E94FA
:100AA000D904F60180818E7F8083F8018081816086
:100AB0008083808188608083F70180818E7F80833E
:100AC000888180618883DF91CF911F910F91FF9082
:100AD000EF90DF90CF900895FC01809127039091D3
:100AE000280386179707A0F06115710529F49091E6
:100AF000E8009E779093E80090E06115710551F44D
:100B0000911108C08091E80082FF34C080E0089510
:100B1000BC01F2CF80911F038823C1F18530C1F160
:100B20008091E80083FD30C08091E80082FDEACF2B
:100B30008091E80080FFE1CF8091F3002091F200E6
:100B4000382F6115710519F02830310558F091E002
:100B50002830310509F090E02091E8002E772093AD
:100B6000E800CBCF81918093F100615071092F5F34
:100B70003F4FE7CF80911F03882341F0853041F03C
:100B80008091E80083FFBECF81E0089582E0089560
:100B900083E00895089580E008958091FC0208950F
:100BA00087E797E7909301088093000888E19AE02F
:100BB0000FB6F894A895809360000FBE90936000E4
:100BC000FFCF9C014FB7F8948091810290918202EF
:100BD000A0918302B09184024FBF821B930B0895B2
:100BE0002FB7F89460918102709182028091830204
:100BF000909184022FBF08952FB7F89480918102BD
:100C000090918202A0918302B09184022FBF089537
:100C100080917C02811110927C02089580917B0268
:100C200090917A02892B90917902892B8093A4016B
:100C300090917C029923A1F0892B8093A40180914B
:100C40001801882341F18091A30287FF24C08EE11F
:100C5000E6EAF1E090E0815000F591110E9408066B
:100C6000E091A602F091A7023097E1F0809118017F
:100C7000882359F08091A30287FF07C08091A401C7
:100C80008093A50185E08093A4010280F381E02D8B
:100C900084EA91E0099486E0DBCF21912223D9F206
:100CA0009F5FD9CF0895909118019923D1F0909129
:100CB000A30297FF16C0E82FE695E695E695EE317C
:100CC000E0F4F0E0EC55FE4F282F277081E090E033
:100CD00001C0880F2A95EAF7809592818923828343
:100CE0000895E6EAF1E09191891303C0DF011197BD
:100CF0001C9291E0EC3AF907B1F708959091180130
:100D00009923C1F09091A30297FF14C0E82FE695B4
:100D1000E695E695EE31F8F4F0E0EC55FE4F87707D
:100D200021E030E001C0220F8A95EAF78281822B10
:100D300082830895A6EAB1E0EFEF90E02D9182174B
:100D400051F0EF3F19F4211101C0E92F9F5F963058
:100D5000A9F7EF3F09F408950E2E000CFF0BEC5598
:100D6000FE4FE6CF2AE0929F800D1124982F9770B6
:100D700086958695869525E0829FF0011124E35D96
:100D8000FD4F50E040E080E0219130E0092E02C0AC
:100D9000369527950A94E2F721703327042E01C077
:100DA000220F0A94EAF7822B4F5F5F4F45305105BF
:100DB00059F708952AE0929F800D1124982F97707B
:100DC00041E001C0440F9A95EAF78695869586958D
:100DD00095E0899FF0011124E35DFD4F90E080E0F4
:100DE00070E05191DF0111979B01082E02C03695EA
:100DF00027950A94E2F7217021952527242325279A
:100E00002C9301968530910561F7089580912C020D
:100E10009091FB01981301C008958F5F8770FACFFE
:100E2000882341F0809590917B02892380937B02F7
:100E30000C940E060895882339F090917B02982B2C
:100E400090937B020C940E0608952091F10130914D
:100E5000F2012817390771F09093F2018093F101A4
:100E6000E091A602F091A702309721F00084F1856D
:100E7000E02D099408952091EF013091F001281799
:100E8000390771F09093F0018093EF01E091A60291
:100E9000F091A702309721F00680F781E02D0994A8
:100EA0000895E091A602F091A702309721F00190F9
:100EB000F081E02D099480E00895FA01811101C0CC
:100EC000FB010994E4EBF2E0118282818460828369
:100ED00008958091DD02982F9E7F29F481708260B1
:100EE0008093DD0208958434E8F381708264F8CF42
:100EF000AF92BF92DF92EF92FF920F931F93CF9327
:100F0000DF93082F162FE901E42FF0E0EC58FD4F96
:100F1000611110C0E4915E2F4E2F4983E8835A83FC
:100F2000DF91CF911F910F91FF90EF90DF90BF90D5
:100F3000AF900895E62EF12C4491D42EE42FF0E0EA
:100F400026E0829FC00111242FEF30E0B9010E94FA
:100F5000532A802F90E0880F991F55E5569FD001A6
:100F6000579FB00D11248A1B9B0B982F990F890F47
:100F70005901AE18BF08AE9ED001AF9EB00DBE9E07
:100F8000B00D11245B2F189F80011124012F112710
:100F90005901A01AB10AAE9E8001AF9E100DBE9EEF
:100FA000100D11245901A81AB108AE9CC001AF9CC4
:100FB000900DBE9C900D1124892F9927281B390B69
:100FC0002E9FC0012F9F900D3E9F900D1124E92F61
:100FD00062307105A1F050F46115710509F49DCFDF
:100FE0006130710581F0EB2F512F97CF643071057F
:100FF00069F080F06630710509F48FCFF4CFE42FEB
:101000004B2F592F8ACFE42F412F87CFEB2F542F0F
:10101000492F83CF4B2F5D2DE12F7FCF0E94FC0501
:101020009C019091BF028091C002982B21F03093D7
:10103000BC022093BB029091C1028091C202982B06
:1010400021F03093B9022093B802E091A602F0910A
:10105000A702309749F082E08093BD020480F581B9
:10106000E02D8DEB92E00994089590E080E00E94DD
:101070003B0790E080E00E94250710927A021092D0
:1010800079020E940E0686E0EDEBF2E0DF011D9290
:101090008A95E9F71092BA021092B7021092F40101
:1010A0000C940E0860932C0370932D0380932E03F1
:1010B00090932F030C9435080F931F9360912C038A
:1010C00070912D0380912E0390912F038B019C0131
:1010D0000670112722273327063011052105310517
:1010E00029F468601F910F910C945208677FFACF22
:1010F0000F931F9341E050E060E070E004C0440FA4
:10110000551F661F771F8A95D2F7CB01BA016095EC
:1011100070958095909500912C0310912D0320914E
:101120002E0330912F0360237123822393231F9179
:101130000F910C94520890917802809589238093A6
:101140007802282F277071F4282F082E000C330BFB
:101150009217130639F08595859585950E94780834
:101160001092780208950F931F9341E050E060E0E1
:1011700070E004C0440F551F661F771F8A95D2F791
:1011800080912C0390912D03A0912E03B0912F03F9
:101190008A019B01082B192B2A2B3B2BC901B80173
:1011A0001F910F910C94520860937D0270937E0200
:1011B00080937F02909380020C9435084091BF0287
:1011C0008D3E59F48091C00287FF0DC01092C0027D
:1011D00041110BC01092BA0208C08E3E81F480917A
:1011E000C00218169CF3442381F08091C1029091B3
:1011F000C202892B09F05AC01092B70208958F3E9F
:1012000049F447FFF0CF1092BF028091C0028111D4
:10121000ECCFE0CF803F19F41416ACF3E4CF9091FB
:10122000C102893F29F41916F4F61092C102DBCFEE
:101230008A3F19F497FFD7CFF8CF9091C2028B3F26
:1012400029F497FFD0CF1092C202CDCF8C3F19F472
:101250001916CCF3C8CF9FE0980F983090F4815FB7
:10126000990B21E030E0B90102C0660F771F8A9523
:10127000E2F7CB0180959091BE0289238093BE0254
:10128000B2CF8D3F31F48091F4018E7F8093F401D1
:10129000AACF8E3F21F48091F4018D7FF7CF8F3F4D
:1012A00009F0A1CF8091F4018B7FF0CF08958823BE
:1012B00009F459C0823871F40E94510781FF53C06C
:1012C00089E30E947E060E940E0689E30E9453066F
:1012D0000C940E06833859F40E94510780FF43C0D6
:1012E00083E50E947E060E940E0683E5EFCF8438D8
:1012F00059F40E94510782FF36C087E40E947E069F
:101300000E940E0687E4E2CF9CEF980F913AF0F22C
:1013100090E2980F983088F4877021E030E0A901BE
:1013200002C0440F551F8A95E2F7CA01809590913B
:101330007B02892380937B02CBCF9BE5980F933070
:1013400020F490E080E00C943B0798E5980F9731EB
:1013500020F490E080E00C9425078D3E20F00E9460
:10136000DE080C940E0808958091F40180FD16C0EB
:1013700081FD16C082FD16C08091B7028823A1F0BE
:10138000883280F428E0829FC001112468E270E076
:101390000E94672A862F672B39F0089582E008950E
:1013A00084E0089588E0089581E008958091F40133
:1013B00080FD14C081FD14C082FD16C08091BA0268
:1013C000882381F0843180F422E3829FC0011124BC
:1013D00064E170E00E94672A862F08958CE00895EA
:1013E00089E1089585E0089582E308958D3E31F402
:1013F0000E94D60981958093C00208958E3E19F40B
:101400000E94D609F8CF8F3E31F40E94D60981950B
:101410008093BF020895803F19F40E94D609F8CF47
:10142000893F29F40E94B4098093C10208958A3F3C
:1014300021F40E94B4098195F7CF8B3F31F40E94CB
:10144000B40981958093C20208958C3F19F40E94DB
:10145000B409F8CF9FE0980F983070F4815F990B32
:1014600021E030E001C0220F8A95EAF78091BE02A8
:10147000822B8093BE0208958D3F31F48091F40158
:1014800081608093F40108958E3F21F48091F401EE
:101490008260F7CF8F3FB9F78091F4018460F1CF7C
:1014A000F894E82FE295EF70F0E031A1282F2F702B
:1014B00081E090E001C0880F2A95EAF7982F909577
:1014C000932391A392A1892B82A37894089590915C
:1014D000A30292FF06C0282F28712830F9F4877FD5
:1014E000846093FF06C0282F28712831F1F4877E8D
:1014F00084612091A40220FF06C0382F3871383053
:10150000D9F4877F816021FF06C0282F28712831F8
:10151000D1F4877E816194FD877E0895282F247100
:101520002430F9F68B7F8860DCCF282F247124319A
:1015300001F78B7E8861DDCF382F3171313019F79B
:101540008E7F8860E0CF282F2171213121F78E7E98
:101550008861E1CFCF9384E090E00E94942AC82F65
:1015600081E290E00E94942A982F8C2FCF910895C9
:101570000F931F93CF93DF93C42FD0E0CC0FDD1FC9
:1015800024E1629FC00DD11D112430EF839FC00D57
:10159000D11D1124CE0186960E94942A082F10E0B6
:1015A000102F0027CE0187960E94942A9801282B9D
:1015B000C901DF91CF911F910F910895462F83307C
:1015C00038F47C3028F46A3018F4672F0C94B80A89
:1015D00090E080E00895CF93DF930E94DE0AEC0153
:1015E00082389105A9F1D8F58133910509F496C0A7
:1015F00048F58932910509F48AC08A9709F495C0A3
:10160000C11521E5D20708F0BCC0C11530E5D307EC
:1016100008F014C1C83ED10508F09CC0C03ED105F9
:1016200060F5C83AD10508F087C0C53AD10508F081
:10163000FDC0C130D10509F12097F9F0C430D105C2
:10164000E0F440C08533910509F45AC0C997C1F64A
:101650008091A302837089F0C0EED0E00EC0833E7B
:10166000910599F170F4803E910501F1823E91055A
:1016700039F68091A30282FD21C0CE01DF91CF9186
:101680000895863E910561F1873E910571F1843E92
:10169000910509F0B5CF8091A40281FFEECF809132
:1016A000A302C7EED0E084FD0DC0E7CF8091A30276
:1016B00080FD12C19091A40290FFDFCFC3EED0E075
:1016C00084FFDBCFD0E0C0E0D8CF8091A30282FDC1
:1016D00006C19091A40290FDBFCF84FFCECFF2CF80
:1016E0008091A30283FDDDCFC8CF8091A30283FD4B
:1016F000F9C09091A40291FFF0CFC4EED0E0BDCF2D
:101700008091A30285FFB9CFC9E2D0E0B6CF809126
:10171000A30285FFB2CFC5E3D0E0AFCF8091A30293
:1017200086FFABCFCAE2D0E0A8CF8091A30286FFAC
:10173000A4CFC1E3D0E0A1CFCF3BD10518F6C85A62
:10174000D0E0CC0FDD1FC25BDE4F0990D881C02DE9
:10175000D46493CFC11540E2D40758F4C11581E099
:10176000D80708F08ACFCD3ED10508F4ABCFD065BD
:1017700084CFC11590E4D90708F4A4CFDF70D06AF4
:101780007CCFC11525E5D20700F5C11534E5D30797
:1017900008F08AC0C11543E5D40708F071C0C1152F
:1017A00082E5D80708F467C0CE018370992721E04D
:1017B00030E002C0220F331F8A95E2F7C695C69526
:1017C00080E2C89FE001112452C0C11599E5D907F4
:1017D000A8F4C11528E5D20708F06BC0C11536E59D
:1017E000D30708F06FCF8C2F0E94670AC82FD0E074
:1017F000DC2FCC27CC27DF71D0623FCFC1154AE563
:10180000D40708F45BC0CE0190568115904208F0D1
:1018100059CF8D2F8F710E94670A90E0982F8827EB
:1018200088279F719C012C2BE901E6CFC55AD0E097
:10183000C55BDE4FC881D0E0D0641FCFCE01E4E0AD
:1018400096958795EA95E1F783702C2F2695269536
:10185000237040E2249F90011124382B8C2F837039
:10186000C1E0D0E002C0CC0FDD1F8A95E2F7C22BA9
:10187000D32BDC6802CFDC2FCC27C16FD06AFDCE22
:10188000CE018370992721E030E002C0220F331F80
:101890008A95E2F7C695C69590E2C99FE0011124AA
:1018A000C22BD32BDA68E9CEDC2FCC27C46FD06AE9
:1018B000E4CEDC2FCC27C06FD06ADFCE8C2F8F70A8
:1018C0000E94670A34E0D695C7953A95E1F7CF7044
:1018D0009C2FEC01D069D1CEC9E3D0E0CECEC2EED0
:1018E000D0E0CBCEC6EED0E0C8CEBF92CF92DF9292
:1018F000EF92FF920F931F93CF93DF938C01C090D1
:101900002C03D0902D03E0902E03F0902F038091B4
:101910007D0290917E02A0917F02B0918002C82A40
:10192000D92AEA2AFB2ACFE1D0E0BC2ED701C60192
:101930000C2E04C0B695A795979587950A94D2F773
:1019400080FD0EC0219788F7B12C8B2DDF91CF91B0
:101950001F910F91FF90EF90DF90CF90BF9008956F
:10196000B8018C2F0E94EB0A019761F3EECFCF9361
:10197000DF93EC010E94750CBE01DF91CF910C94B6
:10198000EB0A0E94B70C292F2F7092959F709250EE
:101990009E3078F4E92FF0E0E551F54D0C947B2A68
:1019A000803F19F020F4883E20F481E00895843FC0
:1019B000E1F380E00895883EC0F3813FD1F7F5CF91
:1019C000822F86958695869508956F927F928F9245
:1019D0009F92AF92BF92CF92DF92EF92FF920F93BE
:1019E0001F93CF93DF9389E7C82E84E0D82E9AE225
:1019F000E92EFF24F394E701C05FD10936011BC033
:101A0000F50185909490692DC8010E94A82A682D3F
:101A1000C80101960E94A82A82E0A80EB11C0E5FA0
:101A20001F4FC017D10761F784E1680E711C6496DF
:101A3000CE15DF0529F08E01045111095301E0CFC5
:101A40007E0180EFE80EF11C80EFC80ED11C8AEFFA
:101A5000E81683E0F80679F6DF91CF911F910F9198
:101A6000FF90EF90DF90CF90BF90AF909F908F90BE
:101A70007F906F900895CF93DF93C6EFD2E060E040
:101A8000CE010E94A82A2196C11584E0D807B9F793
:101A9000DF91CF910895CF93DF9300D00F92CDB710
:101AA000DEB790911F03943011F589837B836A839D
:101AB0009093E9008FEF9091E800815095FD06C06A
:101AC00095ED9A95F1F700008111F5CF8091E8002E
:101AD00085FF0DC050E040E063E070E0CE0101966C
:101AE0000E9490048091E8008E778093E8000F9028
:101AF0000F900F90DF91CF910895BC0184E00C947A
:101B00004B0DBC0183E00C944B0D9C0184E0809351
:101B1000E9009FEF8091E800915085FD06C085EDBA
:101B20008A95F1F700009111F5CF8091E80085FFCB
:101B30000CC050E040E066E070E0C9010E949004F3
:101B40008091E8008E778093E8000895CF93DF932B
:101B5000EC01809118018823B1F18091A30287FFE5
:101B600032C060E284E08093E9008FEF9091E8005A
:101B7000815095FD06C095ED9A95F1F70000811111
:101B8000F5CF8091E80085FF1BC08091180170E0BF
:101B900050E040E0811104C050E040E068E070E0B7
:101BA000CE010E9490048091E8008E778093E80037
:101BB00080E2FE01ADEFB2E001900D928A95E1F76F
:101BC000DF91CF91089568E081E0CDCFCF93C82F0A
:101BD000882309F4AEC08238C1F40E94510781FD08
:101BE000A8C089E30E947E060E940E062FEF81EEB8
:101BF00094E0215080409040E1F700C0000089E36C
:101C00000E945306CF910C940E068338A1F40E94D3
:101C1000510780FD8EC083E50E947E060E940E065D
:101C20002FEF81EE94E0215080409040E1F700C01A
:101C3000000083E5E5CF8438A1F40E94510782FDBE
:101C400078C087E40E947E060E940E062FEF81EE88
:101C500094E0215080409040E1F700C0000087E40C
:101C6000CFCF8CEF8C0F813A88F5809118018823B3
:101C700001F18091A30287FF1CC0EC2FE695E69549
:101C8000E695F0E0EC55FE4F828190E04C2F4770D6
:101C900021E030E002C0220F331F4A95E2F7822391
:101CA0009323892B79F08C2F0E9453060E940E06F5
:101CB00009C0E6EAF1E08191C817A9F321E0EC3A06
:101CC000F207C9F78C2F0E947E069CCF80E28C0F12
:101CD000883068F4C77021E030E001C0220FCA9557
:101CE000EAF780917B02822B80937B028BCFEBE51E
:101CF000EC0FE33040F4F0E0E55BFE4F808190E0D4
:101D0000CF910C943B07E8E5EC0FE73150F4F0E09D
:101D1000EE0FFF1FE25BFE4F80819181CF910C940B
:101D20002507CD3E30F08C2F0E94F609CF910C9400
:101D30000E08CF9108951F93CF93DF93182FD0E013
:101D4000C0E0893311F4C0E5D0E0812F0E94E60D98
:101D5000209731F4812FDF91CF911F910C94570977
:101D60008FE99FE00197F1F700C000002197F0CFC5
:101D70000F931F93CF93DF93C62FD42F022FFC0115
:101D800082818823A1F060932B030E94FC0590932D
:101D90002A0380932903C77081E001C0880FCA9588
:101DA000EAF7DF91CF911F910F910C941B0780915F
:101DB0002B03681335C08091290390912A030E9458
:101DC000E105883C910560F510E21D0FCD17B9F0D3
:101DD00080E28C0F883040F4C77081E001C0880F2A
:101DE000CA95EAF70E941007183048F481E09D2F49
:101DF000977001C0880F9A95EAF70E941B07802F01
:101E00000E949B0E183098F4D77081E001C0880FB3
:101E1000DA95EAF7DF91CF911F910F910C9410079B
:101E2000C77081E001C0880FCA95EAF7F3CFDF9150
:101E3000CF911F910F910895DF92EF92FF920F9330
:101E40001F93CF93DF93E82FF0E0EC50FE4FD49038
:101E5000282F26952695269530E0F901EC51FE4F66
:101E60000491877010E0082E02C0159507950A941A
:101E7000E2F701701127F901EC52FE4FE490F12CCA
:101E8000082E02C0F594E7940A94E2F791E0E92263
:101E9000FF24F901EC53FE4FC491D0E002C0D59568
:101EA000C7958A95E2F7C170DD270115110519F074
:101EB00081EE0E94E60DE114F10419F086EE0E9415
:101EC000E60D8D2D0E949B0EEF2819F086EE0E94E4
:101ED0005709012B19F081EE0E945709CD2B51F0C3
:101EE0008CE2DF91CF911F910F91FF90EF90DF90E7
:101EF0000C949B0EDF91CF911F910F91FF90EF906B
:101F0000DF9008958091DD0280FD0AC0EAECF1E0E7
:101F1000118210821282339651E0EE3EF507C1F72E
:101F2000539A3BB1377F2BB128604FB7F8948AECB6
:101F300091E0FC015191CF0168E02BB9000000C095
:101F400057FF3BB9550F000000C000C000C03BB9AF
:101F500000C06A9591F7F1E08E3E9F0751F74FBFA1
:101F60008FE594E00197F1F700C000000895EF922B
:101F7000FF920F931F93CF93DF937C01FC01848129
:101F8000811109C081E084831092EE0192E0909368
:101F90000C0180930B01CAECD1E0FE01118210828A
:101FA0001282339681E0EE3EF807C1F710E000E0C0
:101FB0008091EE01082E000C990B08171907BCF14F
:101FC00080910C01082E000C990B801791077CF171
:101FD0009E014091E0026091DF028091DE020E944A
:101FE00078070F5F1F4F23960C30110509F70E94E9
:101FF000820F80910B019091EE01980F9093EE016A
:1020000020910C01280F20930C01121614F49B3020
:102010003CF0819580930B01813011F4F70114821B
:10202000DF91CF911F910F91FF90EF90089519824A
:1020300018821A82D6CFEF92FF921F93CF93DF932D
:10204000EC018AECE82E81E0F82E10E08C819701FB
:102050004091E0026091DF02810F0E9478071B5ED1
:1020600083E0E80EF11C1C3F89F70E94820F9A81E1
:102070008C8190FF08C08F5F8C83DF91CF911F917F
:10208000FF90EF9008958150F7CF9F92AF92BF924B
:10209000CF92DF92EF92FF920F931F93CF93DF9334
:1020A000EC018A81BB24BA9480FD02C0BB24B394A6
:1020B0008C81811108C081E0B8125DC08BE08093F3
:1020C000C90181E08C832AECE22E21E0F22E10E09F
:1020D00000E03CE0932EF70111821082128294E01E
:1020E000C92ED12CA12C8091C9018A0D8D300CF400
:1020F00045C0692D0E94452A892F082E000C990B96
:102100008017910791F48091E0028C9DA0018D9D34
:10211000500D112455954795559547959701609118
:10212000DF028091DE020E947807AB0CF1E0CF1A4B
:10213000D108C9F60F5F1F4F83E0E80EF11C0C3089
:10214000110549F60E94820F8091C90191E0B912F0
:102150001EC0811117C08BE08093C9011C82DF91E2
:10216000CF911F910F91FF90EF90DF90CF90BF9094
:10217000AF909F9008951092C901A3CF87FFBDCF64
:10218000845FBBCF81508093C901BC82E8CF90E0CF
:102190000196B8010E94672A8093C9018C83DFCF22
:1021A0009091DD0290FF0CC0EAECF1E08183608346
:1021B0004283339691E0EE3EF907C1F70C94820F0B
:1021C0000895CF93DF9300D00F92CDB7DEB79091F3
:1021D000DD0290FF0AC09E012F5F3F4F0E947807EB
:1021E0004B8169818A810E94D0100F900F900F90CF
:1021F000DF91CF910895CF93DF93EC01EC81F0E074
:10220000E758FC4F4491EDEDF2E0628181810E943C
:10221000E1108C818F5F8C83DF91CF910895CF93F4
:10222000DF93EC01EDEDF2E0438162818C810E944D
:10223000E1108C818F5F8C83DF91CF910895EDED5C
:10224000F2E080818E7F80830E946207E4EBF2E0FF
:102250008281816082832FEF80E792E0215080406D
:102260009040E1F700C000000C94820F8091C801FB
:10227000811111C08091D80080618093D8008AE1DB
:102280008A95F1F700C09091D900892F817090FF55
:1022900082E08093C80181E09091C801913009F0FB
:1022A00080E00895FF920F931F93CF93DF938C01EB
:1022B0008AE0F82EF8018491882309F44BC081301C
:1022C00009F044C0E8012196FE018491813049F46F
:1022D0002196FE0184910E949B0E8E010F5F1F4F7D
:1022E000E9CF823039F4E8012296FE0184910E9400
:1022F000E60DF3CF833039F4E8012296FE01849194
:102300000E945709EACF843041F7E8012296FE0186
:10231000249190E080E0FE0131962053330B2A3067
:10232000310548F00197C8F2EFE9FFE03197F1F786
:1023300000C00000F7CFF89EA001F99E500D1124B7
:10234000C901840F951F2491EF01E5CF0E941C0F56
:10235000E801C3CFDF91CF911F910F91FF900895B6
:102360006BEE7EEF90E080E00E94C62A60E082E0A3
:1023700090E00E94A82A60E083E090E00E94A82AF2
:1023800010927D0210927E0210927F0210928002C3
:1023900060E084E090E00E94A82A60E081E290E0A2
:1023A0000E94A82A60E085E090E00E94A82A60E0F0
:1023B00086E090E00E94A82A6FEF87E090E00E94FC
:1023C000A82A40E050E0BA0188E090E00E94BA2AD2
:1023D00060E08DE090E00E94A82A40E050E0BA0161
:1023E00088E190E00E94BA2A60E087E190E00E94D4
:1023F000A82A40E050E0BA018CE190E00E94BA2A9D
:1024000060E080E290E00E94A82A40E050E0BA013B
:1024100088E190E00E94BA2A40E050E0BA018FE0E3
:1024200090E00E94BA2A40E050E0BA0183E190E0D7
:102430000C94BA2ACF92DF92EF92FF926B017C014B
:102440000E946907B701A60188E090E0FF90EF9035
:10245000DF90CF900C94BA2A3F924F925F926F9286
:102460007F928F929F92AF92BF92CF92DF92EF9224
:10247000FF920F931F93CF93DF9300D00F92CDB7AE
:10248000DEB7182F562E042F422E9091DD0290FFBA
:102490003BC0E92FE695AE2FB0E0A75DBE4F8C9113
:1024A0008093B4029E7F923009F043C09E012F5F5B
:1024B0003F4F812F0E9478074B8169818A810E945A
:1024C000D0108091DE02811308C08091DF02851157
:1024D00004C08091E002801729F08091B6028260EA
:1024E0008093B6021093DE025092DF020093E00266
:1024F000442051F06091DD027091DE028091DF0294
:102500009091E0020E941A120F900F900F90DF91AD
:10251000CF911F910F91FF90EF90DF90CF90BF90E0
:10252000AF909F908F907F906F905F904F903F9073
:102530000895823019F40091E002C3CF863019F477
:102540001091DE02BECF8930D9F3883109F0B9CFBE
:10255000E8518E2F8170382EE695F0E0EC58FC4F54
:10256000A590B490BB248AECE82E81E0F82E9EEE74
:10257000892E91E0992ED12CC12C2CE0622E712C49
:10258000C601B3010E94532A812F311011C0860F5A
:102590009701402F652D0E947807CA0CDB1C83E051
:1025A000E80EF11C8E149F0459F70E94820F89CF08
:1025B000861BEECFEDEDF2E0438128E0421B08F4EC
:1025C00040E021E0628181810C942C12EDEDF2E07B
:1025D000438128E0420F08F44FEF21E062818181BE
:1025E0000C942C12EDEDF2E0628128E0621B08F4FD
:1025F00060E021E0438181810C942C12EDEDF2E04A
:10260000628128E0620F08F46FEF21E0438181814D
:102610000C942C12EDEDF2E0818121E04381628186
:1026200088500C942C12EDEDF2E0818121E0438181
:102630006281885F0C942C128091E102882319F04A
:1026400081508093E1026091DD027091DE02809101
:10265000DF029091E0020C941A128091E102833023
:1026600018F48F5F8093E1026091DD027091DE02C9
:102670008091DF029091E0020C941A12EDEDF2E0ED
:1026800083E0808311828FEF828383831482A4EBA3
:10269000B2E012968C911297836012968C936081AF
:1026A0007181828193810C941A1210927B02809125
:1026B0001801E6EAF1E0882359F08091A30287FF30
:1026C00007C08EE1DF011D928A95E9F70C94350869
:1026D00086E0F8CF1F93CF93DF93CDB7DEB7AA97ED
:1026E0000FB6F894DEBF0FBECDBF81E293E020911C
:1026F000F100DC012D93CD01B3E089329B07B9F7DE
:1027000080912203833009F471C0B8F4813009F458
:1027100048C0823009F4B2C08091E80083FF3AC11A
:1027200080912103909122039A3008F033C1E92F60
:10273000F0E0E750F54D0C947B2A8A3009F48DC007
:102740008B3009F470C0893039F7809121038132D0
:1027500019F78091250390912603009711F00297B5
:10276000D9F68091E800877F8093E8008091E800A7
:1027700082FF37C09091F3008091F200029729F414
:102780008091F1008B7F813021F48091F100809362
:10279000FC028091E8008B778093E8000E94BA04E5
:1027A000BBCF80912103813A09F0B6CF8091E80038
:1027B000877F8093E8008091250390912603892BE1
:1027C00061F460E28DEF92E070E00E946C05809110
:1027D000E8008B778093E8009FCF60E090E080E096
:1027E000F3CF80911F038111C1CF96CF8091210338
:1027F000813A09F091CF8091250390912603892B8E
:1028000009F08ACF8091E800877F8093E80080916B
:10281000E80080FFFCCF809118018093F100809147
:10282000E8008E77B9CF80912103813209F074CF0F
:102830008091250390912603892B09F06DCF80911B
:10284000E800877F8093E8000E94BA048091230308
:10285000809318010E9455135FCF8091210381322C
:1028600009F05ACF8091E800877F8093E8000E94AA
:10287000BA04809124038093FB024ECF8091210300
:10288000813A09F049CF8091E800877F8093E80082
:102890008091E80080FFFCCF8091FB02BECF8038A2
:1028A00099F0823809F076C0809125038F708730C7
:1028B00008F070C08093E9008091EB0085FB8827C9
:1028C00080F91092E90006C080911D0390911E03CB
:1028D000911182609091E800977F9093E800809337
:1028E000F1001092F1008091E8008E77B5C1882345
:1028F00009F4A2C1823009F04DC0809123038111F7
:10290000A6C1809125038F702FEF280F263008F085
:1029100041C08093E9002091EB0020FF98C19330E3
:1029200031F48091EB0080628093EB0090C1909134
:10293000EB0090619093EB0021E030E001C0220FAA
:102940008A95EAF72093EA001092EA008091EB0062
:102950008860EACF81111EC0109123031F778091F8
:10296000E3008078812B8093E3008091E800877FEB
:102970008093E8000E94BA048091E80080FFFCCFB9
:102980008091E30080688093E30082E0111183E08E
:1029900080931F038091E80083FF0AC08091E800C4
:1029A000877F8093E8008091EB0080628093EB004A
:1029B000AA960FB6F894DEBF0FBECDBFDF91CF91C0
:1029C0001F9108958058823028F720912303309179
:1029D00024032C3DE3E03E07A1F583E08A838AE2ED
:1029E00089834FB7F894DE01139620E03EE051E270
:1029F000E32FF0E050935700E49120FF03C0E295ED
:102A0000EF703F5FEF708E2F90E0EA30C0F0C79616
:102A10008D939D932F5F243159F74FBF8091E8002C
:102A2000877F8093E8006AE270E0CE0101960E9401
:102A30006C058091E8008B778093E800ABCFC0965F
:102A4000E7CF8091250390912603432F55274330EC
:102A5000510509F44AC078F54130510509F47AC0AE
:102A60008BE590E0E0E6F7E04230510509F092CFC7
:102A70002091E800277F2093E800209127033091E0
:102A800028038217930708F49C0140E021153105C3
:102A900009F065C0411163C08091E80082FDC9CF93
:102AA00080911F03882329F2853019F28091E80074
:102AB00083FFF2CFBECF4132510509F43CC0423210
:102AC000510509F067CF8330910508F063CFFC0111
:102AD000EE0FFF1FEB56FE4F0190F081E02D8E565A
:102AE0009E4FDC018C9190E01AC0332721303105D4
:102AF000D1F02115310561F02230310509F04ACFBE
:102B0000EDECF7E0E4918E2F90E0EDECF7E007C0FC
:102B1000E9EEF7E0E4918E2F90E0E9EEF7E0009720
:102B200009F438CFA5CFEBEDF7E0E4918E2F90E0DC
:102B3000EBEDF7E0F4CF8330910508F02BCF880F51
:102B4000991FFC01E556FE4F0190F081E02D89E0D0
:102B500090E08ECF82E190E0EBEBF7E089CF8091BF
:102B60001F03882309F465CF853009F462CF809173
:102B7000E80083FD5ECF8091E80082FD8DCF8091DB
:102B8000E80080FF83CF9091F3008091F20021153F
:102B9000310519F08830910550F041E0089709F0AF
:102BA00040E08091E8008E778093E8006FCF4491F9
:102BB0004093F1003196215031090196E8CF8038D9
:102BC00009F0E8CE8091E800877F8093E80080914B
:102BD00020038093F10087CE8111DCCE1091230376
:102BE000123008F0D7CE8091E800877F8093E8000C
:102BF000109320030E94BA04112311F084E005C051
:102C00008091E30087FDFACF81E080931F0342E0CB
:102C100061EC81E00E94D90442E261EC84E00E9410
:102C2000D90442E261EC82E00E94D90442E260EC05
:102C300083E00E94D904AECE80912303813009F055
:102C4000A9CE81E0933009F080E080931E031092BA
:102C5000E9008091E800877F8093E8000E94BA0431
:102C600099CE6F927F928F929F92AF92BF92CF92A6
:102C7000DF92EF92FF920F931F93CF93DF93CDB725
:102C8000DEB72C970FB6F894DEBF0FBECDBF0CE7B2
:102C900011E079E8C72E72E0D72E5601F12C882476
:102CA0008394912CD8018D918D01F894E82FE295B1
:102CB000EF70F0E021A18F70A40102C0440F551FF6
:102CC0008A95E2F7CA01922F982B91A392A1809541
:102CD000892382A3789400C0E8E8F1E030E020E0A6
:102CE000712C612C4191A42FA295AF70B0E0909609
:102CF0008C9190E04F7002C0959587954A95E2F7C8
:102D000080FD52C0C401022E02C0880F991F0A9490
:102D1000E2F7682A792A2F5F3F4F2A30310511F7F1
:102D2000F801319780810E94500A50EA5A95F1F7D4
:102D3000D5018D919C91119768167906C1F16D921C
:102D40007C9281E0F82AB2E0AB0EB11CE1E00238DF
:102D50001E0709F0A7CF1091A202FF2051F181E0D8
:102D60008093C6010E94FC059093C5018093C40125
:102D70008091C4019091C5010E94E1050697E8F099
:102D8000E12FF0E0EE0FFF1FEE51FD4FD6018D91C8
:102D90009D916D0181939193B5E9CB16B2E0DB066D
:102DA000A9F71092C60109C090E080E0B2CF80E0A0
:102DB000C9CF8091C6018111DBCF0E943611E82E68
:102DC0006091A202882309F469C08E010F5F1F4F32
:102DD0008CE0F80111928A95E9F7862F90E0880F30
:102DE000991FB8018E519D4F0E942E28811130C02D
:102DF0008091C7018F5F8093C701863008F44CC073
:102E0000E091A102F0E0EE0FFF1FEE51FD4F90E0C8
:102E100080E011921192019686309105D1F7F11060
:102E200001C0FE2C8F2D2C960FB6F894DEBF0FBE7E
:102E3000CDBFDF91CF911F910F91FF90EF90DF9069
:102E4000CF90BF90AF909F908F907F906F9008959C
:102E50001092C701E091A102F0E0EE0FFF1F9F0169
:102E60002E513D4F6901D801AE01435F5F4FE12C08
:102E7000F601619171916F012D913D916217730778
:102E800039F0BF0162507109FB0131832083E82EC4
:102E9000A417B50769F7C3CFE12CC1CF70E0660F67
:102EA000771F6E517D4F8091A10290E0880F991F8E
:102EB0008E519D4F0E945D28B2CF1F920F920FB688
:102EC0000F9211242F933F934F935F936F937F93B0
:102ED0008F939F93AF93BF93CF93DF93EF93FF9322
:102EE000D091E900DF708091EC00C82FC17080FDA7
:102EF000C0E81092E9008091F000877F8093F00095
:102F000078940E946A131092E9008091F000886022
:102F10008093F000CD2BCF70C093E900FF91EF912B
:102F2000DF91CF91BF91AF919F918F917F916F91E1
:102F30005F914F913F912F910F900FBE0F901F9077
:102F400018951F920F920FB60F9211242F933F9353
:102F50004F935F936F937F938F939F93AF93BF93A1
:102F6000EF93FF938091E10082FF09C08091E2001E
:102F700082FF05C08091E1008B7F8093E10080910A
:102F8000DA0080FF24C08091D80080FF20C08091AB
:102F9000DA008E7F8093DA008091D90080FF9BC099
:102FA00080E189BD82E189BD09B400FEFDCF81E0E9
:102FB00080931F038091FA02811109C00E9440048E
:102FC0000E940B058091E20084608093E200809172
:102FD000E10080FF17C08091E20080FF13C0809164
:102FE000E2008E7F8093E2008091E2008061809316
:102FF000E2008091D80080628093D80019BC85E0FF
:1030000080931F038091E10084FF29C08091E2003A
:1030100084FF25C080E189BD82E189BD89B5982FF3
:10302000917080FFFBCF8091D8008F7D8093D80076
:103030008091E1008F7E8093E1008091E2008F7E9D
:103040008093E2008091E20081608093E2008091B1
:103050002003882309F445C084E080931F038091F6
:10306000E10083FF27C08091E20083FF23C08091AD
:10307000E100877F8093E10082E080931F0310923C
:1030800020038091E1008E7F8093E1008091E20037
:103090008E7F8093E2008091E20080618093E20065
:1030A00042E060E080E00E94D9048091F0008860F6
:1030B0008093F000FF91EF91BF91AF919F918F911D
:1030C0007F916F915F914F913F912F910F900FBE24
:1030D0000F901F90189519BC10921F031092FA02BE
:1030E00076CF8091E30087FD93E090931F03B7CFE5
:1030F0000F931F930E943611882321F01F910F9187
:103100000C94F0050E94F005009185021091860252
:103110002091870230918802600F711F821F931FD8
:103120001F910F9108950E94361181110C94FC0596
:103130000E947818CB0108956091DD02669570E0D9
:103140004BE050E080E091E00E94DC2A892B19F4EA
:1031500081E08093B5020E9493189093AF02809310
:10316000AE028091B60284608093B6020895909179
:10317000DD0290FF3BC0917081112EC09260909350
:10318000DD028091B60281608093B602662351F021
:103190006091DD027091DE028091DF029091E00289
:1031A0000E941A126091DD02669570E04BE050E0DB
:1031B00080E091E00E94DC2A892BA9F00E9462073E
:1031C00081E08093B10220E04091E0026091DF0253
:1031D0008091DE020C942C12823210F09264CFCFD8
:1031E000880F982BCCCF0E949C18EACF089580912D
:1031F000DD028695815009F481E261E00C94B718F4
:103200008091DD0286958F5F823208F081E061E077
:103210000C94B7189091DD0290FF07C0969598170F
:1032200020F0961710F40C94001961E00C94B71874
:103230003F924F925F926F927F928F929F92AF9246
:10324000BF92CF92DF92EF92FF920F931F93CF9393
:10325000DF9300D000D00F92CDB7DEB77C01FC0128
:1032600083819481892B31F08081918189238F3FE3
:1032700009F08BC50F900F900F900F900F90DF917A
:10328000CF911F910F91FF90EF90DF90CF90BF9063
:10329000AF909F908F907F906F905F904F903F90F6
:1032A00008950E94750C182F682F89819A810E94B9
:1032B000DA0669817A81812F0E94DE0A8C01F7018A
:1032C0008281882309F456C5980122513F45203157
:1032D000310508F021C58FEF93E00E94942A025136
:1032E00056EFC52E52E0D52E882381F180917802C9
:1032F000877009F4BFCFF7018281882309F4BACF20
:1033000082E00F900F900F900F900F90DF91CF9170
:103310001F910F91FF90EF90DF90CF90BF90AF90F3
:103320009F908F907F906F905F904F903F900C9404
:103330009B08C114F4E0DF06C9F2C6010E94942A7A
:10334000811101C001502FEFC21AD20A0111F1CF31
:103350001C821B82BB24B3944AE0A42E86010F5F1B
:103360001F4FC6010E94942A89831A82882309F478
:10337000BDCF9FEF980F933008F58A83B98232E072
:10338000C30ED11CC8010E94942A8B83882309F4A0
:10339000ADCF8E010F5F1F4FF80180818823F1F2BE
:1033A000813009F043C091818281913049F40E5FF0
:1033B0001F4F0E949B0E0F5F1F4FEECF6801E9CF9A
:1033C000923029F40E5F1F4F0E94E60DF4CF933028
:1033D00029F40E5F1F4F0E945709EDCF943019F06A
:1033E0000F5F1F4FE8CF0E5F1F4F30E020E0B801A6
:1033F0006F5F7F4FF80141818053990B8A309105AF
:1034000050F021503109B8F28FE99FE00197F1F7B0
:1034100000C00000F6CFA29EF001A39EF00D112483
:103420009C012E0F3F1F842F8B01E1CF0E941C0FA8
:10343000C2CF81E00E94B3080E945C0857CF81E0B0
:103440000E947808F9CF82E0F5CF882321F08DE43F
:1034500097E00E945211F7019281992309F4A6C4C2
:1034600010922B030230FCE51F0708F447C1063118
:103470002CE5120738F098012B5F3C4529303105C7
:1034800008F03CC10E94AA0A9093A4028093A30270
:1034900000313CE5130709F400C108F08EC0083084
:1034A0009CE5190709F4EFC008F05DC00430FCE5A5
:1034B0001F0709F4E0C008F043C002303CE51307E1
:1034C00009F4CFC003301C4509F4D1C06091A302B8
:1034D0001091A40284E090E00E94A82A612F81E26A
:1034E00090E00E94A82A0E94551300CF882309F477
:1034F000B2CF89E497E0ADCF063FFCE51F07C9F0E6
:10350000A0F027E245EE66EE073F3CE5130709F021
:10351000A2CFC7010E94B80EE9CE27E245EE65EEC4
:10352000F8CF26E241EE60EEF4CF27E245EE64EEFE
:10353000F0CF26E241EE62EEECCF28E241E0EFCFA1
:103540008091A302806106309CE5190709F48CC0C4
:103550008091A302886007301C4508F485C08091E3
:10356000A302806281C08091A3028D7F0C30FCE5B4
:103570001F0709F479C070F48091A3028C600A30AF
:103580003CE5130709F470C008F481C08091A302E0
:103590008E7F6AC08091A302877F0E309CE5190759
:1035A00009F462C08091A3028B7F0F301C4508F4A0
:1035B0005BC08091A3028F7E57C00C3FFCE51F07C4
:1035C00009F45DC030F503313CE5130709F46DC023
:1035D00078F401319CE5190709F463C002311C45F8
:1035E00009F074CF0E9455138091A3028F773CC0DD
:1035F0000531FCE51F0709F460C008F474C0809130
:10360000A40281600B3F1C4509F060CF8093A402A7
:103610005DCF01158DE5180709F44BC088F4809142
:10362000A4028D7F0E3FECE51E0781F38091A4027A
:103630008E7F0F3F1C4550F38091A4028360E6CF3C
:1036400002302DE5120709F457C008F442C060E0CB
:1036500003301D4509F03ACF8EE090E00E94A82A81
:1036600035CF8091A30281608093A3022FCF8091F8
:10367000A3028260F9CF8091A3028460F5CF80918C
:10368000A4028260C3CF8091A3028064EDCF0E9428
:1036900055138091A3028068E7CF8091A3028F7DAC
:1036A000E3CF8091A3028F7BDFCF8091A302837F42
:1036B000DBCF8091A4028C7FA9CF8091A30282FBF3
:1036C000992790F921E0922790FB82F990FB83F9EA
:1036D000CBCF8091A402982F909591708E7F892BEB
:1036E00090FB81F993CF0E9455139091A302892FEB
:1036F00097FB87F98058B8CF61E0AECF0631ECE593
:103700001E0709F065C380917B028A7A91E009F473
:1037100090E09093F301811106C089E20E947E0639
:103720000E940E06E3CD85E3F9CF8091F30181116C
:1037300004C089E20E945306F3CF85E3FBCF80915A
:10374000DD0280FF20C08E7F8093DD026091DD026C
:103750007091DE028091DF029091E0020E941A12C5
:103760000E9462078091B60281608093B602FFEFEB
:1037700020E732E0F15020403040E1F700C0000087
:103780000E94820FB3CD81608093DD0261E0869557
:103790000E94B718ABCD47EF58E160E079E10E9495
:1037A0005D07A4CD40E059E167EF78E1F8CF4AE04A
:1037B00053E163E173E1F3CF43E153E16AE073E185
:1037C000EECF42EF52E16EEF72E1E9CF4EEF52E100
:1037D00062EF72E1E4CF4AED52E166EE72E1DFCFD3
:1037E00046EE52E16AED72E1DACF4CE153E16DE26F
:1037F00073E1D5CF4DE253E16CE173E1D0CF61E0ED
:1038000081E0C6CF65E082E00E940A196FCD68E0D2
:1038100086E0FACF6EE089E0F7CF64E18FE0F4CF85
:1038200067E185E1F1CF61E288E1EECF0E945513B7
:103830008FEF94E3ECE081509040E040E1F700C06E
:1038400000000E94D0050E94B01150CDC8010E9416
:10385000B206D82ED4C2212F2F70C22E107F19F09D
:10386000C29490EFC922AA20C9F0CC2069F080E26E
:103870008B0D883010F001110BC080917B02C82A9B
:10388000C0927B020E940E068B2D0E94E60D19C08D
:1038900080917A02C82AC0927A02F4CF8B2D0E94BE
:1038A0005709CC2071F0C09480E28B0D883010F065
:1038B00001113CC080917B02C822C0927B020E9411
:1038C0000E06ED2DE850FF0B349710F40E945107BF
:1038D000332009F4CFCC8091780280FDCBCCF70166
:1038E00012828595859585950E94B308C7010E942F
:1038F0001819809178028595859585950F900F9080
:103900000F900F900F90DF91CF911F910F91FF902B
:10391000EF90DF90CF90BF90AF909F908F907F906F
:103920006F905F904F903F900C94780880917A024E
:10393000C822C0927A02C3CF312F3F70C32E107FAE
:10394000103219F0C29480EFC822002369F00130D0
:1039500061F1AA20B9F1992071F1F701858180FF09
:1039600093CF8F70858327C0AA2091F090917C021D
:103970008C2D892B911003C00E941B07A2CFE1E080
:103980009E12FACF981709F49CCF80937C0299CFAE
:10399000911006C00E9408068C2D0E94100791CF3E
:1039A000F1E09F1609F48DCFF5CFAA2031F025E084
:1039B000291508F486CF8C2DDFCF34E0391508F4B3
:1039C00080CFEACF992041F3093349F4FFEF27EE86
:1039D00033E0F15020403040E1F700C000008B2D73
:1039E0000E9457096ECF812F86958695837069F066
:1039F000813009F066CF8B2D912F9370A11002C0FA
:103A000090E080E00E9425075CCF8B2D912F937072
:103A1000A11002C090E080E00E943B0752CF8B2DA6
:103A2000AA2029F00E94F6090E940E084ACF0E949F
:103A3000DE08FACF812F837009F06CC0A11041CF4E
:103A40008B2D829586958770880F880F6B2D6F70F0
:103A5000462E512C712C612C082E04C0440C551C90
:103A6000661C771C0A94D2F740E050E0BA01B4FE1D
:103A70000FC04FE050E060E070E004C0440F551FFD
:103A8000661F771F8A95D2F740955095609570957F
:103A9000169516951370123019F1A8F580907D02D5
:103AA00090907E02A0907F02B0908002113069F069
:103AB0004429552966297729CB01BA016821792142
:103AC0008A219B210E94D408FCCE84289528A62810
:103AD000B728CB01BA01682979298A299B29F2CF15
:103AE000442955296629772980907D0290907E028D
:103AF000A0907F02B0908002CB01BA0168257925A1
:103B00008A259B25DFCFCB01BA0164297529862937
:103B10009729D8CF8695AA2011F0812F817088230C
:103B200009F4CFCE8B2D829586958770880F880FEC
:103B30006B2D6F70462E512C712C612C082E04C0F9
:103B4000440C551C661C771C0A94D2F740E050E0E8
:103B5000BA01B4FE0FC04FE050E060E070E004C076
:103B6000440F551F661F771F8A95D2F740955095D1
:103B700060957095169516951370123019F1A8F589
:103B800080902C0390902D03A0902E03B0902F03D3
:103B9000113069F04429552966297729CB01BA01EA
:103BA000682179218A219B210E9452088ACE84288B
:103BB0009528A628B728CB01BA01682979298A292E
:103BC0009B29F2CF442955296629772980902C0317
:103BD00090902D03A0902E03B0902F03CB01BA013B
:103BE000682579258A259B25DFCFCB01BA01642979
:103BF000752986299729D8CF1F70AA2029F0812FEF
:103C00000E94B3088B2DB8CE8B2D0E941007812FF8
:103C10000E94780856CE8B2D023F09F44AC060F40A
:103C2000003FF9F0013FE9F1AA2009F465C09110C5
:103C30002BCE812F8F713AC0033F09F43FC0043F60
:103C400099F7AA2009F44DC01F71812F0E94B30873
:103C5000E8E01E9FC0011124836080937802812FC9
:103C600025C0AA20C9F084E0891508F42ACE1F7166
:103C700061E070E080E090E004C0660F771F881F6D
:103C8000991F1A95D2F780902C0390902D03A09045
:103C90002E03B0902F03A4CF95E0991508F411CE10
:103CA000E6CF812F8F71AA2009F4B2CF0E94B3080A
:103CB00008CE812F8F71AA20C9F3AACF60E070E0EF
:103CC000CB01AA2009F470CF1F7161E070E080E0A1
:103CD00090E004C0660F771F881F991F1A95D2F7CE
:103CE00063CF81E00E949B08F1E0F91508F0E9CD6F
:103CF00082E00E949B08E5CD992059F0893309F0B4
:103D00006ECE2FEF37EE83E0215030408040E1F758
:103D100064CE812F8F717CCF0031FFE51F0709F43E
:103D200088CB01312FE5120709F48DCB0932EDE57F
:103D30001E0709F48ACB0A32FDE51F0709F4D6CB2A
:103D4000043F2CE5120709F4ECCB08F0D5CB093D74
:103D50008CE5180709F4E1CB0A3D9CE5190709F445
:103D6000ECCB083DECE51E0709F075CB26E241EEF1
:103D700061EECFCB00313FE5130709F460CB013191
:103D80009FE5190799F682E05BCB85E0DE0111968D
:103D900001900D928A95E1F7F701228189819A813C
:103DA00021117FCA0E94B206182F83CA0631FCE592
:103DB0001F0709F4BACC80917B028272F801E35CA0
:103DC000FC45E431F10568F4ED5FF44D0C947B2A79
:103DD00001152CE5120709F429CD0F3D1C4509F406
:103DE00032CDF70100811181992309F42FCDC8014B
:103DF0000E94750CD82E682FC8010E94DA06B801FF
:103E00008D2D0E94EB0AB82E192F082FF701A280E2
:103E1000958092943FE09322809178028770A1F080
:103E20003A2CAA2091F0892F807F803421F080E203
:103E30008B0D883048F082E00E949B0880917802C8
:103E40008770332433948111312CD12ED2942FE0FA
:103E5000D222FBE0FD1508F434CDED2DF0E0E95E53
:103E6000F44D0C947B2A1F93CF93DF938091FA013A
:103E7000807FA9F48091F701882389F080912C023A
:103E8000D091FB016091F5017091F601A091F801CC
:103E9000B091F901C62FC72316E0D81304C0DF91F3
:103EA000CF911F91089590E0109711F0CF3F19F432
:103EB00001968770F2CF189F9001199F300D112441
:103EC000F901E450FE4F41814713F2CF4081461380
:103ED000EFCF42814111ECCF438154814A1B5B0BF0
:103EE000483C510528F78091FA018F7080618093DA
:103EF000FA01F901EF5FFD4F80818F70806180834F
:103F000085EF91E00E941819DF91CF911F910C94D9
:103F10000607AF92BF92CF92DF92EF92FF920F937C
:103F20001F93CF93DF93CDB7DEB761970FB6F894A9
:103F3000DEBF0FBECDBF8C0185E0F801DE011D960E
:103F400001900D928A95E1F7F80180819181E280DC
:103F500025EFA22E21E0B22E6091F8017091F901B7
:103F60006115710509F43EC13091F5014091F601EA
:103F7000232F24232F3F09F435C1C380D480F09030
:103F8000F701F601E61BF70BFF2009F4FBC02091B7
:103F9000FA01522F507FE83CF10508F0BBC05111E7
:103FA00078C0FE2C491321C038131FC0E1101DC07A
:103FB0002F7020612093FA01C5010E941819809189
:103FC000FA01F80185838F2D61960FB6F894DEBF54
:103FD0000FBECDBFDF91CF911F910F91FF90EF905A
:103FE000DF90CF90BF90AF900895CD2829F0282F73
:103FF00029232F3F09F014C120E0F22FF170DF2EAA
:1040000020FF3DC020912C024091FB0156E024137B
:1040100015C08D879E878D859E850E94B70C292FA0
:1040200022952F702230F8F0243020F59F70F9F09F
:10403000F8019581907FD9F4D12C1FC030E0529FB8
:10404000F001539FF00D1124E450FE4F618196134F
:1040500006C06081861303C06281E61210C02F5F24
:104060003F4F2770D4CF9F7011F0882329F3805ED3
:10407000883010F3C8010E941819FD2CA4CFEE203F
:1040800009F4A1CF8091FA0181608093FA01F12CAB
:104090009ACF491312C0381310C0E1100EC0F801B6
:1040A0002583C8010E94181986E0F801A5EFB1E048
:1040B00001900D928A95E1F786CF8D879E878D8539
:1040C0009E850E94C10C882309F1EE20F9F08091B1
:1040D000FA01803270F02091F5013091F6013887B5
:1040E0002F831986DB86CA868C87CE0107960E94AD
:1040F000181986E0F801A5EFB1E001900D928A95BC
:10410000E1F70E94331FFF24F3945DCFC8010E94A2
:104110001819F9CF51110AC085EF91E00E941819C2
:1041200086E0F50111928A95E9F7B1CF49130FC0E6
:1041300038130DC0E1100BC0F8012583C8010E949F
:10414000181986E0F50111928A95E9F73CCF8D8721
:104150009E878D859E850E94C10C8823B9F2EE2032
:10416000A9F28091FA01803220F22091F50130917C
:10417000F6013A8329831B82DD82CC828E83CE01B5
:104180000196B5CFE83CF105E0F6FE2CEE2009F4EF
:10419000BDCF491316C0381314C08091FA0180FDB9
:1041A00083CF982F907F09F47FCFF8018583903FCC
:1041B00009F477CF982F907F905F8F70892B85833C
:1041C00070CF8D879E878D859E850E94C10C811141
:1041D00090CF8091FA0181608093FA01C8010E941A
:1041E0001819F1CEEE2009F491CF8D879E878D8529
:1041F0009E850E94C10CF82E882309F487CF86E0A3
:10420000F801A5EFB1E001900D928A95E1F7809158
:10421000F5019091F6010E94B70C0E94331FD3CE96
:1042200021E02E25EACE1F93CF93DF93CDB7DEB7E3
:1042300067970FB6F894DEBF0FBECDBF342F4B8B00
:10424000252F5C8B6D8B7E8B8F8B8E899F89611167
:1042500010927A021A8A198A3D872E876F87998B66
:10426000888B86E0FE013D96DE01179601900D9247
:104270008A95E1F7CE0107960E94891F882389F06D
:1042800016E080912C029091FB01891349C067963A
:104290000FB6F894DEBF0FBECDBFDF91CF911F9157
:1042A000089586E0FE013796DE01119601900D9289
:1042B0008A95E1F78A859B85892B11F38F819885F3
:1042C00089238F3FE9F22091FB0130E0C90101967B
:1042D0008770992740912C024817190671F40E94A3
:1042E00055131092FB0110922C0286E0E5EFF1E0ED
:1042F000DF011D928A95E9F7C3CF96E0929FD00126
:10430000939FB00D1124A450BE4FFE013196019031
:104310000D929A95E1F78093FB010E940607B0CFBA
:10432000819FC001112484509E4F0E94891F8823C1
:1043300009F4ADCF80912C0290E001968770992707
:1043400080932C029ECFCDB7DEB7AA970FB6F89414
:10435000DEBF0FBECDBF84B7877F84BF0FB6F89492
:10436000A895809160008861809360001092600041
:104370000FBE80E890E00FB6F894809361009093B0
:1043800061000FBE85B7806885BF85B7806885BF2F
:104390008BEC95E09093A3018093A2010E944004CE
:1043A0000E940B058091E20084608093E200789483
:1043B00080911F038823A1F01091E9001F70909154
:1043C000EC00892F817090FD80E8182B1092E90095
:1043D0008091E80083FD0E946A131F701093E9002A
:1043E00082E084BD93E095BD9AEF97BD80936E0007
:1043F0001092850210928602109287021092880213
:104400000E94361180930D010E94361181110E9485
:10441000052880910D0180910D0196E0811190E0B9
:104420009093A20286E0891B8093A10286EF0E94EE
:10443000500A87EF0E94500A81E30E94500A83E3EA
:104440000E94500A82E30E94500A86E30E94500AAA
:1044500008E811E0F80181918F010E94500AF1E013
:1044600002391F07B9F7E9E8F2E081EA92E0A2EE2B
:10447000B2E0119211921D921D928E179F07C9F7FB
:104480000E9431168FE39CE90197F1F700C000000C
:104490000E9431168091E20280FF17C06FEF82E226
:1044A00090E00E94A82A6FEF83E290E00E94A82A81
:1044B0006FEF84E290E00E94A82A6FEF7FEF90E018
:1044C00080E00E94C62A0E94D00590E080E00E9411
:1044D000A22A8B3E9E4F11F00E94B0110E9436110D
:1044E000811102C00E940B2882E290E00E94942A6F
:1044F000813209F0A9C483E290E00E94942A8330BB
:1045000009F0A2C484E290E00E94942A803109F06C
:104510009BC490E080E00E94A22A8B3E9E4F11F047
:104520000E94B01182E090E00E94942A8093C4021D
:104530000E94AA0A9093A4028093A30283E090E0D1
:104540000E94942A682F70E090E080E00E94D408D6
:104550008091A50281113BC090E080E00E94A22AD8
:104560008B3E9E4F21F00E94B0110E943E1388E0C6
:1045700090E00E949C2A6093DD027093DE0280939B
:10458000DF029093E0028091B60283608093B602CE
:104590006E7F71F40E943E1388E090E00E949C2A96
:1045A0006093DD027093DE028093DF029093E0025D
:1045B0000E9469070E9462078091DD0280FF04C0AB
:1045C00060E086950E94B71881E08093A5028EE096
:1045D00091E09093A7028093A60258E1C52ED12CBA
:1045E00060E4B62E7AEFE72E72E0F72E80911F037B
:1045F000AA24A39400E112E1853009F4EDC10E94E0
:10460000311681110E94F005E5ECF2E0A2EEB2E075
:1046100010E000E0502E6D907D9081919191861573
:10462000970509F4FAC186259725A12C882483943F
:10463000912C9C0128213921232B09F4E8C10E94E7
:1046400036118823A9F0A9A25AA26820792081E016
:10465000672809F480E08BA30E94FC058160782F15
:104660009DA38CA349A15AA16BA18DA10E941321E6
:10467000000F111FF801EB53FD4F808191818826B7
:104680009926918280828091B502882309F464C0C2
:104690008091B402E091DD02E695E81BE093B00260
:1046A000823009F0D1C1F0E0E45AF84FE4910E2FC6
:1046B00010E0EBEF6E2EE0E17E2E8091B1028823B8
:1046C00061F01092B1020E9493189093AF02809310
:1046D000AE021092B3021092B2020E949318E091BF
:1046E000AE02F091AF029C012E1B3F0B2F3F3F47C4
:1046F00098F52091AD022223B1F01092AD022091E5
:10470000AB023091AC02821B930B8F3F9F4758F452
:10471000205D3A483093AC022093AB028091B60200
:1047200088608093B6028090B2029090B302E00F4E
:10473000F11FF093AF02E093AE028EEA92E0F30134
:1047400009958091B2029091B302892B29F48928AE
:1047500019F081E08093AD0286E0EDEBF2E0DE013E
:10476000119601900D928A95E1F7A090BF0290906A
:10477000C0021091C1020091C2021092BF021092B9
:10478000C0021092C1021092C2028A2D892909F436
:1047900048C08091BB029091BC020E94E1059C013F
:1047A0009091BA02992309F476C323333105C8F1F5
:1047B0009F3F19F09F5F9093BA02AA2059F00E9480
:1047C000D6099FEF1A140CF491E0899F802D1124D3
:1047D0008093BF02992059F00E94D6099FEF1914C7
:1047E0000CF491E0899F802D11248093C0023091B8
:1047F000BF023323B1F02091C002222391F045EB98
:104800003403C0011124992309F45BC19093BF02C2
:1048100045EB240390011124332309F456C130934E
:10482000C002812F802B09F448C08091B80290917A
:10483000B9020E94E1059C019091B702992309F405
:1048400025C325363105C8F19F3F19F09F5F90932E
:10485000B702112359F00E94B4099FEF11160CF40E
:1048600091E0899F802D11248093C102002359F08B
:104870000E94B4099FEF10160CF491E0899F802DDF
:1048800011248093C2023091C1023323B1F02091F0
:10489000C202222391F045EB3403C0011124992375
:1048A00009F417C19093C10245EB24039001112430
:1048B000332309F412C13093C2028091BF02909158
:1048C000C002892B9091C102892B9091C202892B41
:1048D00011F00E940E0886E0FE013196ADEBB2E0C9
:1048E00001900D928A95E1F70E9451079091C302C1
:1048F000891721F00E9451078093C30280911F0302
:10490000843009F073CE83E08093E9008091E80061
:1049100082FF6CCE8091E80090E085FF06C00E9487
:104920005F04882309F4DDC091E08091E8008B7773
:104930008093E800992309F459CEE981E150E331ED
:1049400008F047C1F0E0ED5DF44D0C947B2A8091B6
:104950001F03843009F430C00E9462078091AA02CC
:10496000811109C0A092AA028091DD02817080931A
:10497000A9020E941F111092A8020FB6F894A895E0
:10498000C09260000FBEB092600083B7817F8460E8
:1049900083BF83B7816083BF7894889583B78E7F08
:1049A00083BF0FB6F894A8958091600088618093CA
:1049B0006000109260000FBE80911E03882361F09A
:1049C0000E943116E2EEF2E081919191892B09F07B
:1049D00025C2EE16FF06C1F780911F03853009F44A
:1049E000B6CF0E9455130E9451071092AA028091DF
:1049F000A902882349F08091DD0281608093DD0265
:104A000060E086950E94B7180E949C18F8CDA39488
:104A1000880C991C4AE0A4120CCE0F5F1F4F0C307B
:104A2000110509F0F7CD8FEF8EA38FA318A60E9472
:104A3000FC058160782F9AA789A74EA15FA168A580
:104A40008AA50E9413211FCE863059F4F0E0E75A60
:104A5000F84FE4910E2F10E07FE0672E71E1772E82
:104A60002CCE893061F4E695F0E0EA5AF84FE491F3
:104A70000E2F10E06BE1662E60E1762E1ECE8F3099
:104A800061F4E695F0E0ED5AF84FE4910E2F10E056
:104A900055E4652E50E1752E10CE00ED17E03AEC8E
:104AA000632E35E0732E853109F007CEF0E0E05B30
:104AB000F84FE4910E2F10E047EB642E4FE0742E78
:104AC000FCCD81E08093BF02A3CE81E08093C00241
:104AD000A8CE81E08093C102E7CE81E08093C2023C
:104AE000ECCE00E210E0CE0101964C018091E8008E
:104AF00085FD0AC08091E8008B778093E8000E94D2
:104B00005F04882399F310CF8091F100F401819321
:104B10004F010150110951F707CF1A8289E08B83A9
:104B200011C08A81823009F4A8C1833091F18130AB
:104B300009F04FC00E94F0050E94812A6B837C839C
:104B40008D839E8380911F03843009F04FCD109197
:104B5000E9001F709091EC00892F817090FD80E832
:104B6000182B82E08093E9008091E80080FF0DC05F
:104B700050E040E060E270E0CE0101960E949004B7
:104B80008091E8008E778093E8001F701093E90011
:104B90002DCDDE011196E2EEF2E080819181329618
:104BA00012969C93129713968C9313971296EE1667
:104BB000FF0699F7C7CF8A81823059F46B817C81D7
:104BC0008D819E810E94812A85E290E00E94A82A20
:104BD000B9CF8FEF8983B6CF4C816B818A810E94D8
:104BE000B80A9827892798279E838D83ABCF8D801D
:104BF0009E809824892498248A810B81F4E10F9F58
:104C00008001112420EF829F000D111D11248C8141
:104C100090E0880F991F080F191F692DC80186960B
:104C20000E94A82A682DC8018796D0CF0E94E50C63
:104C300089CF8A818138C1F060F4803809F082CF51
:104C400020E04B816091DF028091DE020E942C12F5
:104C500079CF8238E9F0833809F074CF20E04091B1
:104C6000E0026C818B81F2CF60E08B810E94B718EB
:104C70008B81811103C00E941F1164CF8091DD02DE
:104C800081608093DD0260E086950E94B7185ACF5C
:104C90008B818093E10256CF8A81813899F030F47C
:104CA000803809F04FCF8091E00239CF823891F0FF
:104CB000833809F047CF8091DE028B838091DF0239
:104CC0008C8340CF8091DD0280FF02C0869527CF84
:104CD00080E025CF8091E10222CF6091DD027091CA
:104CE000DE028091DF029091E0020E941A122ACF28
:104CF00080E18A8327CF81E08A838AE010CF0A810E
:104D00001B81102701271027CE0101963C018C80C2
:104D1000FC01E80DF11D4F01C8018A509D4F681438
:104D2000790409F40FCF0A30F1E01F0750F40E9414
:104D3000942AF30184830F5F1F4FFFEF6F1A7F0ADE
:104D4000EBCFF3011482F7CF0A811B8110270127D3
:104D50001027CE0101963C018C80800E912E911C73
:104D6000C8018A509D4F8016910609F4EBCE0A3097
:104D7000E1E01E0720F4F30164810E94A82AFFEFFE
:104D80006F1A7F0A0F5F1F4FEBCF0E943B0DDACEE9
:104D900083E0AFCF0A811B81102701271027CE01A6
:104DA00001963C018C80FC01E80DF11D4F01C8010A
:104DB00086968614970409F4C5CE003DF2E01F07DD
:104DC00050F40E94942AF30184830F5F1F4FFFEF7A
:104DD0006F1A7F0AECCFF3011482F7CF0A811B818F
:104DE000102701271027CE0101963C018C80800EF0
:104DF000912E911CC80186968016910609F4A2CEC8
:104E0000003DE2E01E0720F4F30164810E94A82A1D
:104E1000FFEF6F1A7F0A0F5F1F4FECCF09BD19BD5F
:104E200009B400FEFDCF8091D8008F7D8093D8001B
:104E30008091E00082608093E0008091E00081FD3D
:104E4000FCCF0E945513C8CD60E085E290E00E943F
:104E5000A82A0E94E50C0E943B0D61E282E290E0EC
:104E60000E94A82A63E083E290E00E94A82A60E101
:104E700084E290E00E94A82A4CCB85E290E00E9458
:104E8000942A1B821C821D828E835CCE2D3231407F
:104E900008F0DCCC12CD2D32314008F08BCCC1CCE7
:104EA000CF92DF92EF92FF926B017C010E9436114C
:104EB00081110EC00E94F005C61AD70AE80AF90A45
:104EC000C0928502D0928602E0928702F092880218
:104ED000FF90EF90DF90CF90089578941F921FB6C7
:104EE0001F9211248F939F93AF93BF938091810260
:104EF00090918202A0918302B09184020196A11D3B
:104F0000B11D8093810290938202A0938302B0939B
:104F10008402BF91AF919F918F911F901FBE1F90F0
:104F200018951F921FB61F9211248F939F93AF93D2
:104F3000BF938091A802811113C08091810290914A
:104F40008202A0918302B09184024196A11DB11DFD
:104F50008093810290938202A0938302B093840293
:104F6000BF91AF919F918F911F901FBE1F90189579
:104F70001F93CF93DF93EC01162F8F8180FF0BC01F
:104F8000888180FF23C09091DD0291609093DD02C3
:104F900086950E94B7188F8181FF06C0212F4B8113
:104FA0006A8189810E942C128F8182FF05C08E81C7
:104FB000882379F00E949C188F8183FF03C081E0D1
:104FC0008093B102DF91CF911F9108950E941F112C
:104FD000E2CF0E946207F0CF25E0EDEDF2E0DC01C8
:104FE00001900D922A95E1F72091B4023091B5021B
:104FF0004091B602FC0125833683478308951092C1
:10500000B60208958091B602089562E070E089E1E9
:1050100091E00C94E52862E070E089E191E00C9465
:10502000EE280E940228882361F082E493E00E9427
:10503000EC2781E090E00E94C729892B11F40C94A1
:10504000FF27089580914103883039F460E082E4BD
:1050500093E00E94B827109241030895CF93DF9305
:10506000D62FC72F0E94112890E080E00E94C72908
:10507000009709F5ED2FFC2FDC01AA0FBB1FAB5CDD
:10508000BC4F2D913C91219331930196863091052F
:1050900099F70E9478186E5F7F4F8F4F9F4F6093F4
:1050A000310370933203809333039093340381E090
:1050B000DF91CF91089580E0FBCFCF93DF93D62F80
:1050C000C72F0E9422286091310370913203809192
:1050D0003303909134030E945027ED2FFC2F90E072
:1050E00080E021913191DC01AA0FBB1FAB5CBC4F6A
:1050F00011963C932E9301968630910591F7DF919E
:10510000CF9108958EE14A9B02C08150E1F74A9BFE
:10511000FECF08955A9880E28A95F1F75A9A089539
:10512000FC013BE03A95F1F720E090E080E031E0CF
:1051300040E14A95F1F7880F4A9B02C0816023271E
:1051400042E04A95F1F7000040E14A95F1F79F5F90
:105150006913EECF90E19A95F1F799B132E03A9563
:10516000F1F7000040E14A95F1F792FB992790F999
:1051700092272081920F90830895EF92FF920F93D0
:105180001F93CF93DF930F92CDB7DEB719828C01B7
:105190007C01E60EF11C0E151F0561F481E099817A
:1051A000911180E00F90DF91CF911F910F91FF90AF
:1051B000EF9008950E94822868E0CE0101960E9437
:1051C0009028F80181938F01E6CF90934C03809350
:1051D0004B0360934A03529A5A9A089590934C0352
:1051E00080934B0360934A0352985A9AEA9AE9E6ED
:1051F000F0E080818F7C808308956150770B91E08F
:1052000001C0990F6A95EAF720E031E0911108C0DA
:10521000222391F05A9A80E28A95F1F75A980895DC
:10522000492F482339F05A9A232740E24A95F1F74B
:105230009695ECCF5A98F9CF5A98EDCFFF920F93ED
:105240001F93CF93DF93EC018C01060F111DC01744
:10525000D10731F4DF91CF911F910F91FF90089505
:10526000F9900E948A2868E08F2D0E94FD28EFCFD8
:105270001F920F920FB60F9211240F931F932F932B
:105280003F934F935F936F937F938F939F93AF93CE
:10529000BF93EF93FF93CF93DF930F92CDB7DEB71A
:1052A00019820E94822867E0CE0101960E94902810
:1052B000082F069506950695982F92959570202FA4
:1052C0002570920F292F2370969596958770920FCF
:1052D000891344C08981811141C080914A0380179C
:1052E000E8F120E12A95F1F75A9A529A82E08A95DC
:1052F000F1F700C0A8E00A9FC001112400914B0300
:1053000010914C03080F191F5A98F8016581662304
:1053100021F0868197810E941E290E948A28F0E14F
:10532000FA95F1F75A9852985A9A20E12A95F1F78E
:10533000D80112966C911297662331F113968D91D4
:105340009C910E94BD28D801ED91FC91882311F019
:1053500088E001C082E080830E9482280F90DF9164
:10536000CF91FF91EF91BF91AF919F918F917F91DD
:105370006F915F914F913F912F911F910F910F90DE
:105380000FBE0F901F901895ED91FC91E1CF0F93F8
:105390001F93CF93DF9320914A03281719060CF42B
:1053A00071C08C0193E0000F111F9A95E1F7C09135
:1053B0004B03D0914C03C00FD11FF894529A5A98C6
:1053C00025E02A95F1F70000982F96959570857045
:1053D000980F892F837096959695980F092B0E94A8
:1053E0008A2800C067E0802F0E94FD2880E18A950E
:1053F000F1F752985A9A4A9B17C087E090E04A9971
:1054000015C06D81662321F18E819F810E94BD2888
:1054100081111EC0529A5A9AE881F98182E08083F4
:10542000789482E090E00DC000C0E5CF019771F460
:10543000529A5A9AE881F98181E08083789481E0D8
:1054400090E0DF91CF911F910F91089500C0D7CFC9
:105450000E94822820E22A95F1F75A98529A80E118
:105460008A95F1F76A81662321F08B819C810E94E5
:105470001E290E948A28E881F9811082789490E0A0
:1054800080E0DFCF84E090E0DCCF87FB082E0626AB
:1054900087FD819567FD61950E94882A0EF491959C
:1054A00007FC81950895AA1BBB1B51E107C0AA1FE9
:1054B000BB1FA617B70710F0A61BB70B881F991FB5
:1054C0005A95A9F780959095BC01CD01089597FB59
:1054D000072E16F4009407D077FD09D00E94532AB6
:1054E00007FC05D03EF4909581959F4F08957095E7
:1054F00061957F4F0895EE0FFF1F0590F491E02D09
:105500000994692796276927782787277827089598
:10551000991B79E004C0991F961708F0961B881F05
:105520007A95C9F780950895F999FECF92BD81BD0E
:10553000F89A992780B50895A6E1B0E044E050E0DC
:105540000C94CE2AA8E1B0E042E050E00C94CE2AC0
:10555000262FF999FECF92BD81BDF89A019700B42C
:10556000021639F01FBA20BD0FB6F894FA9AF99ACC
:105570000FBE08950396272F0E94A92A0E94A82AE9
:10558000252F0E94A92A242F0C94A92A0196272F9F
:105590000E94A92A0C94A82ADC01CB01FC01F999EC
:1055A000FECF06C0F2BDE1BDF89A319600B40D926F
:1055B00041505040B8F70895FC014150504030F040
:1055C00001900616D1F73197CF01089588279927C2
:1055D0000895F894FFCFD00CD00CD90CD90CDB0C6B
:1055E000D90CD90CD90CD00CD00CE00CD90CD90C9E
:1055F000E00C4F147714CA147714CA14AA14E214D6
:10560000CA14DF15EC159F1BCB1BD21BD71BDC1B51
:10561000E11BE61BEB1BF01BF51BFA1BFF1B021C1F
:10562000071C0A1C0D1C101C7619131C76192B1C48
:105630002B1C9C1C9C1CF31C0F1D611C611C1A1D47
:10564000FC1D0B1E0B1E8D259125DB25EC25F7255A
:10565000162619264C266D26E925E92578267B266F
:0C5660007F26A426C526C826CA26EE26F2
:10566C000118191A1B1C1D1E1F2021010201CD053A
:10567C00A60D850D810D7D0D0130030431030C3514
:10568C00034103084203000000000102020202066B
:10569C0006060909090909090F0F0F0F0F0F151538
:1056AC001518181818181818181818818283E20081
:1056BC00E900EA00B500B600B700CD008301CC00CC
:1056CC008A0192019401210223022402250226025E
:1056DC0027022A02B300B4006F007000F6F73133D2
:1056EC0032360000000000009190946697C6343565
:1056FC00F4F54022B684016201AC0072078B07AB53
:02570C00070094
:00000001FF
