:100000000C9431080C9478080C9478080C943631D0
:100010000C9478080C9478080C9478080C94780860
:100020000C9478080C9478080C946B1D0C94271D84
:100030000C94342F0C9478080C9478080C9478085D
:100040000C9478080C9478080C9478080C94780830
:100050000C9478080C94102F0C9478080C94780861
:100060000C9478080C9478080C9478080C94780810
:100070000C9478080C9478080C9478080C94780800
:100080000C9478080C9478080C9478080C947808F0
:100090000C9478080C9478080C9478080C947808E0
:1000A0000C9478080C9478080C9478080631FF09B1
:1000B00074A1010975150026FF00952075088102BD
:1000C0000976150026FF00952075089102C00501EC
:1000D0000980A101850319012AB700150126B7007F
:1000E000950175108100C0050C0901A10185041955
:1000F000012AA002150126A002950175108100C0F9
:100100000660FF0961A1010962150026FF00952024
:10011000750881020963150026FF00952075089176
:1001200002C005010906A101050719E029E715002C
:100130002501950875018102950175088101050762
:10014000190029FF150026FF009506750881000596
:10015000081901290595057501910295017503910D
:1001600001C00000000000000000000000000000CE
:10017000000000000000000000000000000000007F
:100180000000000000007E0F00D4FFFFFFC700004A
:10019000007800000000000000002A2B280000006A
:1001A0000000000000000000000000000029000026
:1001B00000002C1E3420212224342627252E362D03
:1001C0003738271E1F202122232425263333362E9D
:1001D00037381F0405060708090A0B0C0D0E0F100F
:1001E0001112131415161718191A1B1C1D2F313054
:1001F000232D350405060708090A0B0C0D0E0F10F8
:100200001112131415161718191A1B1C1D2F313033
:10021000354C0A002575002E6E6B726F3A20000A6D
:10022000002575002E737761705F6261636B736C7C
:100230006173685F6261636B73706163653A20002C
:100240000A002575002E737761705F6772617665AD
:100250005F6573633A20000A002575002E6E6F5F9C
:100260006775693A20000A002575002E7377617062
:100270005F72616C745F726775693A20000A0025CD
:1002800075002E737761705F6C616C745F6C67755D
:10029000693A20000A002575002E737761705F723D
:1002A00063746C5F726775693A20000A00257500F7
:1002B0002E737761705F6C63746C5F6C6775693AFD
:1002C00020000A002575002E636170736C6F636BEC
:1002D0005F746F5F636F6E74726F6C3A20000A0018
:1002E0002575002E737761705F636F6E74726F6C2B
:1002F0005F636170736C6F636B3A20000A00253096
:100300003258006B65796D61705F636F6E66696707
:100310002E7261773A20000A002575002E6D6F75E8
:1003200073653A20000A002575002E6B6579626FAF
:100330006172643A20000A002575002E6D617472A6
:1003400069783A20000A002575002E656E61626C9E
:10035000653A20000A0025303258006465627567EE
:100360005F636F6E6669672E7261773A20000A00DC
:1003700025750064656661756C745F6C6179657282
:100380003A20000A092D204D61676963202D0A4437
:100390003A094465627567204D657373616765202E
:1003A000546F67676C650A583A094D6174726978D1
:1003B000204465627567204D6F646520546F6767E0
:1003C0006C65202D2053686F77206B65797072659E
:1003D0007373657320696E206D617472697820672C
:1003E0007269640A4B3A094B6579626F61726420E5
:1003F000446562756720546F67676C65202D2053D4
:10040000686F77206B6579707265737320726570A1
:100410006F72740A4D3A094465627567204D6F75B5
:10042000736520546F67676C650A563A09566572A2
:1004300073696F6E0A533A095374617475730A4392
:100440003A09416374697661746520436F6E736F16
:100450006C65204D6F64650A46312D4631303A098E
:1004600053776974636820746F204C6179657220DA
:10047000302D392028463130203D204C30290A309B
:100480002D393A0953776974636820746F204C6181
:1004900079657220302D390A47524156453A095341
:1004A000776974636820746F204C617965722030BD
:1004B0002028616C7465726E617465290A423A097C
:1004C0004A756D7020746F20426F6F746C6F616439
:1004D00065720A4553433A094A756D7020746F205E
:1004E000426F6F746C6F616465722028616C746513
:1004F000726E617465290A453A095072696E7420FA
:10050000454550524F4D2053657474696E67730AA8
:100510004253504143453A09436C65617220454559
:1005200050524F4D0A004743433A20382E342E3064
:10053000204156522D4C4942433A20322E302E3023
:10054000204156525F415243483A20617672350A43
:10055000004F5054494F4E533A204C554641204588
:10056000585452414B455920434F4E534F4C452010
:10057000434F4D4D414E44204C544F20343039367A
:100580000A004255494C443A2020284D61722031DE
:10059000312032303231290A005649443A2030782D
:1005A0003132303928653377327129205049443A45
:1005B00020307834363439285355313230202834BD
:1005C00020526F7461727920456E636F6465727337
:1005D0002929205645523A203078303030310A00EF
:1005E0000A092D2056657273696F6E202D0A0074FA
:1005F000696D65725F72656164333228293A20251E
:1006000030346C580A006B6579626F6172645F699F
:10061000646C653A2025580A006B6579626F6172D7
:10062000645F70726F746F636F6C3A2025580A00B4
:10063000686F73745F6B6579626F6172645F6C651C
:10064000647328293A2025580A000A092D2053747A
:1006500061747573202D0A003F000A6D6F75736514
:100660003A206F66660A000A6D6F7573653A206FEF
:100670006E0A000A6B6579626F6172643A206F6678
:10068000660A000A6B6579626F6172643A206F6E68
:100690000A000A6D61747269783A206F66660A0012
:1006A0000A6D61747269783A206F6E0A000A646597
:1006B0006275673A206F66660A000A64656275674C
:1006C0003A206F6E0A000A0A4A756D70696E6720DB
:1006D000746F20626F6F746C6F616465722E2E2E62
:1006E0002000433E2000436C656172696E672045BF
:1006F0004550524F4D0A006565636F6E6669673AF3
:100700000A004C25640A00000101010101010101F8
:1007100001020202020202020202030303030303B4
:100720000303040404040404040505050505060682
:100730000606060707070707080808080909090940
:100740000A0A0A0B0B0B0C0C0C0D0D0D0E0E0E0FE6
:100750000F0F101011111112121313141415151676
:10076000161717181819191A1A1B1B1C1D1D1E1EE7
:100770001F20202122222324242526262728292938
:100780002A2B2C2D2D2E2F30313232333435363763
:1007900038393A3B3C3D3E3F404142434445464761
:1007A00048494A4C4D4E4F50515354555658595A3A
:1007B0005B5D5E5F616264656668696B6C6D6F70DE
:1007C00072737577787A7B7D7E8082838587888A4D
:1007D0008C8E8F91939596989A9C9EA0A2A3A5A784
:1007E000A9ABADAFB1B3B5B7BABCBEC0C2C4C6C980
:1007F000CBCDCFD1D4D6D8DBDDDFE2E4E7E9EBEE39
:10080000F0F3F5F8FAFDFF7267626C6967687420AF
:100810006D6F6465205B4E4F454550524F4D5D3ABC
:100820002025750A007267626C69676874206D6FB5
:100830006465205B454550524F4D5D3A2025750A51
:10084000007267626C696768742064697361626CC6
:1008500065205B4E4F454550524F4D5D3A207267C3
:10086000626C696768745F636F6E6669672E656E38
:1008700061626C65203D2025750A007267626C69B3
:100880006768742073657420687376205B4E4F45EB
:100890004550524F4D5D3A2025752C25752C2575F8
:1008A0000A007267626C69676874207365742068F7
:1008B0007376205B454550524F4D5D3A2025752C8F
:1008C00025752C25750A007267626C69676874204B
:1008D00074696D657220656E61626C65642E0A00D4
:1008E0007267626C696768742074696D65722064F0
:1008F000697361626C652E0A002223252628292A45
:100900002C2D2F3032333536383A3B3D3E40424372
:100910004547494A4C4E5051535557595A5C5E60B1
:1009200062646668696B6D6F71737577797B7D7FC3
:1009300081838587898A8C8E90929496989A9C9EC2
:100940009FA1A3A5A7A8AAACAEAFB1B3B4B6B8B9DE
:10095000BBBCBEBFC1C2C3C5C6C7C9CACBCCCDCE46
:10096000D0D1D2D2D3D4D5D6D7D7D8D9D9DADADB29
:10097000DBDBDCDCDCDCDCDDDDDDDDDCDCDCDCDCB5
:10098000DBDBDBDADAD9D9D8D7D7D6D5D4D3D2D2F4
:10099000D1D0CECDCCCBCAC9C7C6C5C3C2C1BFBEDC
:1009A000BCBBB9B8B6B4B3B1AFAEACAAA8A7A5A347
:1009B000A19F9E9C9A98969492908E8C8A89878506
:1009C00083817F7D7B79777573716F6D6B696866E5
:1009D0006462605E5C5A5957555351504E4C4A49B7
:1009E00047454342403E3D3B3A3836353332302F5F
:1009F0002D2C2A29282625232229003A003B003CB9
:100A0000003D003E0035001E001F00200021002296
:100A1000002B0014001A000800150017003900040C
:100A2000001600070009000A00E1001D001B000677
:100A30000019000500E000E300E2008B002C002C10
:100A4000003F0040004100420043004C00230024CE
:100A5000002500260027002A001C0018000C0012A8
:100A600000130031000B000D000E000F00330028B2
:100A700000110010003600E500520001512C008AE0
:100A800000E600500051004F00C35CC45C00000051
:100A90000000000000C65CC85CCA5CDF5C000000AF
:100AA00000C75CC95CCB5C005C000000000000007B
:100AB0000000000000000000000000000000000036
:100AC0000000000000000000000000000000000026
:100AD0000000000000000000000000000000000016
:100AE0000000000000000000000000000000000006
:100AF00000000000000000000000000000000000F6
:100B000000000000000000000000000100000000E4
:100B100000000000000000000000000000000000D5
:100B200000000000000000000000000000000000C5
:100B300000000000000000000000000000000000B5
:100B400000000000000000000000000000000000A5
:100B50000000000000000000000000000000000095
:100B60000000000000000000000000000000000085
:100B70000000000000000000000000000000000075
:100B80000000000000000000000000000000000065
:100B90000000000000000000000000000000000055
:100BA0000000000000000000000000000000000045
:100BB0000000000000000000000000000000000035
:100BC0000000000000000000000000000000000025
:100BD0000000000000000000000000000000000015
:100BE0000000000000000000000000000000000005
:100BF00000000000000000000000000000000000F5
:100C000000000000000000000000000000000000E4
:100C100000000000000000000000000000000000D4
:100C200000000000000000000000000000000000C4
:100C300000000000000000000030303000303000C4
:100C40007267626C696768742064697361626C655D
:100C5000205B454550524F4D5D3A207267626C698A
:100C60006768745F636F6E6669672E656E61626C3C
:100C700065203D2025750A007267626C696768749B
:100C800020656E61626C65205B454550524F4D5D3D
:100C90003A207267626C696768745F636F6E666939
:100CA000672E656E61626C65203D2025750A0072B5
:100CB00067626C6967687420746F67676C65205B36
:100CC000454550524F4D5D3A207267626C696768C6
:100CD000745F636F6E6669672E656E61626C652016
:100CE0003D2025750A0044454255473A2064697302
:100CF00061626C65642E0A0044454255473A20659E
:100D00006E61626C65642E0A000A092D20436F6EC5
:100D1000736F6C65202D0A4553432F713A09717525
:100D200069740A003F00433E20000A002530325813
:100D300020006B6579626F6172645F7265706F72BB
:100D4000743A20007267626C696768745F636F6EE3
:100D50006669672E7370656564203D2025640A000E
:100D60007267626C696768745F636F6E6669672E2D
:100D700076616C203D2025640A007267626C6967A9
:100D800068745F636F6E6669672E736174203D20BF
:100D900025640A007267626C696768745F636F6ECE
:100DA0006669672E687565203D2025640A007267B4
:100DB000686C696768745F636F6E6669672E6D6FD4
:100DC0006465203D2025640A007267626C6967686B
:100DD000745F636F6E6669672E656E61626C652015
:100DE0003D2025640A007267626C696768745F63FE
:100DF0006F6E66696720454550524F4D3A0A007242
:100E000067626C696768745F696E69742072676293
:100E10006C696768745F636F6E6669672E6D6F6477
:100E200065203D20302E2057726974652064656608
:100E300061756C742076616C75657320746F2045E4
:100E40004550524F4D2E0A007267626C6967687494
:100E50005F696E6974206565636F6E666967206996
:100E600073206E6F7420656E61626C65642E0A007B
:100E70007267626C696768745F696E697420737405
:100E8000617274210A007267626C696768745F69D5
:100E90006E69742063616C6C65642E0A000A00251B
:100EA000303862003A200025303258000A722F6331
:100EB0002030313233343536370A007267626C695C
:100EC00067687420616E696D6174696F6E20746902
:100ED000636B207265706F727420746F20736C6125
:100EE00076650A00643214783C1E1E140A050A0056
:100EF00025303258006B6579626F6172645F73658B
:100F0000745F6C65643A20007267626C696768742C
:100F100020656E61626C65205B4E4F454550524FB7
:100F20004D5D3A207267626C696768745F636F6ECB
:100F30006669672E656E61626C65203D2025750AC5
:100F4000007267626C6967687420736574207370DF
:100F5000656564205B4E4F454550524F4D5D3A20CC
:100F600025750A005B735D004B6579626F61726481
:100F70002073746172742E0A005B435D005B445DF4
:100F8000005B535D005B575D005B525D0009027BB7
:100F900000040100A0FA0904000001030101000996
:100FA00021110100012240000705810308000A0900
:100FB00004010002030000000921110100012222A6
:100FC0000007058203200001070503032000010933
:100FD0000402000103000000092111010001223276
:100FE000000705840320000A09040300020300002F
:100FF00000092111010001222200070585032000BC
:10100000010705050320000112011001000000087E
:101010000912494601000102000134035300550042
:10102000310032003000200028003400200052003F
:101030006F007400610072007900200045006E00AE
:1010400063006F00640065007200730029000000F7
:101050000C036500330077003200710000000403C8
:10106000090411241FBECFEFDAE0DEBFCDBF04B606
:1010700003FE27C08091CE029091CF02A091D002B2
:10108000B091D1028730904BA740B04BD1F4109271
:10109000CE021092CF021092D0021092D10214BE52
:1010A00084B7877F84BF0FB6F894A89580916000BD
:1010B000886180936000109260000FBEE0E0F8E36A
:1010C000099511E0A0E0B1E0ECE4F6E602C005907D
:1010D0000D92AC39B107D9F722E0ACE9B1E001C01B
:1010E0001D92AE3CB207E1F70E9418280C94D93249
:1010F0000C940000FF93EF93E0919C01F0919D010F
:10110000309709F00995EF91FF910895FC018591C1
:10111000803011F0EFDFFBCF0895FF27E0E230E2EF
:1011200047FF0CC0419597FF09C0EDE260957095AF
:1011300080959095611D711D811D911D27FF02C035
:10114000219530E350E2AA27660F771F881F991F69
:10115000AA1FA41710F0A41B63955A95A9F7AA30EB
:1011600008F0A95FA05DAF93F39561157105810546
:10117000910541F7ED3211F4EF93F395F21718F45E
:101180003F93F395FBCF8F91B5DFFA95E1F7089583
:10119000E991F9918591803021F0853219F0AADF2B
:1011A000F9CF089520E0E89455915532C1F35033BA
:1011B00011F4689455915A3348F4505390F3220F28
:1011C000022E220F220F200D250FF4CF0EF42195B1
:1011D00089919991533619F3533729F1533559F1C0
:1011E000BC0188279927E8945C3621F4899199916C
:1011F00068945591543639F446EF7EF077FF0DC070
:101200008FEF9FEF0AC055374AE039F0583540E17B
:1012100021F0523642E009F00895FF93EF937DDF0D
:10122000EF91FF91B7CFFF93EF93FC018191803055
:10123000B9F360DFFBCFFF93EF9368DFF1CFDF936C
:10124000CF93CDB7DEB72596A3DFCF91DF91089579
:10125000E8EDF0E080818E7F80831092E2001092B2
:10126000DA001092E100A0EEB0E08C9181608C93E6
:1012700080818F77808319BCA7EDB0E08C918E7F41
:101280008C9380818F7E80831092930208952091A9
:10129000E4003091E50095E6A9012091EC00822F51
:1012A000817020FF06C08091E80080FF06C080E0CA
:1012B00008952091E80022FD1AC08091A0028823A1
:1012C00089F0853089F08091EB0085FD0FC0209179
:1012D000E4003091E50042175307F9F29150E1F62E
:1012E00084E0089582E0089583E0089581E0089500
:1012F000EF92FF920F931F93CF937C018B010E947B
:101300004709C82F811117C08091E80085FD0BC0E7
:101310008091E8008E778093E8000E944709882337
:1013200099F3C82F08C0F70181917F018093F100E4
:101330000150110949F78C2FCF911F910F91FF9008
:10134000EF9008958091A20287FF13C08091E8007A
:1013500082FF06C08091E8008B778093E80004C08C
:101360008091A0028111F2CF08958091A00288237C
:10137000D9F38091E80080FFF8CF8091E8008E7764
:10138000ECCF982F9093E900242F762F50E0891707
:1013900031F07091EC002091ED005091F00021FDB2
:1013A00007C09F5F973071F78093E90081E008954F
:1013B0003091EB003E7F3093EB003091ED003D7FAC
:1013C0003093ED003091EB0031603093EB0070937F
:1013D000EC002093ED005093F0002091EE0027FDEB
:1013E000E0CF80E00895CF92DF92EF92FF920F93CB
:1013F0001F93CF93DF93C8EDD0E088818F7E8883E1
:10140000E7EDF0E080818160808384E082BF81E04D
:101410008093930288818E7F888302EE10E0F8012A
:1014200010821092DA0081EEC82ED12CF6011082C3
:1014300088818F77888388818068888388818F7D81
:10144000888319BC1092A0021092A10210929F02F0
:1014500010929E0290EEE92EF12CF70180818B7F95
:10146000808388818160888342E060E080E00E9420
:10147000C109F60180818E7F8083F80180818160BF
:101480008083808188608083F70180818E7F808364
:10149000888180618883DF91CF911F910F91FF90A8
:1014A000EF90DF90CF900895FC018091A802909179
:1014B000A90286179707A0F06115710529F490918C
:1014C000E8009E779093E80090E06115710551F473
:1014D000911108C08091E80082FF34C080E0089537
:1014E000BC01F2CF8091A0028823C1F18530C1F107
:1014F0008091E80083FD30C08091E80082FDEACF52
:101500008091E80080FFE1CF8091F3002091F2000C
:10151000382F6115710519F02830310558F091E028
:101520002830310509F090E02091E8002E772093D3
:10153000E800CBCF81918093F100615071092F5F5A
:101540003F4FE7CF8091A002882341F0853041F0E2
:101550008091E80083FFBECF81E0089582E0089586
:1015600083E008950895089580919502089587E78E
:1015700097E7909301088093000888E19AE00FB6FE
:10158000F894A895809360000FBE90936000FFCF01
:101590002FB7F8946091AA027091AB028091AC02CF
:1015A0009091AD022FBF08952FB7F8948091AA02B1
:1015B0009091AB02A091AC02B091AD022FBF089503
:1015C00080913E02811110923E020895E0EAF1E01E
:1015D0009191891303C0DF0111971C9291E0E63AC3
:1015E000F907B1F70895A0EAB1E0EFEF90E02D918F
:1015F000821751F0EF3F19F4211101C0E92F9F5FCD
:101600009630A9F7EF3F09F408950E2E000CFF0B5A
:10161000E256FE4F82830895E92FEE0FE90FEE0F99
:101620008E0F982F977086958695869525E0829FD8
:10163000F0011124E35FFD4F50E040E080E0219194
:1016400030E0092E02C0369527950A94E2F7217002
:101650003327042E01C0220F0A94EAF7822B4F5F32
:101660005F4F4530510559F70895E92FEE0FE90F07
:10167000EE0F8E0F982F977041E001C0440F9A959E
:10168000EAF786958695869595E0899FF001112465
:10169000E35FFD4F30E020E070E05191DF011197F2
:1016A000CB01022E02C0969587950A94E2F78170CD
:1016B00081958527842385278C932F5F3F4F253085
:1016C000310559F7089580910C029091DB01981330
:1016D00001C008958F5F8770FACF0C94C80A2091DB
:1016E000D1013091D2012817390771F09093D201BE
:1016F0008093D101E0915A02F0915B02309721F082
:101700000084F185E02D099408952091CF01309156
:10171000D0012817390771F09093D0018093CF0141
:10172000E0915A02F0915B02309721F00680F78138
:10173000E02D09940895E0915A02F0915B023097F0
:1017400021F00190F081E02D099480E00895FA01E4
:10175000811101C0FB01099480918002982F9E7F26
:1017600029F4817082608093800208958E31E8F3BD
:1017700081708C61F8CFAF92BF92DF92EF92FF92AF
:101780000F931F93CF93DF93082F162FE901E42FB8
:10179000F0E0E95FF84F611110C0E4915E2F4E2F29
:1017A0004983E8835A83DF91CF911F910F91FF9076
:1017B000EF90DF90BF90AF900895E62EF12C44910A
:1017C000D42EE42FF0E026E0829FC00111242FEFF9
:1017D00030E0B9010E944F32802F90E0880F991FAE
:1017E00055E5569FD001579FB00D11248A1B9B0BC6
:1017F000982F990F890F5901AE18BF08AE9ED001DE
:10180000AF9EB00DBE9EB00D11245B2F189F8001BE
:101810001124012F11275901A01AB10AAE9E80018F
:10182000AF9E100DBE9E100D11245901A81AB108CB
:10183000AE9CC001AF9C900DBE9C900D1124892FD1
:101840009927281B390B2E9FC0012F9F900D3E9F7B
:10185000900D1124E92F62307105A1F050F461154B
:10186000710509F49DCF6130710581F0EB2F512F87
:1018700097CF6430710569F080F06630710509F426
:101880008FCFF4CFE42F4B2F592F8ACFE42F412F46
:1018900087CFEB2F542F492F83CF4B2F5D2DE12F77
:1018A0007FCFF894E82FE295EF70F0E031A1282F78
:1018B0002F7081E090E001C0880F2A95EAF7982FF9
:1018C0009095932391A392A1892B82A37894089554
:1018D0009091560292FF06C0282F28712830F9F403
:1018E000877F846093FF06C0282F28712831F1F488
:1018F000877E84612091570220FF06C0382F3871FF
:101900003830D9F4877F816021FF06C0282F2871E5
:101910002831D1F4877E816194FD877E0895282F38
:1019200024712430F9F68B7F8860DCCF282F247156
:10193000243101F78B7E8861DDCF382F3171313052
:1019400019F78E7F8860E0CF282F2171213121F790
:101950008E7E8861E1CF829590E09C01220F331F3B
:10196000220F331F2C7C95958795959587958373CA
:10197000282B30E0C901880F991F8A7A3595279561
:101980002575822B08959C01832F817031FD826023
:10199000FB010994CF9384E090E00E948432C82F29
:1019A00081E290E00E948432982F8C2FCF9108958D
:1019B0000F931F93CF93DF93C42FD0E0CC0FDD1F85
:1019C0002CE0629FC00DD11D112430E9839FC00D12
:1019D000D11D1124CE0186960E948432082F10E07A
:1019E000102F0027CE0187960E9484329801282B61
:1019F000C901DF91CF911F910F910895462F843037
:101A000038F47C3028F4663018F4672F0C94D80C26
:101A100090E080E00895CF93DF930E94FE0CEC01EC
:101A200082389105A9F1D8F58133910509F496C062
:101A300048F58932910509F48AC08A9709F495C05E
:101A4000C11522E5D20708F0B6C0C11531E5D307AC
:101A500008F026C1C83ED10508F09CC0C03ED105A3
:101A600060F5C83AD10508F087C0C53AD10508F03D
:101A7000EFC0C130D10509F12097F9F0C430D1058C
:101A8000E0F440C08533910509F45AC0C997C1F606
:101A900080915602837089F0C0EED0E00EC0833E84
:101AA000910599F170F4803E910501F1823E910516
:101AB00039F68091560282FD21C0CE01DF91CF918F
:101AC0000895863E910561F1873E910571F1843E4E
:101AD000910509F0B5CF8091570281FFEECF80913B
:101AE0005602C7EED0E084FD0DC0E7CF80915602CC
:101AF00080FD07C19091570290FFDFCFC3EED0E089
:101B000084FFDBCFD0E0C0E0D8CF8091560282FDC9
:101B1000FBC09091570290FDBFCF84FFCECFF2CF94
:101B20008091560283FDDDCFC8CF8091560283FDA0
:101B3000EEC09091570291FFF0CFC4EED0E0BDCF40
:101B40008091560285FFB9CFC9E2D0E0B6CF80912F
:101B5000560285FFB2CFC5E3D0E0AFCF80915602E9
:101B600086FFABCFCAE2D0E0A8CF8091560286FFB5
:101B7000A4CFC1E3D0E0A1CFCF3BD10518F6C85A1E
:101B8000D0E0CC0FDD1FCC5CDE4F0990D881C02D9A
:101B9000D46493CFC11540E5D40708F064C0C115E3
:101BA00080E4D80708F05CC0CE019A9581159F416A
:101BB00008F483CFA7CFC11536E5D30718F5C115B3
:101BC00045E5D40708F084C0C11584E5D80708F0BE
:101BD0007AC09C2F969596959E0123703327C11548
:101BE000D34508F462C0C1E0D0E002C0CC0FDD1FD5
:101BF0002A95E2F730E2939FC0011124C82BD92B1C
:101C0000DA685BCFC1158AE5D80778F4C11599E584
:101C1000D90708F068C0C11528E5D20708F472CFCB
:101C2000DC2FCC27C06FD06A48CFCE0190568115EB
:101C3000904208F067CF8D2F8F710E94680C90E062
:101C4000982F882788279F719C012C2BE90149C078
:101C5000C55AD0E0CF5CDE4FC881D0E0D0642DCF34
:101C6000DF70D06A2ACFCE01E4E096958795EA9599
:101C7000E1F783702C2F26952695237040E2249F50
:101C800090011124382B8C2F8370C1E0D0E002C06A
:101C9000CC0FDD1F8A95E2F7C22BD32BDC680DCF6A
:101CA000DC2FCC27C16FD06A08CFC1E0D0E002C0E2
:101CB000CC0FDD1F2A95E2F720E2929FC00111248C
:101CC000C82BD92BEBCFDC2FCC27C46FD06AF5CE35
:101CD0008C2F0E94680CC82FD0E0DC2FCC27CC279B
:101CE000DF71D062EACE8C2F8F700E94680C34E0D6
:101CF000D695C7953A95E1F7CF709C2FEC01D06946
:101D0000DCCEC9E3D0E0D9CEC2EED0E0D6CEC6EE6E
:101D1000D0E0D3CEBF92CF92DF92EF92FF920F939B
:101D20001F93CF93DF938C01C090B102D090B20289
:101D3000E090B302F090B40280913F029091400293
:101D4000A0914102B0914202C82AD92AEA2AFB2A6C
:101D5000CFE1D0E0BC2ED701C6010C2E04C0B69551
:101D6000A795979587950A94D2F780FD0EC0219785
:101D700088F7B12C8B2DDF91CF911F910F91FF90A0
:101D8000EF90DF90CF90BF900895B8018C2F0E9404
:101D90000B0D019761F3EECFCF93DF93EC010E941F
:101DA0008A0EBE01DF91CF910C940B0D0E94CC0ED8
:101DB000292F2F7092959F7092509E3078F4E92FC2
:101DC000F0E0E552FD4C0C947732803F19F020F49E
:101DD000883E20F481E00895843FE1F380E0089597
:101DE000883EC0F3813FD1F7F5CF822F8695869547
:101DF000869508956F927F928F929F92AF92BF9235
:101E0000CF92DF92EF92FF920F931F93CF93DF93C6
:101E100089EFC82E89E0D82E92ECE92EF12CE7014B
:101E2000C059D10936011BC0F50185909490692DE8
:101E3000C8010E949832682DC80101960E9498320C
:101E400082E0A80EB11C0E5F1F4FC017D10761F7CB
:101E50008CE0680E711C2C96CE15DF0529F08E01E2
:101E60000C5011095301E0CF7E0180E9E80EF11C0E
:101E700080E9C80ED11C82E0E81683E0F80679F606
:101E8000DF91CF911F910F91FF90EF90DF90CF9056
:101E9000BF90AF909F908F907F906F900895CF9359
:101EA000DF93C6E6D2E060E0CE010E949832219630
:101EB000C11584E0D807B9F7DF91CF910895EF926B
:101EC000FF920F931F93CF93DF9380913D029091E8
:101ED0003C02892B90913B02892B80939E0190912B
:101EE0003E02992391F0892B80939E0120E080EAA5
:101EF00091E0FC013191CF0131112F5FF1E0863A81
:101F00009F07B9F721110E94E00AE0915A02F0916F
:101F10005B023097C9F10280F381E02D8EE991E0F8
:101F2000099580917F0282FF2FC080FF04C082E369
:101F30009DE00E948608CEE9D1E086EAE82E81E0A5
:101F4000F82E0CE21DE080917F0280FF0BC088819B
:101F50001F928F931F930F930E941F090F900F9052
:101F60000F900F902196EC16FD0669F780917F0285
:101F700080FF0AC08AE29DE0DF91CF911F910F910F
:101F8000FF90EF900C948608DF91CF911F910F91F5
:101F9000FF90EF90089590E080E00E94850B90E024
:101FA00080E00E946F0B10923C0210923B020C9456
:101FB0005F0F6093B1027093B2028093B30290936B
:101FC000B4020C94CB0F0F931F936091B1027091E8
:101FD000B2028091B3029091B4028B019C01067011
:101FE000112722273327063011052105310529F451
:101FF00068601F910F910C94D90F677FFACF0F93F0
:102000001F9341E050E060E070E004C0440F551FB2
:10201000661F771F8A95D2F7CB01BA01609570953C
:10202000809590950091B1021091B2022091B30277
:102030003091B40260237123822393231F910F9167
:102040000C94D90F90913A028095892380933A029B
:10205000282F277071F4282F082E000C330B9217AD
:10206000130639F08595859585950E94FF0F10928E
:102070003A0208950F931F9341E050E060E070E052
:1020800004C0440F551F661F771F8A95D2F78091B1
:10209000B1029091B202A091B302B091B4028A0150
:1020A0009B01082B192B2A2B3B2BC901B8011F912F
:1020B0000F910C94D90F60933F027093400280936C
:1020C0004102909342020C94CB0F882341F08095FB
:1020D00090913C02892380933C020C945F0F0895F9
:1020E000882339F090913C02982B90933C020C94F9
:1020F0005F0F0895882341F0809590913D028923D8
:1021000080933D020C945F0F0895882339F09091DD
:102110003D02982B90933D020C945F0F0895882305
:1021200009F452C0823871F40E949B0B81FF4CC0AD
:1021300089E30E94F30A0E945F0F89E30E94E60A86
:102140000C945F0F833859F40E949B0B80FF3CC0B6
:1021500083E50E94F30A0E945F0F83E5EFCF843886
:1021600059F40E949B0B82FF2FC087E40E94F30A60
:102170000E945F0F87E4E2CF9CEF980F913AF0F254
:1021800090E2980F983088F4877021E030E0A90140
:1021900002C0440F551F8A95E2F7CA0180959091BD
:1021A0003D02892380933D02CBCF9BE5980F93306E
:1021B00020F490E080E00C94850B885A873120F45D
:1021C00090E080E00C946F0B08951092670280916C
:1021D000680284608093680280917F0280FF08C05B
:1021E00080EE98E09F938F930E941F090F900F90AD
:1021F00008959FB7F894109291029FBF9091A0020A
:10220000943009F048C02091E9002F703091EC0023
:10221000932F917030FD90E8922B25E02093E900F8
:102220002091EB0020FF34C02091EE0027FF30C04A
:1022300020914302222321F02091E80025FF28C0AD
:102240001092430226E03091E80035FF14C08093DD
:10225000F1008091E80085FD27C08091E80080FFB3
:10226000FCCF8091E8008E778093E8009F70909378
:10227000E90080E008953091A002343049F43091B3
:10228000EB0035FD05C0215041F481E0809343020D
:102290009F709093E9008FEF0895EFE9FFE0319789
:1022A000F1F700C00000CFCF8FB7F89421E0209362
:1022B00091028FBFDBCFCF93DF9300D00F92CDB7CA
:1022C000DEB79091A002943011F589837B836A83F5
:1022D0009093E9008FEF9091E800815095FD06C042
:1022E00095ED9A95F1F700008111F5CF8091E80006
:1022F00085FF0DC050E040E063E070E0CE01019644
:102300000E9478098091E8008E778093E8000F9012
:102310000F900F90DF91CF910895BC0184E00C9451
:102320005B11BC0183E00C945B11CF93DF93EC0154
:1023300081E08093E9008FEF9091E800815095FD56
:1023400006C095ED9A95F1F700008111F5CF8091C7
:10235000E80085FF14C050E040E068E070E0CE0186
:102360000E9478098091E8008E778093E80088E0E9
:10237000FE01A6E9B2E001900D928A95E1F7DF91A6
:10238000CF910895609102018091800280FF20C06A
:102390008091010143E0849FC001112485559E4F27
:1023A000539A2BB1277F3BB138605FB7F894FC019B
:1023B000649FE00DF11D1124BF0168177907D1F466
:1023C0005FBF8FE594E00197F1F700C0000008952A
:1023D000809103019091040123E0829FF001112478
:1023E000E555FE4F8917A0F61182108212828F5F89
:1023F0003396F8CFFC014191CF01E8E03BB90000F2
:1024000000C047FF2BB9440F000000C000C000C04F
:102410002BB900C0EA9591F7D0CFEF92FF921F93AE
:10242000CF93DF93EC0110E0EE24EA94F12C60915D
:102430000501161770F00E94C2119A818C8190FFDD
:1024400027C08F5F8C83DF91CF911F91FF90EF901A
:10245000089520910301422F410F5527551FCA01AE
:102460009A01220F331F280F391F25553E4F70E068
:10247000C7010E946332962F8C8140918302609144
:102480008202199F800D11240E94BB0B1F5FCFCFCA
:102490008150D8CF9091800290FF14C09091030199
:1024A0002091040133E0939FF0011124E555FE4F84
:1024B000921710F00C94C2118183608342839F5F56
:1024C0003396F6CF0895CF93DF9300D00F92CDB718
:1024D000DEB79091800290FF0AC09E012F5F3F4FB0
:1024E0000E94BB0B4B8169818A810E944A120F9026
:1024F0000F900F90DF91CF910895CF93DF93EC0170
:10250000EC81F0E0E750F74F4491E0E8F2E06281BF
:1025100081810E9463128C818F5F8C83DF91CF91C8
:102520000895CF93DF93EC01E0E8F2E0438162810C
:102530008C810E9463128C818F5F8C83DF91CF919D
:102540000895809180028E7F8093800280917F0227
:1025500080FF0CC01F921F9281E498E09F938F939D
:102560000E941F090F900F900F900F900E94E5108E
:10257000809168028160809368022FEF80E792E08B
:10258000215080409040E1F700C000000C94C2113F
:102590008091AA01811111C08091D800806180933F
:1025A000D8008AE18A95F1F700C09091D900892F6F
:1025B000817090FF82E08093AA0181E09091AA014E
:1025C000913009F080E008956BEE7EEF90E080E0BE
:1025D0000E94B63260E082E090E00E94983260E0B3
:1025E00083E090E00E94983210923F0210924002E5
:1025F000109241021092420260E084E090E00E945A
:10260000983260E081E290E00E94983260E085E0DC
:1026100090E00E94983260E086E090E00E9498325C
:102620006FEF87E090E00E94983240E050E0BA01FE
:1026300088E090E00E94AA3260E08DE090E00E9485
:10264000983240E050E0BA0188E190E00E94AA325E
:1026500060E087E190E00E94983240E050E0BA01EB
:102660008CE190E00E94AA3260E080E290E00E945B
:10267000983240E050E0BA0188E190E00E94AA322E
:1026800040E050E0BA018FE090E00E94AA3240E0C2
:1026900050E0BA0183E190E00C94AA32CF92DF922D
:1026A000EF92FF926B017C010E94AC0BB701A60177
:1026B00088E090E0FF90EF90DF90CF900C94AA32EA
:1026C000EF92FF920F931F93CF93DF9300D00F925F
:1026D000CDB7DEB7182FF62E042FE22E80918002A0
:1026E00080FF55C0E82FE695F0E0EE5DFE4F90814B
:1026F000909366028E7F823009F053C09E012F5F57
:102700003F4F812F0E94BB0B4B8169818A810E94C0
:102710004A1280918102811308C0809182028F1138
:1027200004C080918302801729F080916802826042
:102730008093680210938102F092820200938302D8
:10274000EE20E9F160918002709181028091820215
:10275000909183020E944E1380917F0280FF17C0E8
:10276000809183021F928F93809182021F928F9398
:10277000809181021F928F9382EA98E09F938F93BA
:102780000E941F090FB6F894DEBF0FBECDBF0F9099
:102790000F900F90DF91CF911F910F91FF90EF90CD
:1027A0000895923019F400918302B3CF8091810291
:1027B000963019F0993009F0ACCF182FAACF80913C
:1027C0007F0280FFE4CF1F920F931F92FF921F9210
:1027D0001F938BE798E0D2CFE0E8F2E0438128E056
:1027E000421B08F440E021E0628181810C94601377
:1027F000E0E8F2E0438128E0420F08F44FEF21E0E7
:10280000628181810C946013E0E8F2E0628128E04B
:10281000621B08F460E021E0438181810C94601325
:10282000E0E8F2E0628128E0620F08F46FEF21E057
:10283000438181810C946013E0E8F2E0818121E022
:102840004381628188500C946013E0E8F2E081815A
:1028500021E043816281885F0C946013809184023F
:10286000882319F0815080938402609180027091D6
:10287000810280918202909183020C944E13809188
:102880008402833018F48F5F809384026091800209
:102890007091810280918202909183020C944E1378
:1028A000E0E8F2E083E0808311828FEF828383830C
:1028B0001482A6E6B2E012968C911297836012966B
:1028C0008C9360817181828193810C944E1310925C
:1028D0003D02E0EAF1E086E0DF011D928A95E9F72A
:1028E0000C94CB0F1F93CF93DF93CDB7DEB7AA978E
:1028F0000FB6F894DEBF0FBECDBF82EA92E0209102
:10290000F100DC012D93CD01B2E08A3A9B07B9F7C3
:102910008091A302833009F471C0B8F4813009F4C6
:1029200048C0823009F4B2C08091E80083FF3AC108
:102930008091A2029091A3029A3008F033C1E92F4E
:10294000F0E0E751FD4C0C9477328A3009F48DC0E9
:102950008B3009F470C0893039F78091A20281323E
:1029600019F78091A6029091A702009711F00297A3
:10297000D9F68091E800877F8093E8008091E80095
:1029800082FF37C09091F3008091F200029729F402
:102990008091F1008B7F813021F48091F100809350
:1029A00095028091E8008B778093E8000E94A2094D
:1029B000BBCF8091A202813A09F0B6CF8091E800A6
:1029C000877F8093E8008091A6029091A702892BCF
:1029D00061F468E086E992E070E00E94540A809118
:1029E000E8008B778093E8009FCF60E090E080E084
:1029F000F3CF8091A0028111C1CF96CF8091A20226
:102A0000813A09F091CF8091A6029091A702892B7B
:102A100009F08ACF8091E800877F8093E800809159
:102A2000E80080FFFCCF809111018093F10080913C
:102A3000E8008E77B9CF8091A202813209F074CF7D
:102A40008091A6029091A702892B09F06DCF809109
:102A5000E800877F8093E8000E94A2098091A40289
:102A6000809311010E9467145FCF8091A20281328E
:102A700009F05ACF8091E800877F8093E8000E9498
:102A8000A2098091A502809394024ECF8091A20268
:102A9000813A09F049CF8091E800877F8093E80070
:102AA0008091E80080FFFCCF80919402BECF8038F7
:102AB00099F0823809F076C08091A6028F70873035
:102AC00008F070C08093E9008091EB0085FB8827B7
:102AD00080F91092E90006C080919E0290919F02B9
:102AE000911182609091E800977F9093E800809325
:102AF000F1001092F1008091E8008E77BAC188232E
:102B000009F4A7C1823009F04DC08091A40281115F
:102B1000ABC18091A6028F702FEF280F263008F0EE
:102B200041C08093E9002091EB0020FF9DC19330CC
:102B300031F48091EB0080628093EB0095C190911D
:102B4000EB0090619093EB0021E030E001C0220F98
:102B50008A95EAF72093EA001092EA008091EB0050
:102B60008860EACF81111EC01091A4021F77809166
:102B7000E3008078812B8093E3008091E800877FD9
:102B80008093E8000E94A2098091E80080FFFCCFBA
:102B90008091E30080688093E30082E0111183E07C
:102BA0008093A0028091E80083FF0AC08091E80032
:102BB000877F8093E8008091EB0080628093EB0038
:102BC000AA960FB6F894DEBF0FBECDBFDF91CF91AE
:102BD0001F9108958058823028F72091A4023091E7
:102BE000A5022C3DE3E03E07A1F583E08A838AE25B
:102BF00089834FB7F894DE01139620E03EE051E25E
:102C0000E32FF0E050935700E49120FF03C0E295DA
:102C1000EF703F5FEF708E2F90E0EA30C0F0C79604
:102C20008D939D932F5F243159F74FBF8091E8001A
:102C3000877F8093E8006AE270E0CE0101960E94EF
:102C4000540A8091E8008B778093E800ABCFC09660
:102C5000E7CF8091A6029091A702432F55274330DA
:102C6000510509F44AC078F54130510509F47AC09C
:102C70008BE790E0EDE8FFE04230510509F092CF9C
:102C80002091E800277F2093E8002091A80230914E
:102C9000A9028217930708F49C0140E02115310531
:102CA00009F065C0411163C08091E80082FDC9CF81
:102CB0008091A002882329F2853019F28091E800E2
:102CC00083FFF2CFBECF4132510509F43CC04232FE
:102CD000510509F067CF8430910508F063CFFC01FE
:102CE000EE0FFF1FE457FE4F0190F081E02D885753
:102CF0009E4FDC018C9190E01AC0332721303105C2
:102D0000D1F02115310561F02230310509F04ACFAB
:102D1000EAE1F0E1E4918E2F90E0EAE1F0E107C012
:102D2000EEE5F0E1E4918E2F90E0EEE5F0E1009722
:102D300009F438CFA5CFE0E5F0E1E4918E2F90E0E3
:102D4000E0E5F0E1F4CF8430910508F02BCF880F57
:102D5000991FFC01EC56FE4F0190F081E02D89E0B7
:102D600090E08ECF82E190E0E8E0F0E189CF8091C1
:102D7000A002882309F465CF853009F462CF8091E1
:102D8000E80083FD5ECF8091E80082FD8DCF8091C9
:102D9000E80080FF83CF9091F3008091F20021152D
:102DA000310519F08830910550F041E0089709F09D
:102DB00040E08091E8008E778093E8006FCF4491E7
:102DC0004093F1003196215031090196E8CF8038C7
:102DD00009F0E8CE8091E800877F8093E800809139
:102DE000A1028093F10087CE8111DCCE1091A40264
:102DF000123008F0D7CE8091E800877F8093E800FA
:102E00001093A1020E94A209112311F084E005C0D1
:102E10008091E30087FDFACF81E08093A00242E039
:102E200061EC81E00E94C10942E261EC84E00E9411
:102E3000C10942E261EC82E00E94C10942E260EC19
:102E400083E00E94C10942E261EC85E00E94C10971
:102E5000A9CE8091A402813009F0A4CE81E0933004
:102E600009F080E080939F021092E9008091E800D1
:102E7000877F8093E8000E94A20994CECF93C82F49
:102E80001F928F9382E097E09F938F930E941F0978
:102E900061E070E080E090E004C0660F771F881F5B
:102EA000991FCA95D2F70E945B100F900F900F9058
:102EB0000F90CF910C946714CF93DF938B3109F46B
:102EC00008C208F0A0C18B3009F4C6C108F06EC179
:102ED000863009F4D4C148F4853009F4A2C188E5EC
:102EE00096E00E94860880E0DAC1873009F4DAC1F2
:102EF0008830A9F787EF96E00E94860883E793E081
:102F00000E94860883E090E00E9484321F928F9393
:102F100080E793E09F938F930E941F098EE693E0D2
:102F20000E94860882E090E00E948432C82F8BE5E0
:102F300093E00E9486081F92CF9386E593E09F93CB
:102F40008F930E941F0984E593E00E9486088AE41B
:102F500093E00E9486088C2F81701F928F9387E4E4
:102F600093E09F938F930E941F0985E493E00E9452
:102F700086088BE393E00E948608C1FB882780F9CE
:102F80001F928F9388E393E09F938F930E941F0972
:102F900086E393E00E9486088AE293E00E94860816
:102FA000C2FB882780F91F928F9387E293E09F935B
:102FB0008F930E941F0985E293E00E9486088CE1AE
:102FC00093E00E948608C3FBCC27C0F91F92CF93E1
:102FD00089E193E09F938F930E941F0987E193E01B
:102FE0000E9486080E94CA0CEC0183E093E00E94D4
:102FF0008608DF93CF938EEF92E09F938F930E948A
:103000001F098CEF92E00E94860883EE92E00E94F6
:1030100086088C2F81701F928F9380EE92E09F9391
:103020008F930E941F098DB79EB780960FB6F894B4
:103030009EBF0FBE8DBF8EED92E00E94860887EC8A
:1030400092E00E948608C1FB882780F91F928F9327
:1030500084EC92E09F938F930E941F0982EC92E090
:103060000E94860880EB92E00E9486088D2F817076
:103070001F928F938DEA92E09F938F930E941F0976
:103080008BEA92E00E94860889E992E00E94860815
:10309000D695D1701F92DF9386E992E09F938F932C
:1030A0000E941F0984E992E00E94860882E892E06B
:1030B0000E948608C2FB882780F91F928F938FE7B2
:1030C00092E09F938F930E941F098DE792E00E94E8
:1030D00086088BE692E00E948608C3FB882780F969
:1030E0001F928F9388E692E09F938F930E941F090F
:1030F00086E692E00E9486088CE592E00E948608AF
:10310000C4FB882780F91F928F9389E592E09F93F3
:103110008F930E941F0987E592E00E94860885E44C
:1031200092E00E948608C5FB882780F91F928F9342
:1031300082E492E09F938F930E941F0980E492E0C3
:103140000E94860884E292E00E948608C6FB8827D7
:1031500080F91F928F9381E292E09F938F930E9458
:103160001F098DB79EB780960FB6F8949EBF0FBE0D
:103170008DBF8FE192E00E94860887E192E00E9475
:103180008608C7FBCC27C0F91F92CF9384E192E059
:103190009F938F930E941F0982E192E00E9486080C
:1031A0000F900F900F900F9081E079C0803109F45B
:1031B000A8C080F48E3009F092CE90917F02892FC2
:1031C0008B7F92FF846080937F0282FF97C083E8A9
:1031D00096E08BC0863109F4A4C0893109F07FCE16
:1031E00080EE95E00E94860889E995E00E948608B5
:1031F00082E895E00E94860881E595E00E948608B5
:1032000086E295E02BC08A3299F1E0F4873261F1D1
:1032100028F48E3108F463CE8D5127C0893209F02D
:103220005ECE86EC96E00E9486080E9467149FEFAF
:1032300024E38CE0915020408040E1F700C0000082
:103240000E94B70A833468F48A3308F0A1C085333A
:1032500059F0883309F043CE83E893E00E94860852
:10326000A3CF833409F03BCE80E00E943E179CCF71
:1032700086EE96E00E9486080E94E41295CF809127
:103280007F02807F80937F0289E09DE00E94860814
:1032900082EE96E00E94860881E08093D401DF915F
:1032A000CF91089590917F02892F8E7F90FF81604A
:1032B00080937F0280FF03C08AEB96E0CFCF8DEA38
:1032C00096E00E94860880917F02817F80937F0232
:1032D0006BCF90917F02892F8D7F91FF82608093C9
:1032E0007F0281FF08C080EA96E00E9486088091F4
:1032F0007F028160EBCF82E996E0B0CF83E796E072
:10330000ADCF90917F02892F877F93FF8860809354
:103310007F0283FF03C087E696E0E7CF8AE596E069
:103320009DCF8AE496E00E9486080E949B0B1F9224
:103330008F9380E396E09F938F930E941F09809163
:1033400011011F928F9389E196E09F938F930E94C2
:103350001F09809194021F928F9386E096E09F93BD
:103360008F930E941F090E94C80A9F938F937F9397
:103370006F938FEE95E09F938F930E941F098DB7F7
:103380009EB742960FB6F8949EBF0FBE8DBF0CCF6E
:1033900089536BCFCF93C82F882309F46BC0823831
:1033A000C1F40E949B0B81FD65C089E30E94F30A72
:1033B0000E945F0F2FEF81EE94E0215080409040FB
:1033C000E1F700C0000089E30E94E60ACF910C9467
:1033D0005F0F8338A1F40E949B0B80FD4BC083E5F7
:1033E0000E94F30A0E945F0F2FEF81EE94E02150BC
:1033F00080409040E1F700C0000083E5E5CF8438CD
:10340000A1F40E949B0B82FD35C087E40E94F30A61
:103410000E945F0F2FEF81EE94E02150804090409A
:10342000E1F700C0000087E4CFCF8CEF8C0F813A2A
:1034300008F043C08091D401882399F08130E1F0F5
:103440001092D401E0EAF1E086EA91E02191C217FE
:1034500009F45FC08E179F07C9F78C2F0E94F30AEB
:10346000B5CF80913D02823269F78C2F0E945C17A4
:10347000882341F3CF91089580913D028232A9F3D0
:10348000C431B9F038F4CB3049F084E29DE00E94B9
:10349000860811C0C93269F0C833B9F789E09DE0E8
:1034A0000E94860886E29DE00E94860881E0817085
:1034B000DFCF1092D40180E0FACF80E28C0F883009
:1034C00068F4C77021E030E001C0220FCA95EAF726
:1034D00080913D02822B80933D0278CFEBE5EC0F8B
:1034E000E33040F4F0E0EF5CFE4F808190E0CF915C
:1034F0000C94850BC85AC73108F0BCCFEC2FF0E014
:10350000EE0FFF1FEC5CFE4F80819181CF910C94F8
:103510006F0B8C2F0E94E60A0E945F0F9ECF1F93B5
:10352000CF93DF93182FD0E0C0E0893311F4C0E5CA
:10353000D0E0812F0E94CA19209731F4812FDF91AA
:10354000CF911F910C948F108FE99FE00197F1F7B5
:1035500000C000002197F0CF0F931F93CF93DF930C
:10356000C62FD42F022FFC0182818823A1F0609303
:10357000B0020E94D40A9093AF028093AE02C7704B
:1035800081E001C0880FCA95EAF7DF91CF911F91C2
:103590000F910C9485108091B002681340C0209167
:1035A000AE023091AF024FB7F8948091AA02909189
:1035B000AB02A091AC02B091AD024FBF821B930B46
:1035C000883C910560F510E21D0F6D17B9F080E29F
:1035D000860F883040F4C77081E001C0880FCA951B
:1035E000EAF70E947A10183048F481E09D2F977016
:1035F00001C0880F9A95EAF70E948510802F0E94DB
:103600008F1A183098F4D77081E001C0880FDA95CE
:10361000EAF7DF91CF911F910F910C947A10C77048
:1036200081E001C0880FCA95EAF7F3CFDF91CF910F
:103630001F910F910895DF92EF92FF920F931F93C6
:10364000CF93DF93E82FF0E0EE56FE4FD490282F73
:1036500026952695269530E0F901EE57FE4F049108
:10366000877010E0082E02C0159507950A94E2F7BE
:1036700001701127F901EE58FE4FE490F12C082E4D
:1036800002C0F594E7940A94E2F791E0E922FF245E
:10369000F901EE59FE4FC491D0E002C0D595C7950F
:1036A0008A95E2F7C170DD270115110519F081EE49
:1036B0000E94CA19E114F10419F086EE0E94CA1999
:1036C0008D2D0E948F1AEF2819F086EE0E948F1020
:1036D000012B19F081EE0E948F10CD2B51F08CE25E
:1036E000DF91CF911F910F91FF90EF90DF900C949D
:1036F0008F1ADF91CF911F910F91FF90EF90DF9084
:103700000895FF920F931F93CF93DF938C018AE06C
:10371000F82EF8018491882309F44BC0813009F018
:1037200044C0E8012196FE018491813049F421963C
:10373000FE0184910E948F1A8E010F5F1F4FE9CF07
:10374000823039F4E8012296FE0184910E94CA1960
:10375000F3CF833039F4E8012296FE0184910E9470
:103760008F10EACF843041F7E8012296FE012491C0
:1037700090E080E0FE0131962053330B2A30310572
:1037800048F00197C8F2EFE9FFE03197F1F700C088
:103790000000F7CFF89EA001F99E500D1124C90139
:1037A000840F951F2491EF01E5CF0E941B1BE801B8
:1037B000C3CFDF91CF911F910F91FF900895CF93C9
:1037C000DF93EC0160E770E10E94C30C8C2F0E9434
:1037D000CA198C2F0E948F1065E670E1CE01DF912F
:1037E000CF910C94C30C813069F0882329F082308A
:1037F00071F08330A1F008958EE4611101C08BE473
:103800000C948F1A89EA6111FBCF8AEAF9CF8BE217
:1038100091E0611102C08BE293E00C94DF1B8CE11C
:1038200091E06111FACF8DE191E0F7CF8F929F92F5
:10383000AF92BF92CF92DF92EF92FF920F931F93BE
:10384000CF93DF9300D000D000D0CDB7DEB702E633
:1038500011E088E4C82E82E0D82E4601F12CAA247B
:10386000A394B12CD8018D918D01F894E82FE295A5
:10387000EF70F0E021A18F70A50102C0440F551F29
:103880008A95E2F7CA01922F982B91A392A1809575
:10389000892382A3789400C0EEE6F1E030E020E0D6
:1038A000E12C4191A42FA295AF70B0E090968C913D
:1038B00090E04F7002C0959587954A95E2F780FD9C
:1038C00053C08A2D022E01C0880F0A94EAF7E82A15
:1038D0002F5F3F4F2630310521F7F8013197808166
:1038E0000E94510C50EA5A95F1F7D4018C91E816D8
:1038F000E9F1EC9281E0F82ABFEF8B1A9B0AE1E034
:1039000008361E0709F0AECF10915502FF2081F155
:1039100081E08093A8010E94D40A9093A70180932C
:10392000A6012091A6013091A7014FB7F89480918C
:10393000AA029091AB02A091AC02B091AD024FBF30
:10394000821B930B0697C0F0E12FF0E0EB57FD4F81
:10395000D6018D916D018193BEE4CB16B2E0DB06FA
:10396000B9F71092A80108C080E0B1CF80E0C3CFC2
:103970008091A8018111D5CF0E94C812E82E6091D4
:103980005502882309F458C08E010F5F1F4F86E04F
:10399000F80111928A95E9F7862F90E0B8018B57CC
:1039A0009D4F0E942E3081112AC08091A9018F5F06
:1039B0008093A9018630F0F1E0915402F0E0EB57DA
:1039C000FD4F90E080E01192019686309105D9F785
:1039D000F11001C0FE2C8F2D26960FB6F894DEBF95
:1039E0000FBECDBFDF91CF911F910F91FF90EF9050
:1039F000DF90CF90BF90AF909F908F9008951092DE
:103A0000A901A0915402B0E0AB57BD4F9E01295FC0
:103A10003F4FE12C4D91F80191918F01491731F001
:103A2000AD0141505109FA019083E82E201731076A
:103A300089F7CECFE12CCCCF70E06B577D4F8091D2
:103A4000540290E08B579D4F0E945D30C1CF1F9272
:103A50000F920FB60F9211242F933F934F935F93C2
:103A60006F937F938F939F93AF93BF93CF93DF9386
:103A7000EF93FF93D091E900DF708091EC00C82FA5
:103A8000C17080FDC0E81092E9008091F000877F4E
:103A90008093F00078940E9472141092E900809153
:103AA000F00088608093F000CD2BCF70C093E900C8
:103AB000FF91EF91DF91CF91BF91AF919F918F9146
:103AC0007F916F915F914F913F912F910F900FBE1A
:103AD0000F901F9018951F920F920FB60F921124FE
:103AE0002F933F934F935F936F937F938F939F9306
:103AF000AF93BF93EF93FF938091E10082FF15C0D6
:103B00008091E20082FF11C08091E1008B7F809361
:103B1000E100209192022F5F822F62E30E944332E4
:103B2000992309F4BEC0209392028091DA0080FFAD
:103B300028C08091D80080FF24C08091DA008E7F59
:103B40008093DA008091D90080FFE1C080E189BDD7
:103B500082E189BD09B400FEFDCF81E08093A0021F
:103B600089E79FE00E94860880919302811109C035
:103B70000E9428090E94F3098091E20084608093EA
:103B8000E2008091E10080FF1BC08091E20080FF95
:103B900017C08091E2008E7F8093E2008091E20066
:103BA00080618093E2008091D80080628093D80089
:103BB00019BC85E08093A00281E89FE00E948608FE
:103BC0008091E10084FF2DC08091E20084FF29C034
:103BD00080E189BD82E189BD89B5982F917080FF10
:103BE000FBCF8091D8008F7D8093D8008091E10039
:103BF0008F7E8093E1008091E2008F7E8093E200CF
:103C00008091E20081608093E2008091A10288238C
:103C100009F487C084E08093A00285E89FE00E94B9
:103C200086088091E10083FF2BC08091E20083FF32
:103C300027C08091E100877F8093E10082E080933C
:103C4000A0021092A1028091E1008E7F8093E1009A
:103C50008091E2008E7F8093E2008091E20080619B
:103C60008093E20042E060E080E00E94C109809120
:103C7000F00088608093F00089E89FE00E94860849
:103C8000FF91EF91BF91AF919F918F917F916F9134
:103C90005F914F913F912F910F900FBE0F901F900A
:103CA00018951092920280919102882309F43DCFD9
:103CB0008091A0028430C1F49091E9009F7020911E
:103CC000EC00822F817020FD80E8892B95E0909395
:103CD000E9009091EB0090FF04C09091EE0097FDF9
:103CE00008C08F708093E900109291021ECF10924D
:103CF000F1009091E80095FDFACF9091E80090FFD7
:103D0000F0CF9091E8009E779093E800EACF19BC3D
:103D10001092A0028DE79FE00E9486081092930205
:103D200030CF8091E30087FD93E09093A00275CFA0
:103D30000F931F930E94C812882321F01F910F91A7
:103D40000C94C80A0E94C80A0091440210914502CE
:103D50002091460230914702600F711F821F931F0E
:103D60001F910F9108950E94C81281110C94D40ADA
:103D70000E94981ECB01089560918002669570E0C4
:103D800041E050E080E091E00E94CC32892B19F4B0
:103D900081E0809367020E94B31E9093610280933A
:103DA00060028091680284608093680280917F0243
:103DB00080FF08C087EC98E09F938F930E941F09B3
:103DC0000F900F9008959091800290FF5AC09170CB
:103DD000811141C09260909380028091680281605D
:103DE000809368026623F1F16091800270918102F4
:103DF00080918202909183020E944E1380917F02F3
:103E000080FF0FC08091800286951F928F9385E27C
:103E100098E09F938F930E941F090F900F900F902F
:103E20000F9060918002669570E041E050E080E084
:103E300091E00E94CC32892B09F10E94E51081E0CB
:103E40008093630220E0409183026091820280911E
:103E500081020C9460138F3010F09C61BCCF880FEE
:103E6000982BB9CF80917F0280FFDBCF80918002B9
:103E700086951F928F9387E098E0CBCF0E94BC1E5F
:103E8000DECF0895809180028695815009F48EE0FE
:103E900061E00C94E31E8091800286958F5F8F30E5
:103EA00008F081E061E00C94E31E9091800290FFA5
:103EB00007C09695981720F0961710F40C944B1F96
:103EC00061E00C94E31E4F925F926F927F928F920B
:103ED0009F92AF92BF92CF92DF92EF92FF920F9399
:103EE0001F93CF93DF9300D000D00F92CDB7DEB7F2
:103EF0007C01FC0183819481892B31F08081918147
:103F000089238F3F09F0DEC50F900F900F900F901F
:103F10000F90DF91CF911F910F91FF90EF90DF9065
:103F2000CF90BF90AF909F908F907F906F905F9059
:103F30004F9008950E948A0E182F682F89819A81C8
:103F40000E94350B69817A81812F0E94FE0C8C01C1
:103F5000F7018281882309F4AAC5980122513F45BF
:103F60002031310508F075C58FEF93E00E9484324F
:103F7000025156E6C52E52E0D52E882379F1809164
:103F80003A02877009F4C0CFF7018281882309F4CF
:103F9000BBCF82E00F900F900F900F900F90DF91AA
:103FA000CF911F910F91FF90EF90DF90CF90BF9036
:103FB000AF909F908F907F906F905F904F900C94F8
:103FC0002210C114F4E0DF06D1F2C6010E9484324F
:103FD000811101C001502FEFC21AD20A0111F1CF95
:103FE0001C821B82BB24B3944AE0A42E86010F5F7F
:103FF0001F4FC6010E94843289831A82882309F4E4
:10400000BECF9FEF980F933008F58A83B98232E0D4
:10401000C30ED11CC8010E9484328B83882309F40B
:10402000AECF8E010F5F1F4FF80180818823F1F220
:10403000813009F043C091818281913049F40E5F53
:104040001F4F0E948F1A0F5F1F4FEECF6801E9CFFD
:10405000923029F40E5F1F4F0E94CA19F4CF93309B
:1040600029F40E5F1F4F0E948F10EDCF943019F08E
:104070000F5F1F4FE8CF0E5F1F4F30E020E0B80109
:104080006F5F7F4FF80141818053990B8A30910512
:1040900050F021503109B8F28FE99FE00197F1F714
:1040A00000C00000F6CFA29EF001A39EF00D1124E7
:1040B0009C012E0F3F1F842F8B01E1CF0E941B1B01
:1040C000C2CF81E00E943A100E94E30F58CF81E0F6
:1040D0000E94FF0FF9CF82E0F5CF882321F08DE316
:1040E0009CE00E94811BF7019281992309F4FBC493
:1040F0001092B0020230FCE51F0708F447C10631F8
:104100002CE5120738F098012B5F3C45293031052A
:1041100008F03CC10E94CA0C90935702809356024B
:1041200000313CE5130709F400C108F08EC00830E7
:104130009CE5190709F4EFC008F05DC00430FCE508
:104140001F0709F4E0C008F043C002303CE5130744
:1041500009F4CFC003301C4509F4D1C06091560268
:104160001091570284E090E00E949832612F81E222
:1041700090E00E9498320E94671401CF882309F4CE
:10418000B2CF89E39CE0ADCF063FFCE51F07C9F045
:10419000A0F027E245EE66EE073F3CE5130709F085
:1041A000A2CFC7010E94AC1AEACE27E245EE65EE27
:1041B000F8CF26E241EE60EEF4CF27E245EE64EE62
:1041C000F0CF26E241EE62EEECCF28E241E0EFCF05
:1041D00080915602806106309CE5190709F48CC075
:1041E00080915602886007301C4508F485C0809194
:1041F0005602806281C0809156028D7F0C30FCE5B2
:104200001F0709F479C070F4809156028C600A305F
:104210003CE5130709F470C008F481C08091560290
:104220008E7F6AC080915602877F0E309CE5190709
:1042300009F462C0809156028B7F0F301C4508F450
:104240005BC0809156028F7E57C00C3FFCE51F0774
:1042500009F45DC030F503313CE5130709F46DC086
:1042600078F401319CE5190709F463C002311C455B
:1042700009F074CF0E946714809156028F773CC07A
:104280000531FCE51F0709F460C008F474C0809193
:10429000570281600B3F1C4509F060CF80935702A5
:1042A0005DCF01158DE5180709F44BC088F48091A6
:1042B00057028D7F0E3FECE51E0781F38091570278
:1042C0008E7F0F3F1C4550F3809157028360E6CFED
:1042D00002302DE5120709F457C008F442C060E02F
:1042E00003301D4509F03ACF8EE090E00E949832ED
:1042F00035CF809156028160809356022FCF8091F6
:1043000056028260F9CF809156028460F5CF809189
:1043100057028260C3CF809156028064EDCF0E9425
:104320006714809156028068E7CF809156028F7D96
:10433000E3CF809156028F7BDFCF80915602837F3F
:10434000DBCF809157028C7FA9CF8091560282FBF0
:10435000992790F921E0922790FB82F990FB83F94D
:10436000CBCF80915702982F909591708E7F892B9B
:1043700090FB81F993CF0E94671490915602892F88
:1043800097FB87F98058B8CF61E0AECF0631ECE5F6
:104390001E0709F0B4C380913D028A7A91E009F4C6
:1043A00090E09093D301811106C089E20E94F30A44
:1043B0000E945F0FE4CD85E3F9CF85E39DC3809133
:1043C0007F0280FF10C080918002809581701F92D3
:1043D0008F938FEA9CE09F938F930E941F090F9009
:1043E0000F900F900F908091800280FF33C08E7FDE
:1043F000809380026091800270918102809182029C
:10440000909183020E944E1380917F0280FF0FC023
:104410008091800281701F928F9380E49CE09F9333
:104420008F930E941F090F900F900F900F900E9482
:10443000E51080916802816080936802FFEF20E7B9
:1044400032E0F15020403040E1F700C000000E940F
:10445000C21195CD81608093800280917F0280FFA0
:104460000DC01F9281E08F9388E79CE09F938F930C
:104470000E941F090F900F900F900F908091800263
:1044800061E086950E94E31E7ACD42E45FE16BE431
:104490007FE10E94A70B73CD4BE45FE162E47FE113
:1044A000F8CF4CE154E165E274E1F3CF45E254E129
:1044B0006CE174E1EECF44E054E160E174E1E9CFF6
:1044C00040E154E164E074E1E4CF4CEE53E168EF85
:1044D00073E1DFCF48EF53E16CEE73E1DACF4EE2E8
:1044E00054E16FE374E1D5CF4FE354E16EE274E140
:1044F000D0CF61E081E0C6CF65E082E00E94551F29
:104500003ECD68E086E0FACF6EE089E0F7CF90918B
:104510007F02892F8E7F90FF816080937F0280FFD2
:1045200005C088EF9CE00E94860829CD86EE9CE0BD
:10453000FACF0E94E41223CDF70100811181992363
:10454000D9F1C8010E948A0ED82E682FC8010E9496
:10455000350BB8018D2D0E940B0D8C01882EF701B3
:10456000D280A580A2943FE0A32280913A02877076
:10457000A1F0CD2CDD2091F0812F807F803421F0BF
:1045800080E2800F883048F082E00E942210809103
:104590003A028770CC24C3948111C12CB12EB294FD
:1045A0002FE0B222FBE0FB1508F440C0EB2DF0E059
:1045B000ED50FD4C0C947732C8010E940C0BD82EA4
:1045C000C8CF212F2F70A22E107F19F0A29490EF48
:1045D000A922DD20C9F0AA2069F080E2800F88308E
:1045E00010F081100BC080913D02A82AA0923D02DC
:1045F0000E945F0F802F0E94CA1918C080913C0250
:10460000A82AA0923C02F4CF802F0E948F10AA20EB
:1046100069F0A094005E083010F081103BC08091DA
:104620003D02A822A0923D020E945F0FEB2DE850B0
:10463000FF0B349710F40E949B0BCC2009F464CC40
:1046400080913A0280FD60CCF701128285958595B4
:1046500085950E943A10C7010E94631F80913A021B
:104660008595859585950F900F900F900F900F90E1
:10467000DF91CF911F910F91FF90EF90DF90CF903E
:10468000BF90AF909F908F907F906F905F904F9072
:104690000C94FF0F80913C02A822A0923C02C4CF50
:1046A000312F3F70932E107F103219F0929480EFCB
:1046B0009822882071F081E0881661F1DD20B9F13F
:1046C000AA2071F1F701858180FF94CF8F708583D7
:1046D00027C0DD2091F090913E02892D892BA110F9
:1046E00003C00E948510A2CFE1E0AE12FACF981766
:1046F00009F49CCF80933E0299CFA11006C00E947E
:10470000E00A892D0E947A1091CFF1E0AF1609F4EA
:104710008DCFF5CFDD2031F025E02A1508F486CFC6
:10472000892DDFCF34E03A1508F480CFEACFAA20F4
:1047300041F3F9E38F1286C12FEF37EE83E021506A
:1047400030408040E1F700C000007CC1812F869599
:104750008695837061F0813009F068CFC80193704D
:10476000D11002C090E080E00E946F0B5FCFC801C3
:104770009370D11002C090E080E00E94850B56CF6C
:10478000812F837009F066C0D11050CF802F8295A1
:1047900086958770880F880F602F6F70462E512C7A
:1047A000712C612C082E04C0440C551C661C771C0F
:1047B0000A94D2F740E050E0BA0104FF0FC04FE086
:1047C00050E060E070E004C0440F551F661F771F83
:1047D0008A95D2F74095509560957095812F869572
:1047E00086958370823019F1D8F400913F021091C0
:1047F00040022091410230914202813069F0442907
:10480000552966297729CB01BA01602371238223B8
:1048100093230E945B100ACF402A512A622A732AEE
:10482000CB01BA016429752986299729F2CF442939
:1048300055296629772900913F0210914002209165
:10484000410230914202CB01BA01602771278227D1
:104850009327DFCF8695DD2011F0812F817088238B
:1048600009F4E4CE802F829586958770880F880F93
:10487000602F6F70462E512C712C612C082E04C0B5
:10488000440C551C661C771C0A94D2F740E050E09B
:10489000BA0104FF0FC04FE050E060E070E004C0D8
:1048A000440F551F661F771F8A95D2F74095509584
:1048B00060957095812F869586958370823019F169
:1048C000D8F40091B1021091B2022091B30230915C
:1048D000B402813069F04429552966297729CB0132
:1048E000BA0160237123822393230E94D90F9ECEA5
:1048F000402A512A622A732ACB01BA0164297529F8
:1049000086299729F2CF44295529662977290091CC
:10491000B1021091B2022091B3023091B402CB01E6
:10492000BA016027712782279327DFCF1F70DD2010
:1049300029F0812F0E943A10802FD3CE802F0E9421
:104940007A10812F0E94FF0F71CE802F92EF89166F
:1049500009F450C0981578F0E0EF8E1619F1F1EFD8
:104960008F1609F43FC0DD2009F467C0A11042CEC4
:10497000812F8F713CC023EF821609F440C034EFC1
:104980008312F1CFDD2009F44DC01F71812F0E94E9
:104990003A10E8E01E9FC0011124836080933A0220
:1049A000812F25C0DD20C9F084E08A1508F43ECEB1
:1049B0001F7161E070E080E090E004C0660F771F37
:1049C000881F991F1A95D2F70091B1021091B20277
:1049D0002091B3023091B402A4CF95E09A1508F467
:1049E00025CEE6CF812F8F71DD2009F4ABCF0E9459
:1049F0003A101CCE812F8F71DD20C9F3A3CF60E068
:104A000070E0CB01DD2009F470CF1F7161E070E030
:104A100080E090E004C0660F771F881F991F1A95E9
:104A2000D2F763CF81E00E942210F1E0FA1508F07E
:104A3000FDCD82E00E942210F9CDAA2039F0893301
:104A400009F47ACE802F0E948F10F0CD812F8F71C4
:104A500079CF0031FFE51F0709F433CB01312FE592
:104A6000120709F438CB0932EDE51E0709F435CBFE
:104A70000A32FDE51F0709F481CB043F2CE512073C
:104A800009F497CB08F080CB093D8CE5180709F4B1
:104A90008CCB0A3D9CE5190709F497CB083DECE562
:104AA0001E0709F020CB26E241EE61EE7ACB003101
:104AB0003FE5130709F40BCB01319FE5190799F680
:104AC00082E006CB85E0DE01119601900D928A9579
:104AD000E1F7F701228189819A8121112BCA0E9475
:104AE0000C0B182F2FCA0631FCE51F0719F5809112
:104AF000D301811162CC89E20E94E60A59CC0130CF
:104B00002CE5120709F403CD0F3D3CE5130709F42A
:104B100010CD01151C4509F00FCD0E9467148FEFD1
:104B200094E3ECE081509040E040E1F700C00000E9
:104B30000E94B70A80913D028272F801E35CFC4555
:104B4000E431F10508F0F8CCE150FD4C0C947732DB
:104B50001F93CF93DF938091DA01807FA9F4809136
:104B6000D701882389F080910C02D091DB016091FC
:104B7000D5017091D601A091D801B091D901C62F6D
:104B8000C72316E0D81304C0DF91CF911F91089579
:104B900090E0109711F0CF3F19F401968770F2CF93
:104BA000189F9001199F300D1124F901E452FE4F16
:104BB00041814713F2CF40814613EFCF428141112B
:104BC000ECCF438154814A1B5B0B483C510528F7CD
:104BD0008091DA018F7080618093DA01F901EF51E1
:104BE000FE4F80818F708061808385ED91E00E940F
:104BF000631FDF91CF911F910C94630BAF92BF9213
:104C0000CF92DF92EF92FF920F931F93CF93DF9398
:104C1000CDB7DEB761970FB6F894DEBF0FBECDBF3C
:104C20008C0185E0F801DE011D9601900D928A95B8
:104C3000E1F7F80180819181E28025EDA22E21E04B
:104C4000B22E6091D8017091D9016115710509F4F6
:104C50003EC13091D5014091D601232F24232F3F0F
:104C600009F435C1C380D480F090D701F601E61B6A
:104C7000F70BFF2009F4FBC02091DA01522F507F7F
:104C8000E83CF10508F0BBC0511178C0FE2C491377
:104C900021C038131FC0E1101DC02F702061209368
:104CA000DA01C5010E94631F8091DA01F801858352
:104CB0008F2D61960FB6F894DEBF0FBECDBFDF918A
:104CC000CF911F910F91FF90EF90DF90CF90BF9009
:104CD000AF900895CD2829F0282F29232F3F09F0E0
:104CE00014C120E0F22FF170DF2E20FF3DC0209193
:104CF0000C024091DB0156E0241315C08D879E877E
:104D00008D859E850E94CC0E292F22952F702230F2
:104D1000F8F0243020F59F70F9F0F8019581907F2C
:104D2000D9F4D12C1FC030E0529FF001539FF00DF9
:104D30001124E452FE4F6181961306C060818613F0
:104D400003C06281E61210C02F5F3F4F2770D4CF9F
:104D50009F7011F0882329F3805E883010F3C8011A
:104D60000E94631FFD2CA4CFEE2009F4A1CF8091F7
:104D7000DA0181608093DA01F12C9ACF491312C0D5
:104D8000381310C0E1100EC0F8012583C8010E943D
:104D9000631F86E0F801A5EDB1E001900D928A95C0
:104DA000E1F786CF8D879E878D859E850E94D60EE2
:104DB000882309F1EE20F9F08091DA01803270F059
:104DC0002091D5013091D60138872F831986DB8653
:104DD000CA868C87CE0107960E94631F86E0F80181
:104DE000A5EDB1E001900D928A95E1F70E94A8250A
:104DF000FF24F3945DCFC8010E94631FF9CF5111C6
:104E00000AC085ED91E00E94631F86E0F5011192D2
:104E10008A95E9F7B1CF49130FC038130DC0E110DF
:104E20000BC0F8012583C8010E94631F86E0F501CD
:104E300011928A95E9F73CCF8D879E878D859E8557
:104E40000E94D60E8823B9F2EE20A9F28091DA01F1
:104E5000803220F22091D5013091D6013A83298306
:104E60001B82DD82CC828E83CE010196B5CFE83CD9
:104E7000F105E0F6FE2CEE2009F4BDCF491316C073
:104E8000381314C08091DA0180FD83CF982F907F72
:104E900009F47FCFF8018583903F09F477CF982FED
:104EA000907F905F8F70892B858370CF8D879E87D1
:104EB0008D859E850E94D60E811190CF8091DA015A
:104EC00081608093DA01C8010E94631FF1CEEE2059
:104ED00009F491CF8D879E878D859E850E94D60E81
:104EE000F82E882309F487CF86E0F801A5EDB1E01C
:104EF00001900D928A95E1F78091D5019091D601AC
:104F00000E94CC0E0E94A825D3CE21E02E25EACE09
:104F10001F93CF93DF93CDB7DEB767970FB6F894A3
:104F2000DEBF0FBECDBF342F4B8B252F5C8B6D8B1F
:104F30007E8B8F8B8E899F89611110923C021A8A19
:104F4000198A3D872E876F87998B888B86E0FE01B3
:104F50003D96DE01179601900D928A95E1F7CE01FC
:104F600007960E94FE25882389F016E080910C02A6
:104F70009091DB01891349C067960FB6F894DEBFA4
:104F80000FBECDBFDF91CF911F91089586E0FE0146
:104F90003796DE01119601900D928A95E1F78A8588
:104FA0009B85892B11F38F81988589238F3FE9F2A7
:104FB0002091DB0130E0C90101968770992740916B
:104FC0000C024817190671F40E9467141092DB0155
:104FD00010920C0286E0E5EDF1E0DF011D928A956A
:104FE000E9F7C3CF96E0929FD001939FB00D1124B3
:104FF000A452BE4FFE01319601900D929A95E1F7B1
:105000008093DB010E94630BB0CF819FC00111240C
:1050100084529E4F0E94FE25882309F4ADCF8091D3
:105020000C0290E001968770992780930C029ECF26
:10503000CDB7DEB7AC970FB6F894DEBF0FBECDBFCD
:1050400084B7877F84BF0FB6F894A89580916000DD
:10505000886180936000109260000FBE80E890E04D
:105060000FB6F89480936100909361000FBE85B7EE
:10507000806885BF85B7806885BF89EF90E1909390
:105080009D0180939C010E9428090E94F309809150
:10509000E20084608093E20078948091A0028823EB
:1050A000A1F01091E9001F709091EC00892F8170A0
:1050B00090FD80E8182B1092E9008091E80083FDB4
:1050C0000E9472141F701093E90082E084BD93E087
:1050D00095BD9AEF97BD80936E0010924402109296
:1050E000450210924602109247020E94C812809315
:1050F000060180910601882309F46EC01092010117
:1051000086E0809302010E94C81281110E9405303E
:10511000809106018091060196E0811190E09093C4
:10512000550286E0891B8093540286EF0E94510C41
:1051300087EF0E94510C81E30E94510C83E30E948F
:10514000510C82E30E94510C86E30E94510C81E9CC
:105150000E94510C80E90E94510C84E90E94510C7C
:1051600086E60E94510C87E90E94510C86EC0E9451
:10517000510CE8E4F2E084E592E0A5E8B2E0119297
:105180001D928E179F07D9F70E94161C2FEF46E736
:1051900051E0215040405040E1F700C000000E9423
:1051A000161C8091850280FF1BC06FEF82E290E0A9
:1051B0000E9498326FEF83E290E00E9498326FEF86
:1051C00084E290E00E9498326FEF7FEF90E080E001
:1051D0000E94B6320E94B70A86E08093010191CF07
:1051E00090E080E00E9492328B3E9E4F11F00E9430
:1051F000E4120E94C812811102C00E940B3082E2A8
:1052000090E00E948432813209F0CBC583E290E0C5
:105210000E948432833009F0C4C584E290E00E9489
:105220008432813109F0BDC590E080E00E94923265
:105230008B3E9E4F11F00E94E41282E090E00E94AB
:10524000843280937F020E94CA0C9093570280930D
:10525000560283E090E00E948432682F70E090E074
:1052600080E00E945B10809158028111EAC0809119
:105270007F0280FF14C086E89EE09F938F930E9478
:105280001F0980917F020F900F9080FF08C080E778
:105290009EE09F938F930E941F090F900F9090E0C4
:1052A00080E00E9492328B3E9E4F81F080917F027F
:1052B00080FF08C088E49EE09F938F930E941F099F
:1052C0000F900F900E94E4120E94501488E090E02A
:1052D0000E948C32609380027093810280938202DC
:1052E00090938302809168028360809368026E7F4E
:1052F000D1F480917F0280FF08C08FEF9DE09F93E3
:105300008F930E941F090F900F900E94501488E005
:1053100090E00E948C3260938002709381028093AF
:105320008202909383020E94AC0B80917F0280FFE7
:1053300076C086EE9DE09F938F930E941F09809117
:105340007F020F900F9080FF6AC080918002817071
:105350001F928F9389EC9DE09F938F930E941F096A
:1053600080917F020F900F900F900F9080FF57C099
:105370008091800286951F928F938EEA9DE09F9385
:105380008F930E941F0980917F020F900F900F90C2
:105390000F9080FF44C0809181021F928F9384E917
:1053A0009DE09F938F930E941F0980917F020F9031
:1053B0000F900F900F9080FF32C0809182021F9259
:1053C0008F938AE79DE09F938F930E941F0980919E
:1053D0007F020F900F900F900F9080FF20C0809160
:1053E00083021F928F9380E69DE09F938F930E948C
:1053F0001F0980917F020F900F900F900F9080FFF8
:105400000EC0809184021F928F9384E49DE09F934D
:105410008F930E941F090F900F900F900F90109282
:1054200067028091680284608093680280918002A4
:1054300080FF04C060E086950E94E31E81E08093B7
:10544000580268E871E020E7822E22E0922E24E8DC
:1054500031E0E6E8F1E041E050E01191812F8295E2
:105460008F7090E0DC019196FC9091971F70E12E77
:105470006A0101C0CC0C1A95EAF70C2D00950F219A
:1054800091960C93919792961C9192971C299296C3
:105490001C93D901FD909D010F2D02950F7010E016
:1054A000D8019196BC90BF2DBF70FB2E6A0101C040
:1054B000CC0CBA95EAF7DC2CD094DB20D80191967D
:1054C000DC9291979296DC909297DC289296DC92EF
:1054D000DC0190968C9190E002C095958795EA94B6
:1054E000E2F78170D80190960C9110E002C01595FA
:1054F0000795FA94E2F790E000FD92E0892BD40141
:105500008D934D016E177F0709F0A7CF809106019B
:1055100092E0811190E090936F0282E0891B80936A
:10552000590287E091E090935B0280935A0288E6EB
:105530009FE00E94860885E892E0BCE0B80FBCA717
:105540008091A002853071F484E69FE00E94860875
:1055500000E112E18091A0028530D1F10E94671430
:105560000E949B0B0E94161C81110E94C80A13E71F
:10557000412E12E0512E05E8602E02E0702E10E060
:1055800000E087EAC82E8EE0D82E9FE9A92E9EE083
:10559000B92E0BA7D3013D903D01F20121902F01BF
:1055A00023104EC00F5F1F4F0C30110591F78FEF86
:1055B0008EA38FA318A60E94D40A8160782F9AA781
:1055C00089A74EA15FA168A58AA50E94882762C00D
:1055D0008091A002843021F110925C02E8E1F0E0B9
:1055E00020E40FB6F894A895E09360000FBE2093D6
:1055F000600083B7817F846083BF83B7816083BF8E
:105600007894889583B78E7F83BF0FB6F894A8955A
:1056100080916000886180936000109260000FBEEE
:1056200080919F02882309F495CF0E94161CE5E81B
:10563000F2E0819181119FC34CA54E13FACF8ACF1E
:1056400080917F0281FD7EC12324E12CFF24F3940D
:10565000822D8F2109F4A6C10E94C8128823A1F0CF
:10566000E9A22BA52AA33F2081E009F480E08BA3C7
:105670000E94D40A8160782F9DA38CA349A15AA1CE
:105680006BA18DA10E948827F801ED58FD4F808104
:10569000F826F08280916702882309F476C0809111
:1056A0006602E0918002E695E81BE0936202823098
:1056B00009F07EC1F0E0E651F14FE4910E2F10E0C9
:1056C000ADE7EA2EA2E1FA2E80916302882361F011
:1056D000109263020E94B31E909361028093600255
:1056E00010926502109264020E94B31E2091600223
:1056F00030916102DC01A21BB30B9D012F3F3F479C
:1057000008F043C020915F02222311F110925F0242
:1057100020915D0230915E02821B930B8F3F9F4769
:10572000B8F4205D3A4830935E0220935D02809188
:105730007F0280FF08C08BEB9EE09F938F930E94B7
:105740001F090F900F908091680288608093680213
:10575000C0906402D0906502E0916002F091610215
:105760000E0F1F1F109361020093600280E692E00B
:10577000F70109958091640290916502892B29F4C3
:10578000CD2819F081E080935F020DE612E034E845
:10579000C32E31E0D32E46E8A42E41E0B42E50E7CC
:1057A000E52E52E0F52E512C612C64E0862E912CD2
:1057B000D701ED917D01EE0FEE0FD5012D915D0129
:1057C000A22FA295AF70B0E090968C9190E02F70D0
:1057D00002C0959587952A95E2F781709927D601A1
:1057E0004D916D01A42FA295AF70B0E090962C91D1
:1057F00030E04F7002C0359527954A95E2F7A90130
:105800004170552720FF02C042E050E0842BE82B76
:10581000D7011197EC9370906F02750CEF70F0E068
:10582000EC58FE4F8081F8019081890F808320E041
:10583000843074F0E72D072C000CFF0BE759FD4F67
:1058400080818F5F808360E0872D0E94F31B21E0C1
:10585000D8018C918D3F74F4E72D072C000CFF0BC1
:10586000E759FD4F80818150808361E0872D0E9440
:10587000F31B21E0F8018081082E000C990BB40184
:105880000E946332D8018D938D01622AB1E05B12D0
:10589000B1C011F00E946D0B0E949B0B909172029F
:1058A000891739F10E949B0B182F80937202809107
:1058B0007F0282FF1EC080FF1CC085EF9EE00E9419
:1058C000860880917F0280FF14C01F921F9380EF93
:1058D0009EE09F938F930E941F0980917F020F90FB
:1058E0000F900F900F9080FF04C08EEE9EE00E94FC
:1058F00086088091A002843009F022CE83E0809354
:10590000E9008091E80082FF1BCE8091E80090E0E2
:1059100085FF06C00E944709882309F46EC091E004
:105920008091E8008B778093E800992309F408CEF2
:10593000E981E150E33108F0D1C0F0E0ED5EFC4CCC
:105940000C9477328CEA9EE00E948608B5E88B2E94
:10595000B2E09B2EF12CE12CFF92EF92DF92CF92DE
:105960000E941F0984EA9EE00E948608D4018D915E
:105970004D010E94AB0C1F928F93BF92AF920E9479
:105980001F098DE99EE00E948608BFEFEB1AFB0A13
:105990000FB6F894DEBF0FBECDBFFCE0EF16F104EA
:1059A000D9F652CEE394FF0C46E0E41251CEFACD84
:1059B000863059F4F0E0E951F14FE4910E2F10E0F8
:1059C000F1E9EF2EF2E1FF2E7FCE00ED17E072EB52
:1059D000E72E7AE0F72E893009F076CEE695F0E0F2
:1059E000EC51F14FE4910E2F10E0EDE0EE2EE2E1EC
:1059F000FE2E6ACE55245394DBCE00E210E0FE0169
:105A000031967F018091E80085FD0AC08091E80011
:105A10008B778093E8000E944709882399F37FCF12
:105A20008091F100D7018D937D010150110951F74B
:105A300076CF1A8289E08B8311C08A81823009F483
:105A4000C9C1833091F1813009F048C00E94C80A71
:105A50000E947D326B837C838D839E838091A00224
:105A6000843009F06DCD1091E9001F709091EC0029
:105A7000892F817090FD80E8182B82E08093E900E7
:105A80008091E80080FF0DC050E040E060E270E0EF
:105A9000CE0101960E9478098091E8008E7780936C
:105AA000E8001F701093E9004BCDDE011396E5E886
:105AB000F2E081918D9322E0E139F207D1F7CECF68
:105AC0008A81823059F46B817C818D819E810E9414
:105AD0007D3285E290E00E949832C0CF8FEF8983BB
