:100000000C9433080C947A080C947A080C94EE3013
:100010000C947A080C947A080C947A080C947A0858
:100020000C947A080C947A080C94BF1D0C947B1DD8
:100030000C94012F0C947A080C947A080C947A088A
:100040000C947A080C947A080C947A080C947A0828
:100050000C947A080C94DD2E0C947A080C947A088F
:100060000C947A080C947A080C947A080C947A0808
:100070000C947A080C947A080C947A080C947A08F8
:100080000C947A080C947A080C947A080C947A08E8
:100090000C947A080C947A080C947A080C947A08D8
:1000A0000C947A080C947A080C947A080631FF09AB
:1000B00074A1010975150026FF00952075088102BD
:1000C0000976150026FF00952075089102C00501EC
:1000D0000980A101850319012AB700150126B7007F
:1000E000950175108100C0050C0901A10185041955
:1000F000012AA002150126A002950175108100C0F9
:100100000660FF0961A1010962150026FF00952024
:10011000750881020963150026FF00952075089176
:1001200002C005010906A101050719E029E715002C
:100130002501950875018102950175088101050762
:10014000190029FF150026FF009506750881000596
:10015000081901290595057501910295017503910D
:1001600001C00000000000000000000000000000CE
:10017000000000000000000000000000000000007F
:100180000000000000007E0F00D4FFFFFFC700004A
:10019000007800000000000000002A2B280000006A
:1001A0000000000000000000000000000029000026
:1001B00000002C1E3420212224342627252E362D03
:1001C0003738271E1F202122232425263333362E9D
:1001D00037381F0405060708090A0B0C0D0E0F100F
:1001E0001112131415161718191A1B1C1D2F313054
:1001F000232D350405060708090A0B0C0D0E0F10F8
:100200001112131415161718191A1B1C1D2F313033
:10021000354C0A002575002E6E6B726F3A20000A6D
:10022000002575002E737761705F6261636B736C7C
:100230006173685F6261636B73706163653A20002C
:100240000A002575002E737761705F6772617665AD
:100250005F6573633A20000A002575002E6E6F5F9C
:100260006775693A20000A002575002E7377617062
:100270005F72616C745F726775693A20000A0025CD
:1002800075002E737761705F6C616C745F6C67755D
:10029000693A20000A002575002E737761705F723D
:1002A00063746C5F726775693A20000A00257500F7
:1002B0002E737761705F6C63746C5F6C6775693AFD
:1002C00020000A002575002E636170736C6F636BEC
:1002D0005F746F5F636F6E74726F6C3A20000A0018
:1002E0002575002E737761705F636F6E74726F6C2B
:1002F0005F636170736C6F636B3A20000A00253096
:100300003258006B65796D61705F636F6E66696707
:100310002E7261773A20000A002575002E6D6F75E8
:1003200073653A20000A002575002E6B6579626FAF
:100330006172643A20000A002575002E6D617472A6
:1003400069783A20000A002575002E656E61626C9E
:10035000653A20000A0025303258006465627567EE
:100360005F636F6E6669672E7261773A20000A00DC
:1003700025750064656661756C745F6C6179657282
:100380003A20000A092D204D61676963202D0A4437
:100390003A094465627567204D657373616765202E
:1003A000546F67676C650A583A094D6174726978D1
:1003B000204465627567204D6F646520546F6767E0
:1003C0006C65202D2053686F77206B65797072659E
:1003D0007373657320696E206D617472697820672C
:1003E0007269640A4B3A094B6579626F61726420E5
:1003F000446562756720546F67676C65202D2053D4
:10040000686F77206B6579707265737320726570A1
:100410006F72740A4D3A094465627567204D6F75B5
:10042000736520546F67676C650A563A09566572A2
:1004300073696F6E0A533A095374617475730A4392
:100440003A09416374697661746520436F6E736F16
:100450006C65204D6F64650A46312D4631303A098E
:1004600053776974636820746F204C6179657220DA
:10047000302D392028463130203D204C30290A309B
:100480002D393A0953776974636820746F204C6181
:1004900079657220302D390A47524156453A095341
:1004A000776974636820746F204C617965722030BD
:1004B0002028616C7465726E617465290A423A097C
:1004C0004A756D7020746F20426F6F746C6F616439
:1004D00065720A4553433A094A756D7020746F205E
:1004E000426F6F746C6F616465722028616C746513
:1004F000726E617465290A453A095072696E7420FA
:10050000454550524F4D2053657474696E67730AA8
:100510004253504143453A09436C65617220454559
:1005200050524F4D0A004743433A20382E342E3064
:10053000204156522D4C4942433A20322E302E3023
:10054000204156525F415243483A20617672350A43
:10055000004F5054494F4E533A204C554641204588
:10056000585452414B455920434F4E534F4C452010
:10057000434F4D4D414E44204C544F20343039367A
:100580000A004255494C443A2020284D61722031DE
:10059000302032303231290A005649443A2030782E
:1005A0003132303928653377327129205049443A45
:1005B00020307834363439285355313230202832BF
:1005C00020526F7461727920456E636F6465727337
:1005D0002929205645523A203078303030310A00EF
:1005E0000A092D2056657273696F6E202D0A0074FA
:1005F000696D65725F72656164333228293A20251E
:1006000030346C580A006B6579626F6172645F699F
:10061000646C653A2025580A006B6579626F6172D7
:10062000645F70726F746F636F6C3A2025580A00B4
:10063000686F73745F6B6579626F6172645F6C651C
:10064000647328293A2025580A000A092D2053747A
:1006500061747573202D0A003F000A6D6F75736514
:100660003A206F66660A000A6D6F7573653A206FEF
:100670006E0A000A6B6579626F6172643A206F6678
:10068000660A000A6B6579626F6172643A206F6E68
:100690000A000A6D61747269783A206F66660A0012
:1006A0000A6D61747269783A206F6E0A000A646597
:1006B0006275673A206F66660A000A64656275674C
:1006C0003A206F6E0A000A0A4A756D70696E6720DB
:1006D000746F20626F6F746C6F616465722E2E2E62
:1006E0002000433E2000436C656172696E672045BF
:1006F0004550524F4D0A006565636F6E6669673AF3
:100700000A004C25640A00000101010101010101F8
:1007100001020202020202020202030303030303B4
:100720000303040404040404040505050505060682
:100730000606060707070707080808080909090940
:100740000A0A0A0B0B0B0C0C0C0D0D0D0E0E0E0FE6
:100750000F0F101011111112121313141415151676
:10076000161717181819191A1A1B1B1C1D1D1E1EE7
:100770001F20202122222324242526262728292938
:100780002A2B2C2D2D2E2F30313232333435363763
:1007900038393A3B3C3D3E3F404142434445464761
:1007A00048494A4C4D4E4F50515354555658595A3A
:1007B0005B5D5E5F616264656668696B6C6D6F70DE
:1007C00072737577787A7B7D7E8082838587888A4D
:1007D0008C8E8F91939596989A9C9EA0A2A3A5A784
:1007E000A9ABADAFB1B3B5B7BABCBEC0C2C4C6C980
:1007F000CBCDCFD1D4D6D8DBDDDFE2E4E7E9EBEE39
:10080000F0F3F5F8FAFDFF7267626C6967687420AF
:100810006D6F6465205B4E4F454550524F4D5D3ABC
:100820002025750A007267626C69676874206D6FB5
:100830006465205B454550524F4D5D3A2025750A51
:10084000007267626C696768742064697361626CC6
:1008500065205B4E4F454550524F4D5D3A207267C3
:10086000626C696768745F636F6E6669672E656E38
:1008700061626C65203D2025750A007267626C69B3
:100880006768742073657420687376205B4E4F45EB
:100890004550524F4D5D3A2025752C25752C2575F8
:1008A0000A007267626C69676874207365742068F7
:1008B0007376205B454550524F4D5D3A2025752C8F
:1008C00025752C25750A007267626C69676874204B
:1008D00074696D657220656E61626C65642E0A00D4
:1008E0007267626C696768742074696D65722064F0
:1008F000697361626C652E0A002223252628292A45
:100900002C2D2F3032333536383A3B3D3E40424372
:100910004547494A4C4E5051535557595A5C5E60B1
:1009200062646668696B6D6F71737577797B7D7FC3
:1009300081838587898A8C8E90929496989A9C9EC2
:100940009FA1A3A5A7A8AAACAEAFB1B3B4B6B8B9DE
:10095000BBBCBEBFC1C2C3C5C6C7C9CACBCCCDCE46
:10096000D0D1D2D2D3D4D5D6D7D7D8D9D9DADADB29
:10097000DBDBDCDCDCDCDCDDDDDDDDDCDCDCDCDCB5
:10098000DBDBDBDADAD9D9D8D7D7D6D5D4D3D2D2F4
:10099000D1D0CECDCCCBCAC9C7C6C5C3C2C1BFBEDC
:1009A000BCBBB9B8B6B4B3B1AFAEACAAA8A7A5A347
:1009B000A19F9E9C9A98969492908E8C8A89878506
:1009C00083817F7D7B79777573716F6D6B696866E5
:1009D0006462605E5C5A5957555351504E4C4A49B7
:1009E00047454342403E3D3B3A3836353332302F5F
:1009F0002D2C2A2928262523225300630029003A7A
:100A0000003B003C003D003E005D00620035001EE2
:100A1000001F002000210022005C0061002B001458
:100A2000001A000800150017005B00600039000480
:100A3000001600070009000A005A005F00E1001DCF
:100A4000001B0006001900050059005E00E000E3ED
:100A500000E2008B002C002C003F004000410042CF
:100A6000004300440045004C0023002400250026DC
:100A70000027002D002E002A001C0018000C001278
:100A80000013002F00300031000B000D000E000F8E
:100A90000033003400280028001100100036003711
:100AA000003800E500520001512C008A008800E661
:100AB000006500500051004F00C35CC45C000000A2
:100AC000000000000000000000C65CC85CCA5C00BA
:100AD000000000000000000000C75CC95CCB5C00A7
:100AE0000000000000000000000000000000000006
:100AF00000000000000000000000000000000000F6
:100B000000000000000000DF5C00000000000000AA
:100B100000000000000000005C0000000000000079
:100B200000000000000000000000000000000000C5
:100B300000000000000000000000000000000000B5
:100B400000000000000000000000000000000000A5
:100B50000000000000000000000000000000000095
:100B60000000000000000000000000000000000085
:100B70000000000000000000000000000000000075
:100B80000000000000000000000000000000000065
:100B90000000000000000000000000000000000055
:100BA0000000000000000000000000000000000045
:100BB0000000000000000000000000000000000035
:100BC0000000000000000000000000000000000025
:100BD0000000000000000000000000000000000015
:100BE0000000000000000000000000000000000005
:100BF00000000000000000000000000000000000F5
:100C000000000000000000000000000000000000E4
:100C100000000000000000000000000000000000D4
:100C200000000000000000000000000000000000C4
:100C300000000000000000000030303000303000C4
:100C40007267626C696768742064697361626C655D
:100C5000205B454550524F4D5D3A207267626C698A
:100C60006768745F636F6E6669672E656E61626C3C
:100C700065203D2025750A007267626C696768749B
:100C800020656E61626C65205B454550524F4D5D3D
:100C90003A207267626C696768745F636F6E666939
:100CA000672E656E61626C65203D2025750A0072B5
:100CB00067626C6967687420746F67676C65205B36
:100CC000454550524F4D5D3A207267626C696768C6
:100CD000745F636F6E6669672E656E61626C652016
:100CE0003D2025750A0044454255473A2064697302
:100CF00061626C65642E0A0044454255473A20659E
:100D00006E61626C65642E0A000A092D20436F6EC5
:100D1000736F6C65202D0A4553432F713A09717525
:100D200069740A003F00433E20000A002530325813
:100D300020006B6579626F6172645F7265706F72BB
:100D4000743A20007267626C696768745F636F6EE3
:100D50006669672E7370656564203D2025640A000E
:100D60007267626C696768745F636F6E6669672E2D
:100D700076616C203D2025640A007267626C6967A9
:100D800068745F636F6E6669672E736174203D20BF
:100D900025640A007267626C696768745F636F6ECE
:100DA0006669672E687565203D2025640A007267B4
:100DB000686C696768745F636F6E6669672E6D6FD4
:100DC0006465203D2025640A007267626C6967686B
:100DD000745F636F6E6669672E656E61626C652015
:100DE0003D2025640A007267626C696768745F63FE
:100DF0006F6E66696720454550524F4D3A0A007242
:100E000067626C696768745F696E69742072676293
:100E10006C696768745F636F6E6669672E6D6F6477
:100E200065203D20302E2057726974652064656608
:100E300061756C742076616C75657320746F2045E4
:100E40004550524F4D2E0A007267626C6967687494
:100E50005F696E6974206565636F6E666967206996
:100E600073206E6F7420656E61626C65642E0A007B
:100E70007267626C696768745F696E697420737405
:100E8000617274210A007267626C696768745F69D5
:100E90006E69742063616C6C65642E0A000A00251B
:100EA000303862003A200025303258000A722F6331
:100EB0002030313233343536370A007267626C695C
:100EC00067687420616E696D6174696F6E20746902
:100ED000636B207265706F727420746F20736C6125
:100EE00076650A00643214643214783C1E1E140ABB
:100EF000050A0025303258006B6579626F617264B3
:100F00005F7365745F6C65643A20007267626C6938
:100F100067687420656E61626C65205B4E4F454565
:100F200050524F4D5D3A207267626C696768745F1A
:100F3000636F6E6669672E656E61626C65203D2029
:100F400025750A007267626C69676874207365743E
:100F5000207370656564205B4E4F454550524F4D80
:100F60005D3A2025750A005B735D004B6579626F01
:100F70006172642073746172742E0A005B435D00B9
:100F80005B445D005B535D005B575D005B525D0041
:100F900009027B00040100A0FA090400000103011A
:100FA0000100092111010001224000070581030809
:100FB000000A0904010002030000000921110100D8
:100FC00001222200070582032000010705030320F8
:100FD00000010904020001030000000921110100C1
:100FE000012232000705840320000A0904030002DD
:100FF00003000000092111010001222200070585DC
:101000000320000107050503200001120110010063
:10101000000008091249460100010200013403538F
:10102000005500310032003000200028003200203E
:101030000052006F007400610072007900200045CA
:10104000006E0063006F0064006500720073002989
:101050000000000C036500330077003200710000CF
:1010600000040309040011241FBECFEFDAE0DEBF45
:10107000CDBF04B603FE27C08091DD029091DE0251
:10108000A091DF02B091E0028730904BA740B04BB7
:10109000D1F41092DD021092DE021092DF02109263
:1010A000E00214BE84B7877F84BF0FB6F894A8957A
:1010B00080916000886180936000109260000FBE94
:1010C000E0E0F8E3099511E0A0E0B1E0E8EDF5E635
:1010D00002C005900D92A03AB107D9F722E0A0EA2C
:1010E000B1E001C01D92AD3DB207E1F70E946F284B
:1010F0000C949F320C940000FF93EF93E091A001B9
:10110000F091A101309709F00995EF91FF910895B1
:10111000FC018591803011F0EFDFFBCF0895FF27B0
:10112000E0E230E247FF0CC0419597FF09C0EDE2D5
:101130006095709580959095611D711D811D911D23
:1011400027FF02C0219530E350E2AA27660F771FE0
:10115000881F991FAA1FA41710F0A41B63955A9506
:10116000A9F7AA3008F0A95FA05DAF93F3956115C8
:1011700071058105910541F7ED3211F4EF93F39577
:10118000F21718F43F93F395FBCF8F91B5DFFA95E3
:10119000E1F70895E991F9918591803021F0853248
:1011A00019F0AADFF9CF089520E0E894559155325F
:1011B000C1F3503311F4689455915A3348F45053A5
:1011C00090F3220F022E220F220F200D250FF4CFB5
:1011D0000EF4219589919991533619F3533729F1DA
:1011E000533559F1BC0188279927E8945C3621F4DE
:1011F0008991999168945591543639F446EF7EF06F
:1012000077FF0DC08FEF9FEF0AC055374AE039F0E6
:10121000583540E121F0523642E009F00895FF933D
:10122000EF937DDFEF91FF91B7CFFF93EF93FC0139
:1012300081918030B9F360DFFBCFFF93EF9368DFDC
:10124000F1CFDF93CF93CDB7DEB72596A3DFCF9154
:10125000DF910895E8EDF0E080818E7F8083109229
:10126000E2001092DA001092E100A0EEB0E08C9162
:1012700081608C9380818F77808319BCA7EDB0E06B
:101280008C918E7F8C9380818F7E80831092A302BD
:1012900008952091E4003091E50095E6A9012091A0
:1012A000EC00822F817020FF06C08091E80080FF53
:1012B00006C080E008952091E80022FD1AC08091C8
:1012C000B002882389F0853089F08091EB0085FD9C
:1012D0000FC02091E4003091E50042175307F9F266
:1012E0009150E1F684E0089582E0089583E0089546
:1012F00081E00895EF92FF920F931F93CF937C01AB
:101300008B010E944909C82F811117C08091E80004
:1013100085FD0BC08091E8008E778093E8000E94E5
:101320004909882399F3C82F08C0F70181917F01EB
:101330008093F1000150110949F78C2FCF911F9133
:101340000F91FF90EF9008958091B20287FF13C034
:101350008091E80082FF06C08091E8008B7780933F
:10136000E80004C08091B0028111F2CF089580910D
:10137000B0028823D9F38091E80080FFF8CF8091F4
:10138000E8008E77ECCF982F9093E900242F762FEA
:1013900050E0891731F07091EC002091ED005091F0
:1013A000F00021FD07C09F5F973071F78093E9003F
:1013B00081E008953091EB003E7F3093EB00309157
:1013C000ED003D7F3093ED003091EB0031603093C4
:1013D000EB007093EC002093ED005093F00020910F
:1013E000EE0027FDE0CF80E00895CF92DF92EF92EC
:1013F000FF920F931F93CF93DF93C8EDD0E08881C6
:101400008F7E8883E7EDF0E080818160808384E0D7
:1014100082BF81E08093A30288818E7F888302EE61
:1014200010E0F80110821092DA0081EEC82ED12C63
:10143000F601108288818F7788838881806888830D
:1014400088818F7D888319BC1092B0021092B102FE
:101450001092AF021092AE0290EEE92EF12CF7013D
:1014600080818B7F808388818160888342E060E017
:1014700080E00E94C309F60180818E7F8083F8019D
:10148000808181608083808188608083F701808192
:101490008E7F8083888180618883DF91CF911F91C7
:1014A0000F91FF90EF90DF90CF900895FC01809115
:1014B000B8029091B90286179707A0F061157105DF
:1014C00029F49091E8009E779093E80090E06115F0
:1014D000710551F4911108C08091E80082FF34C079
:1014E00080E00895BC01F2CF8091B0028823C1F161
:1014F0008530C1F18091E80083FD30C08091E80023
:1015000082FDEACF8091E80080FFE1CF8091F30077
:101510002091F200382F6115710519F0283031053E
:1015200058F091E02830310509F090E02091E80072
:101530002E772093E800CBCF81918093F10061500A
:1015400071092F5F3F4FE7CF8091B002882341F0B0
:10155000853041F08091E80083FFBECF81E008959F
:1015600082E0089583E00895089508958091A5028A
:10157000089587E797E7909301088093000888E132
:101580009AE00FB6F894A895809360000FBE9093F0
:101590006000FFCF2FB7F8946091BA027091BB0240
:1015A0008091BC029091BD022FBF08952FB7F8948F
:1015B0008091BA029091BB02A091BC02B091BD0291
:1015C0002FBF089580915202811110925202089506
:1015D000E4EAF1E09191891303C0DF0111971C92B5
:1015E00091E0EA3AF907B1F70895A4EAB1E0EFEF24
:1015F00090E02D91821751F0EF3F19F4211101C0B5
:10160000E92F9F5F9630A9F7EF3F09F408950E2E5A
:10161000000CFF0BEE55FE4F82830895990F990F32
:10162000990F890F982F977086958695869525E056
:10163000829FF0011124EE5EFD4F50E040E080E01B
:10164000219130E0092E02C0369527950A94E2F7E1
:1016500021703327042E01C0220F0A94EAF7822B4F
:101660004F5F5F4F4530510559F70895990F990F16
:10167000990F890F982F977041E001C0440F9A95F8
:10168000EAF786958695869595E0899FF001112465
:10169000EE5EFD4F30E020E070E05191DF011197E8
:1016A000CB01022E02C0969587950A94E2F78170CD
:1016B00081958527842385278C932F5F3F4F253085
:1016C000310559F70895809111029091E001981326
:1016D00001C008958F5F8770FACF0C94CA0A2091D9
:1016E000D6013091D7012817390771F09093D701AF
:1016F0008093D601E0916E02F0916F02309721F055
:101700000084F185E02D099408952091D401309151
:10171000D5012817390771F09093D5018093D40132
:10172000E0916E02F0916F02309721F00680F78110
:10173000E02D09940895E0916E02F0916F023097C8
:1017400021F00190F081E02D099480E00895FA01E4
:10175000811101C0FB01099480919002982F9E7F16
:1017600029F4817082608093900208958A32E8F3B0
:1017700081708862F8CFAF92BF92DF92EF92FF92B2
:101780000F931F93CF93DF93082F162FE901E42FB8
:10179000F0E0E95FF84F611110C0E4915E2F4E2F29
:1017A0004983E8835A83DF91CF911F910F91FF9076
:1017B000EF90DF90BF90AF900895E62EF12C44910A
:1017C000D42EE42FF0E026E0829FC00111242FEFF9
:1017D00030E0B9010E941532802F90E0880F991FE8
:1017E00055E5569FD001579FB00D11248A1B9B0BC6
:1017F000982F990F890F5901AE18BF08AE9ED001DE
:10180000AF9EB00DBE9EB00D11245B2F189F8001BE
:101810001124012F11275901A01AB10AAE9E80018F
:10182000AF9E100DBE9E100D11245901A81AB108CB
:10183000AE9CC001AF9C900DBE9C900D1124892FD1
:101840009927281B390B2E9FC0012F9F900D3E9F7B
:10185000900D1124E92F62307105A1F050F461154B
:10186000710509F49DCF6130710581F0EB2F512F87
:1018700097CF6430710569F080F06630710509F426
:101880008FCFF4CFE42F4B2F592F8ACFE42F412F46
:1018900087CFEB2F542F492F83CF4B2F5D2DE12F77
:1018A0007FCFF894E82FE295EF70F0E031A1282F78
:1018B0002F7081E090E001C0880F2A95EAF7982FF9
:1018C0009095932391A392A1892B82A37894089554
:1018D00090916A0292FF06C0282F28712830F9F4EF
:1018E000877F846093FF06C0282F28712831F1F488
:1018F000877E846120916B0220FF06C0382F3871EB
:101900003830D9F4877F816021FF06C0282F2871E5
:101910002831D1F4877E816194FD877E0895282F38
:1019200024712430F9F68B7F8860DCCF282F247156
:10193000243101F78B7E8861DDCF382F3171313052
:1019400019F78E7F8860E0CF282F2171213121F790
:101950008E7E8861E1CF829590E09C01220F331F3B
:10196000220F331F2C7C95958795959587958373CA
:10197000282B30E0C901880F991F8A7A3595279561
:101980002575822B0895CF9384E090E00E944A321F
:10199000C82F81E290E00E944A32982F8C2FCF917D
:1019A00008950F931F93CF93DF9320E1629FE0018F
:1019B000112450E0440F551FC40FD51F30EC839FF6
:1019C000C00DD11D1124CE0186960E944A32082FE7
:1019D00010E0102F0027CE0187960E944A3298010E
:1019E000282BC901DF91CF911F910F910895462FA8
:1019F000833038F47C3028F4683018F4672F0C9466
:101A0000D10C90E080E00895CF93DF930E94F70C13
:101A1000EC0182389105A9F1D8F58133910509F4DB
:101A200096C048F58932910509F48AC08A9709F46D
:101A300095C0C11522E5D20708F0B6C0C11531E541
:101A4000D30708F026C1C83ED10508F09CC0C03EAF
:101A5000D10560F5C83AD10508F087C0C53AD1056F
:101A600008F0EFC0C130D10509F12097F9F0C4307A
:101A7000D105E0F440C08533910509F45AC0C997F7
:101A8000C1F680916A02837089F0C0EED0E00EC08A
:101A9000833E910599F170F4803E910501F1823EFB
:101AA000910539F680916A0282FD21C0CE01DF9155
:101AB000CF910895863E910561F1873E910571F1C0
:101AC000843E910509F0B5CF80916B0281FFEECF86
:101AD00080916A02C7EED0E084FD0DC0E7CF80910F
:101AE0006A0280FD07C190916B0290FFDFCFC3EEC9
:101AF000D0E084FFDBCFD0E0C0E0D8CF80916A0295
:101B000082FDFBC090916B0290FDBFCF84FFCECFD2
:101B1000F2CF80916A0283FDDDCFC8CF80916A0247
:101B200083FDEEC090916B0291FFF0CFC4EED0E048
:101B3000BDCF80916A0285FFB9CFC9E2D0E0B6CFB0
:101B400080916A0285FFB2CFC5E3D0E0AFCF80912C
:101B50006A0286FFABCFCAE2D0E0A8CF80916A02CA
:101B600086FFA4CFC1E3D0E0A1CFCF3BD10518F6CB
:101B7000C85AD0E0CC0FDD1FC65CDE4F0990D8817B
:101B8000C02DD46493CFC11540E5D40708F064C0DC
:101B9000C11580E4D80708F05CC0CE019A95811584
:101BA0009F4108F483CFA7CFC11536E5D30718F5B9
:101BB000C11545E5D40708F084C0C11584E5D807F0
:101BC00008F07AC09C2F969596959E012370332736
:101BD000C115D34508F462C0C1E0D0E002C0CC0F0B
:101BE000DD1F2A95E2F730E2939FC0011124C82B34
:101BF000D92BDA685BCFC1158AE5D80778F4C1150F
:101C000099E5D90708F068C0C11528E5D20708F49E
:101C100072CFDC2FCC27C06FD06A48CFCE01905650
:101C20008115904208F067CF8D2F8F710E94680C4C
:101C300090E0982F882788279F719C012C2BE90121
:101C400049C0C55AD0E0C95CDE4FC881D0E0D0643D
:101C50002DCFDF70D06A2ACFCE01E4E0969587952C
:101C6000EA95E1F783702C2F26952695237040E2A4
:101C7000249F90011124382B8C2F8370C1E0D0E079
:101C800002C0CC0FDD1F8A95E2F7C22BD32BDC6894
:101C90000DCFDC2FCC27C16FD06A08CFC1E0D0E0D8
:101CA00002C0CC0FDD1F2A95E2F720E2929FC0010F
:101CB0001124C82BD92BEBCFDC2FCC27C46FD06AD3
:101CC000F5CE8C2F0E94680CC82FD0E0DC2FCC27DB
:101CD000CC27DF71D062EACE8C2F8F700E94680C07
:101CE00034E0D695C7953A95E1F7CF709C2FEC017B
:101CF000D069DCCEC9E3D0E0D9CEC2EED0E0D6CEFA
:101D0000C6EED0E0D3CEBF92CF92DF92EF92FF9299
:101D10000F931F93CF93DF938C01C090C102D0909B
:101D2000C202E090C302F090C402809153029091ED
:101D30005402A0915502B0915602C82AD92AEA2A23
:101D4000FB2ACFE1D0E0BC2ED701C6010C2E04C087
:101D5000B695A795979587950A94D2F780FD0EC002
:101D6000219788F7B12C8B2DDF91CF911F910F9187
:101D7000FF90EF90DF90CF90BF900895B8018C2F27
:101D80000E94040D019761F3EECFCF93DF93EC0136
:101D90000E94830EBE01DF91CF910C94040D0E942E
:101DA000C50E292F2F7092959F7092509E3078F417
:101DB000E92FF0E0EF55FD4C0C943D32803F19F0D7
:101DC00020F4883E20F481E00895843FE1F380E030
:101DD0000895883EC0F3813FD1F7F5CF822F8695D5
:101DE0008695869508956F927F928F929F92AF927B
:101DF000BF92CF92DF92EF92FF920F931F93CF93F8
:101E0000DF9389EFC82E89E0D82E06EF10E0E801B5
:101E1000C05CD10936011CC0F50185909490692DF4
:101E2000C7010E945E32682DC70101960E945E3292
:101E300082E0A80EB11C82E0E80EF11CCE15DF0591
:101E400059F780E1680E711C60960C171D0731F080
:101E50007E0180E1E81AF1085301DECF00541F4FE4
:101E600080ECC80ED11C063383E0180781F6DF91A1
:101E7000CF911F910F91FF90EF90DF90CF90BF9087
:101E8000AF909F908F907F906F900895CF93DF9346
:101E9000C6E6D2E060E0CE010E945E322196C11516
:101EA00084E0D807B9F7DF91CF910895EF92FF92C0
:101EB0000F931F93CF93DF93809151029091500223
:101EC000892B90914F02892B8093A201909152020D
:101ED000992391F0892B8093A20120E084EA91E07C
:101EE000FC013191CF0131112F5FF1E08A3A9F0758
:101EF000B9F721110E94E20AE0916E02F0916F029F
:101F00003097C9F10280F381E02D82EA91E00995D2
:101F100080918F0282FF2FC080FF04C082E39DE08A
:101F20000E948808C2EAD1E08AEAE82E81E0F82E11
:101F30000CE21DE080918F0280FF0BC088811F9210
:101F40008F931F930F930E9421090F900F900F9072
:101F50000F902196EC16FD0669F780918F0280FFA5
:101F60000AC08AE29DE0DF91CF911F910F91FF900F
:101F7000EF900C948808DF91CF911F910F91FF9003
:101F8000EF90089590E080E00E94850B90E080E063
:101F90000E946F0B1092500210924F020C94560F39
:101FA0006093C1027093C2028093C3029093C402F3
:101FB0000C94C20F0F931F936091C1027091C202E3
:101FC0008091C3029091C4028B019C01067011277D
:101FD00022273327063011052105310529F46860D1
:101FE0001F910F910C94D00F677FFACF0F931F931F
:101FF00041E050E060E070E004C0440F551F661FF0
:10200000771F8A95D2F7CB01BA01609570958095BC
:1020100090950091C1021091C2022091C3023091AB
:10202000C40260237123822393231F910F910C9488
:10203000D00F90914E028095892380934E02282FD5
:10204000277071F4282F082E000C330B92171306FB
:1020500039F08595859585950E94F60F10924E0270
:1020600008950F931F9341E050E060E070E004C0DA
:10207000440F551F661F771F8A95D2F78091C102C2
:102080009091C202A091C302B091C4028A019B0147
:10209000082B192B2A2B3B2BC901B8011F910F913B
:1020A0000C94D00F609353027093540280935502A6
:1020B000909356020C94C20F882341F08095909122
:1020C00051028923809351020C94560F089588235E
:1020D00039F090915102982B909351020C94560F25
:1020E0000895882309F452C0823871F40E949B0B32
:1020F00081FF4CC089E30E94F50A0E94560F89E3D4
:102100000E94E80A0C94560F833859F40E949B0BE6
:1021100080FF3CC083E50E94F50A0E94560F83E5CC
:10212000EFCF843859F40E949B0B82FF2FC087E4C5
:102130000E94F50A0E94560F87E4E2CF9CEF980FA9
:10214000913AF0F290E2980F983088F4877021E08D
:1021500030E0A90102C0440F551F8A95E2F7CA0179
:10216000809590915102892380935102CBCF9BE5BA
:10217000980F933020F490E080E00C94850B885AFF
:10218000873120F490E080E00C946F0B089510925A
:102190007B0280917C02846080937C0280918F021C
:1021A00080FF08C080EE98E09F938F930E942109E2
:1021B0000F900F9008959FB7F8941092A1029FBFBF
:1021C0009091B002943009F048C02091E9002F703E
:1021D0003091EC00932F917030FD90E8922B25E028
:1021E0002093E9002091EB0020FF34C02091EE0005
:1021F00027FF30C020915702222321F02091E800D0
:1022000025FF28C01092570226E03091E80035FFE4
:1022100014C08093F1008091E80085FD27C0809173
:10222000E80080FFFCCF8091E8008E778093E80083
:102230009F709093E90080E008953091B0023430AF
:1022400049F43091EB0035FD05C0215041F481E0A7
:10225000809357029F709093E9008FEF0895EFE904
:10226000FFE03197F1F700C00000CFCF8FB7F894AF
:1022700021E02093A1028FBFDBCFCF93DF9300D06B
:102280000F92CDB7DEB79091B002943011F58983EB
:102290007B836A839093E9008FEF9091E8008150EF
:1022A00095FD06C095ED9A95F1F700008111F5CFE7
:1022B0008091E80085FF0DC050E040E063E070E0F1
:1022C000CE0101960E947A098091E8008E77809372
:1022D000E8000F900F900F90DF91CF910895BC010F
:1022E00084E00C943D11BC0183E00C943D11CF932C
:1022F000DF93EC0181E08093E9008FEF9091E8009B
:10230000815095FD06C095ED9A95F1F70000811179
:10231000F5CF8091E80085FF14C050E040E068E010
:1023200070E0CE010E947A098091E8008E77809358
:10233000E80088E0FE01A6EAB2E001900D928A95DD
:10234000E1F7DF91CF9108956091020180919002B1
:1023500080FF20C08091010143E0849FC0011124CF
:1023600081559E4F539A2BB1277F3BB138605FB7A1
:10237000F894FC01649FE00DF11D1124BF01681762
:102380007907D1F45FBF8FE594E00197F1F700C0C2
:1023900000000895809103019091040123E0829F41
:1023A000F0011124E155FE4F8917A0F61182108229
:1023B00012828F5F3396F8CFFC014191CF01E8E0A4
:1023C0003BB9000000C047FF2BB9440F000000C01C
:1023D00000C000C02BB900C0EA9591F7D0CF8F9212
:1023E0009F92AF92BF92CF92DF92EF92FF920F93A4
:1023F0001F93CF93DF93EC018A81BB24BA9480FDB5
:1024000002C0BB24B394A09005018C81811109C046
:1024100081E0B81228C08FEF8A0D8093D30181E04C
:102420008C83F12CE12C4CE0942EEA14F8F00E94FD
:10243000A4118091D30191E0B9125FC0811158C0FD
:102440008091050181508093D3011C82DF91CF914F
:102450001F910F91FF90EF90DF90CF90BF90AF90C2
:102460009F908F9008951092D301D9CF00910301CE
:102470000E0D1F2D111DC801880F991F080F191F60
:1024800001551E4FF80111821082128234E0C32ED2
:10249000D12C812C8091D301880D8D302CF1692DA8
:1024A0000E940732892F082E000C990B8E159F056C
:1024B00091F4809193028C9DA0018D9D500D11246B
:1024C0005595479555954795980160919202809151
:1024D00091020E94BB0B8B0CF1E0CF1AD108D1F610
:1024E0008FEFE81AF80AA1CF87FFDDCF8A0DDBCF87
:1024F00081508093D301BC82A9CF90E00196609176
:10250000050170E00E9429328093D3018C839ECF15
:10251000EF92FF921F93CF93DF93EC0110E0EE2434
:10252000EA94F12C60910501161770F00E94A41135
:102530009A818C8190FF27C08F5F8C83DF91CF9130
:102540001F91FF90EF90089520910301422F410FBA
:102550005527551FCA019A01220F331F280F391F13
:1025600021553E4F70E0C7010E942932962F8C8181
:102570004091930260919202199F800D11240E9454
:10258000BB0B1F5FCFCF8150D8CF9091900290FFAF
:1025900014C0909103012091040133E0939FF00156
:1025A0001124E155FE4F921710F00C94A411818371
:1025B000608342839F5F3396F6CF0895CF93DF9376
:1025C00000D00F92CDB7DEB79091900290FF0AC075
:1025D0009E012F5F3F4F0E94BB0B4B8169818A8117
:1025E0000E94C5120F900F900F90DF91CF91089528
:1025F000CF93DF93EC01EC81F0E0E750F74F44918B
:10260000E0E9F2E0628181810E94DE128C818F5FBD
:102610008C83DF91CF910895CF93DF93EC01E0E9B4
:10262000F2E0438162818C810E94DE128C818F5F97
:102630008C83DF91CF910895809190028E7F80935B
:10264000900280918F0280FF0CC01F921F9281E444
:1026500098E09F938F930E9421090F900F900F9005
:102660000F900E94C71080917C02816080937C0251
:102670002FEF80E792E0215080409040E1F700C0CA
:1026800000000C94A4118091AE01811111C08091C1
:10269000D80080618093D8008AE18A95F1F700C064
:1026A0009091D900892F817090FF82E08093AE01D4
:1026B00081E09091AE01913009F080E008956BEED9
:1026C0007EEF90E080E00E947C3260E082E090E06B
:1026D0000E945E3260E083E090E00E945E321092E1
:1026E000530210925402109255021092560260E06A
:1026F00084E090E00E945E3260E081E290E00E941F
:102700005E3260E085E090E00E945E3260E086E04C
:1027100090E00E945E326FEF87E090E00E945E32B0
:1027200040E050E0BA0188E090E00E94703260E042
:102730008DE090E00E945E3240E050E0BA0188E116
:1027400090E00E94703260E087E190E00E945E328B
:1027500040E050E0BA018CE190E00E94703260E00D
:1027600080E290E00E945E3240E050E0BA0188E1F1
:1027700090E00E94703240E050E0BA018FE090E0BB
:102780000E94703240E050E0BA0183E190E00C9486
:102790007032CF92DF92EF92FF926B017C010E9428
:1027A000AC0BB701A60188E090E0FF90EF90DF90BE
:1027B000CF900C947032EF92FF920F931F93CF93B0
:1027C000DF9300D00F92CDB7DEB7182FF62E042F6F
:1027D000E22E8091900280FF55C0E82FE695F0E050
:1027E000EE5DFE4F908190937A028E7F823009F0E9
:1027F00053C09E012F5F3F4F812F0E94BB0B4B8127
:1028000069818A810E94C51280919102811308C05A
:10281000809192028F1104C080919302801729F059
:1028200080917C02826080937C0210939102F092EE
:10283000920200939302EE20E9F160919002709170
:10284000910280919202909193020E94C91380910B
:102850008F0280FF17C0809193021F928F93809107
:1028600092021F928F93809191021F928F9382EA1E
:1028700098E09F938F930E9421090FB6F894DEBFD2
:102880000FBECDBF0F900F900F90DF91CF911F9192
:102890000F91FF90EF900895923019F400919302F8
:1028A000B3CF80919102963019F0993009F0ACCFF6
:1028B000182FAACF80918F0280FFE4CF1F920F9331
:1028C0001F92FF921F921F938BE798E0D2CFE0E90F
:1028D000F2E0438128E0421B08F440E021E06281FD
:1028E00081810C94DB13E0E9F2E0438128E0420FA0
:1028F00008F44FEF21E0628181810C94DB13E0E961
:10290000F2E0628128E0621B08F460E021E043818C
:1029100081810C94DB13E0E9F2E0628128E0620F30
:1029200008F46FEF21E0438181810C94DB13E0E92F
:10293000F2E0818121E04381628188500C94DB13B5
:10294000E0E9F2E0818121E043816281885F0C94BB
:10295000DB1380919402882319F0815080939402B4
:1029600060919002709191028091920290919302F5
:102970000C94C91380919402833018F48F5F809374
:1029800094026091900270919102809192029091D4
:1029900093020C94C913E0E9F2E083E08083118292
:1029A0008FEF828383831482AAE7B2E012968C9120
:1029B0001297836012968C936081718182819381DA
:1029C0000C94C91310925102E4EAF1E086E0DF01B1
:1029D0001D928A95E9F70C94C20F1F93CF93DF9352
:1029E000CDB7DEB7AA970FB6F894DEBF0FBECDBF46
:1029F00082EB92E02091F100DC012D93CD01B2E059
:102A00008A3B9B07B9F78091B302833009F471C008
:102A1000B8F4813009F448C0823009F4B2C0809122
:102A2000E80083FF3AC18091B2029091B3029A30DC
:102A300008F033C1E92FF0E0E155FD4C0C943D3234
:102A40008A3009F48DC08B3009F470C0893039F7B1
:102A50008091B202813219F78091B6029091B7024B
:102A6000009711F00297D9F68091E800877F809354
:102A7000E8008091E80082FF37C09091F3008091D8
:102A8000F200029729F48091F1008B7F813021F4CC
:102A90008091F1008093A5028091E8008B7780936C
:102AA000E8000E94A409BBCF8091B202813A09F0EC
:102AB000B6CF8091E800877F8093E8008091B602CE
:102AC0009091B702892B61F468E086EA92E070E0A9
:102AD0000E94560A8091E8008B778093E8009FCF90
:102AE00060E090E080E0F3CF8091B0028111C1CF2F
:102AF00096CF8091B202813A09F091CF8091B602CF
:102B00009091B702892B09F08ACF8091E800877FE6
:102B10008093E8008091E80080FFFCCF8091110154
:102B20008093F1008091E8008E77B9CF8091B20256
:102B3000813209F074CF8091B6029091B702892B4F
:102B400009F06DCF8091E800877F8093E8000E94B4
:102B5000A4098091B402809311010E94E2145FCF16
:102B60008091B202813209F05ACF8091E800877FCC
:102B70008093E8000E94A4098091B5028093A4028A
:102B80004ECF8091B202813A09F049CF8091E8009E
:102B9000877F8093E8008091E80080FFFCCF8091E0
:102BA000A402BECF803899F0823809F076C08091B7
:102BB000B6028F70873008F070C08093E900809172
:102BC000EB0085FB882780F91092E90006C0809110
:102BD000AE029091AF02911182609091E800977FD0
:102BE0009093E8008093F1001092F1008091E8004A
:102BF0008E77BAC1882309F4A7C1823009F04DC08D
:102C00008091B4028111ABC18091B6028F702FEF19
:102C1000280F263008F041C08093E9002091EB0096
:102C200020FF9DC1933031F48091EB00806280934E
:102C3000EB0095C19091EB0090619093EB0021E047
:102C400030E001C0220F8A95EAF72093EA00109243
:102C5000EA008091EB008860EACF81111EC01091DC
:102C6000B4021F778091E3008078812B8093E3008A
:102C70008091E800877F8093E8000E94A4098091FA
:102C8000E80080FFFCCF8091E30080688093E30040
:102C900082E0111183E08093B0028091E80083FF0D
:102CA0000AC08091E800877F8093E8008091EB0064
:102CB00080628093EB00AA960FB6F894DEBF0FBE39
:102CC000CDBFDF91CF911F9108958058823028F7B2
:102CD0002091B4023091B5022C3DE3E03E07A1F50E
:102CE00083E08A838AE289834FB7F894DE011396E2
:102CF00020E03EE051E2E32FF0E050935700E491F2
:102D000020FF03C0E295EF703F5FEF708E2F90E0E1
:102D1000EA30C0F0C7968D939D932F5F243159F709
:102D20004FBF8091E800877F8093E8006AE270E0FF
:102D3000CE0101960E94560A8091E8008B7780931D
:102D4000E800ABCFC096E7CF8091B6029091B70272
:102D5000432F55274330510509F44AC078F54130D7
:102D6000510509F47AC08BE790E0E0E9FFE04230DA
:102D7000510509F092CF2091E800277F2093E800C9
:102D80002091B8023091B9028217930708F49C0190
:102D900040E02115310509F065C0411163C0809103
:102DA000E80082FDC9CF8091B002882329F28530E6
:102DB00019F28091E80083FFF2CFBECF4132510576
:102DC00009F43CC04232510509F067CF84309105C7
:102DD00008F063CFFC01EE0FFF1FE057FE4F01909C
:102DE000F081E02D84579E4FDC018C9190E01AC059
:102DF000332721303105D1F02115310561F0223022
:102E0000310509F04ACFEDE1F0E1E4918E2F90E039
:102E1000EDE1F0E107C0E1E6F0E1E4918E2F90E012
:102E2000E1E6F0E1009709F438CFA5CFE3E5F0E162
:102E3000E4918E2F90E0E3E5F0E1F4CF843091054A
:102E400008F02BCF880F991FFC01E856FE4F019028
:102E5000F081E02D89E090E08ECF82E190E0EBE020
:102E6000F0E189CF8091B002882309F465CF8530E5
:102E700009F462CF8091E80083FD5ECF8091E80085
:102E800082FD8DCF8091E80080FF83CF9091F30089
:102E90008091F2002115310519F08830910550F02C
:102EA00041E0089709F040E08091E8008E77809338
:102EB000E8006FCF44914093F100319621503109E1
:102EC0000196E8CF803809F0E8CE8091E800877F4E
:102ED0008093E8008091B1028093F10087CE811148
:102EE000DCCE1091B402123008F0D7CE8091E80009
:102EF000877F8093E8001093B1020E94A4091123F8
:102F000011F084E005C08091E30087FDFACF81E0F5
:102F10008093B00242E061EC81E00E94C30942E28A
:102F200061EC84E00E94C30942E261EC82E00E940D
:102F3000C30942E260EC83E00E94C30942E261EC13
:102F400085E00E94C309A9CE8091B402813009F0C6
:102F5000A4CE81E0933009F080E08093AF0210921C
:102F6000E9008091E800877F8093E8000E94A4092F
:102F700094CECF93C82F1F928F9382E097E09F93B8
:102F80008F930E94210961E070E080E090E004C02E
:102F9000660F771F881F991FCA95D2F70E9452109B
:102FA0000F900F900F900F90CF910C94E214CF934D
:102FB000DF938B3109F408C208F0A0C18B3009F40B
:102FC000C6C108F06EC1863009F4D4C148F485301A
:102FD00009F4A2C188E596E00E94880880E0DAC181
:102FE000873009F4DAC18830A9F787EF96E00E94AC
:102FF000880883E793E00E94880883E090E00E94BD
:103000004A321F928F9380E793E09F938F930E94A1
:1030100021098EE693E00E94880882E090E00E94F9
:103020004A32C82F8BE593E00E9488081F92CF9305
:1030300086E593E09F938F930E94210984E593E0B6
:103040000E9488088AE493E00E9488088C2F81708F
:103050001F928F9387E493E09F938F930E9421099F
:1030600085E493E00E9488088BE393E00E9488083F
:10307000C1FB882780F91F928F9388E393E09F9389
:103080008F930E94210986E393E00E9488088AE2D8
:1030900093E00E948808C2FB882780F91F928F93D3
:1030A00087E293E09F938F930E94210985E293E04A
:1030B0000E9488088CE193E00E948808C3FBCC271B
:1030C000C0F91F92CF9389E193E09F938F930E9461
:1030D000210987E193E00E9488080E94C30CEC015B
:1030E00083E093E00E948808DF93CF938EEF92E015
:1030F0009F938F930E9421098CEF92E00E94880891
:1031000083EE92E00E9488088C2F81701F928F932B
:1031100080EE92E09F938F930E9421098DB79EB716
:1031200080960FB6F8949EBF0FBE8DBF8EED92E0D5
:103130000E94880887EC92E00E948808C1FB8827DB
:1031400080F91F928F9384EC92E09F938F930E945B
:10315000210982EC92E00E94880880EB92E00E94B4
:1031600088088D2F81701F928F938DEA92E09F9334
:103170008F930E9421098BEA92E00E94880889E9D6
:1031800092E00E948808D695D1701F92DF9386E95D
:1031900092E09F938F930E94210984E992E00E941C
:1031A000880882E892E00E948808C2FB882780F99C
:1031B0001F928F938FE792E09F938F930E94210934
:1031C0008DE792E00E9488088BE692E00E948808D2
:1031D000C3FB882780F91F928F9388E692E09F9324
:1031E0008F930E94210986E692E00E9488088CE570
:1031F00092E00E948808C4FB882780F91F928F9371
:1032000089E592E09F938F930E94210987E592E0E0
:103210000E94880885E492E00E948808C5FB882700
:1032200080F91F928F9382E492E09F938F930E9484
:10323000210980E492E00E94880884E292E00E94E2
:103240008808C6FB882780F91F928F9381E292E05D
:103250009F938F930E9421098DB79EB780960FB6DA
:10326000F8949EBF0FBE8DBF8FE192E00E94880848
:1032700087E192E00E948808C7FBCC27C0F91F9223
:10328000CF9384E192E09F938F930E94210982E182
:1032900092E00E9488080F900F900F900F9081E0AD
:1032A00079C0803109F4A8C080F48E3009F092CE44
:1032B00090918F02892F8B7F92FF846080938F0281
:1032C00082FF97C083E896E08BC0863109F4A4C0E2
:1032D000893109F07FCE80EE95E00E94880889E967
:1032E00095E00E94880882E895E00E94880881E5C0
:1032F00095E00E94880886E295E02BC08A3299F119
:10330000E0F4873261F128F48E3108F463CE8D51F8
:1033100027C0893209F05ECE86EC96E00E948808CC
:103320000E94E2149FEF24E38CE091502040804003
:10333000E1F700C000000E94B90A833468F48A33C0
:1033400008F0A1C0853359F0883309F043CE83E8F3
:1033500093E00E948808A3CF833409F03BCE80E03D
:103360000E94B9179CCF86EE96E00E9488080E94C2
:103370005F1395CF80918F02807F80938F0289E0C9
:103380009DE00E94880882EE96E00E94880881E015
:103390008093D901DF91CF91089590918F02892F69
:1033A0008E7F90FF816080938F0280FF03C08AEB45
:1033B00096E0CFCF8DEA96E00E94880880918F0238
:1033C000817F80938F026BCF90918F02892F8D7FA9
:1033D00091FF826080938F0281FF08C080EA96E0AF
:1033E0000E94880880918F028160EBCF82E996E08D
:1033F000B0CF83E796E0ADCF90918F02892F877F82
:1034000093FF886080938F0283FF03C087E696E076
:10341000E7CF8AE596E09DCF8AE496E00E9488088F
:103420000E949B0B1F928F9380E396E09F938F9354
:103430000E942109809111011F928F9389E196E0EA
:103440009F938F930E9421098091A4021F928F93D2
:1034500086E096E09F938F930E9421090E94CA0AFA
:103460009F938F937F936F938FEE95E09F938F93AE
:103470000E9421098DB79EB742960FB6F8949EBF61
:103480000FBE8DBF0CCF89536BCFCF93C82F88232E
:1034900009F46BC08238C1F40E949B0B81FD65C0AA
:1034A00089E30E94F50A0E94560F2FEF81EE94E007
:1034B000215080409040E1F700C0000089E30E9465
:1034C000E80ACF910C94560F8338A1F40E949B0B0D
:1034D00080FD4BC083E50E94F50A0E94560F2FEF36
:1034E00081EE94E0215080409040E1F700C0000060
:1034F00083E5E5CF8438A1F40E949B0B82FD35C0A3
:1035000087E40E94F50A0E94560F2FEF81EE94E0A7
:10351000215080409040E1F700C0000087E4CFCF09
:103520008CEF8C0F813A08F043C08091D901882339
:1035300099F08130E1F01092D901E4EAF1E08AEAF1
:1035400091E02191C21709F45FC08E179F07C9F758
:103550008C2F0E94F50AB5CF80915102823269F713
:103560008C2F0E94D717882341F3CF910895809123
:1035700051028232A9F3C431B9F038F4CB3049F0AA
:1035800084E29DE00E94880811C0C93269F0C83306
:10359000B9F789E09DE00E94880886E29DE00E94DC
:1035A000880881E08170DFCF1092D90180E0FACFE6
:1035B00080E28C0F883068F4C77021E030E001C0F1
:1035C000220FCA95EAF780915102822B8093510213
:1035D00078CFEBE5EC0FE33040F4F0E0E95CFE4F30
:1035E000808190E0CF910C94850BC85AC73108F0C8
:1035F000BCCFEC2FF0E0EE0FFF1FE65CFE4F8081AA
:103600009181CF910C946F0B8C2F0E94E80A0E943D
:10361000560F9ECF1F93CF93DF93182FD0E0C0E0BB
:10362000893311F4C0E5D0E0812F0E94451A20971C
:1036300031F4812FDF91CF911F910C9471108FE99C
:103640009FE00197F1F700C000002197F0CF0F93A2
:103650001F93CF93DF93C62FD42F022FFC018281BB
:103660008823A1F06093C0020E94D60A9093BF0203
:103670008093BE02C77081E001C0880FCA95EAF747
:10368000DF91CF911F910F910C9467108091C00230
:10369000681340C02091BE023091BF024FB7F8942A
:1036A0008091BA029091BB02A091BC02B091BD0280
:1036B0004FBF821B930B883C910560F510E21D0FF4
:1036C0006D17B9F080E2860F883040F4C77081E052
:1036D00001C0880FCA95EAF70E945C10183048F4C0
:1036E00081E09D2F977001C0880F9A95EAF70E949C
:1036F0006710802F0E940A1B183098F4D77081E061
:1037000001C0880FDA95EAF7DF91CF911F910F91F1
:103710000C945C10C77081E001C0880FCA95EAF76D
:10372000F3CFDF91CF911F910F910895882319F066
:10373000813039F008958EE4611101C08BE40C945E
:103740000A1B89EA6111FBCF8AEAF9CFDF92EF9277
:10375000FF920F931F93CF93DF93E82FF0E0EE5685
:10376000FE4FD490282F26952695269530E0F90116
:10377000EE57FE4F0491877010E0082E02C0159599
:1037800007950A94E2F701701127F901EE58FE4FF0
:10379000E490F12C082E02C0F594E7940A94E2F725
:1037A00091E0E922FF24F901EE59FE4FC491D0E0E7
:1037B00002C0D595C7958A95E2F7C170DD2701153E
:1037C000110519F081EE0E94451AE114F10419F077
:1037D00086EE0E94451A8D2D0E940A1BEF2819F0D3
:1037E00086EE0E947110012B19F081EE0E9471107B
:1037F000CD2B51F08CE2DF91CF911F910F91FF9073
:10380000EF90DF900C940A1BDF91CF911F910F91E5
:10381000FF90EF90DF900895FF920F931F93CF9347
:10382000DF938C018AE0F82EF8018491882309F453
:103830004BC0813009F044C0E8012196FE0184911B
:10384000813049F42196FE0184910E940A1B8E0169
:103850000F5F1F4FE9CF823039F4E8012296FE0155
:1038600084910E94451AF3CF833039F4E8012296FF
:10387000FE0184910E947110EACF843041F7E80183
:103880002296FE01249190E080E0FE0131962053C3
:10389000330B2A30310548F00197C8F2EFE9FFE019
:1038A0003197F1F700C00000F7CFF89EA001F99E14
:1038B000500D1124C901840F951F2491EF01E5CF0C
:1038C0000E94A61BE801C3CFDF91CF911F910F91FA
:1038D000FF9008958F929F92AF92BF92CF92DF9206
:1038E000EF92FF920F931F93CF93DF9300D000D0FE
:1038F00000D0CDB7DEB708E611E08CE5C82E82E037
:10390000D82E4601F12CAA24A394B12CD8018D9174
:103910008D01F894E82FE295EF70F0E021A18F700F
:10392000A50102C0440F551F8A95E2F7CA01922FE4
:10393000982B91A392A18095892382A3789400C0AB
:10394000E4E7F1E030E020E0E12C4191A42FA295E2
:10395000AF70B0E090968C9190E04F7002C095955A
:1039600087954A95E2F780FD53C08A2D022E01C04B
:10397000880F0A94EAF7E82A2F5F3F4F2830310575
:1039800021F7F801319780810E94510C50EA5A9535
:10399000F1F7D4018C91E816E9F1EC9281E0F82A74
:1039A000BFEF8B1A9B0AE1E00E361E0709F0AECF7F
:1039B00010916902FF2081F181E08093AC010E94A7
:1039C000D60A9093AB018093AA012091AA0130916D
:1039D000AB014FB7F8948091BA029091BB02A091CD
:1039E000BC02B091BD024FBF821B930B0697C0F083
:1039F000E12FF0E0EB56FD4FD6018D916D018193E3
:103A0000B2E6CB16B2E0DB06B9F71092AC0108C003
:103A100080E0B1CF80E0C3CF8091AC018111D5CFE0
:103A20000E944313E82E60916902882309F458C06C
:103A30008E010F5F1F4F86E0F80111928A95E9F71A
:103A4000862F90E0B8018B569D4F0E94E62F811182
:103A50002AC08091AD018F5F8093AD018630F0F177
:103A6000E0916802F0E0EB56FD4F90E080E01192AB
:103A7000019686309105D9F7F11001C0FE2C8F2DEB
:103A800026960FB6F894DEBF0FBECDBFDF91CF9163
:103A90001F910F91FF90EF90DF90CF90BF90AF906C
:103AA0009F908F9008951092AD01A0916802B0E0B0
:103AB000AB56BD4F9E01295F3F4FE12C4D91F80160
:103AC00091918F01491731F0AD0141505109FA012F
:103AD0009083E82E2017310789F7CECFE12CCCCF89
:103AE00070E06B567D4F8091680290E08B569D4F41
:103AF0000E941530C1CF1F920F920FB60F92112462
:103B00002F933F934F935F936F937F938F939F93E5
:103B1000AF93BF93CF93DF93EF93FF93D091E900DF
:103B2000DF708091EC00C82FC17080FDC0E810925A
:103B3000E9008091F000877F8093F00078940E94E4
:103B4000ED141092E9008091F00088608093F000FD
:103B5000CD2BCF70C093E900FF91EF91DF91CF9112
:103B6000BF91AF919F918F917F916F915F914F9195
:103B70003F912F910F900FBE0F901F9018951F929D
:103B80000F920FB60F9211242F933F934F935F9391
:103B90006F937F938F939F93AF93BF93EF93FF9315
:103BA0008091E10082FF15C08091E20082FF11C088
:103BB0008091E1008B7F8093E1002091A2022F5F32
:103BC000822F62E30E94FB31992309F4BEC0209347
:103BD000A2028091DA0080FF28C08091D80080FF87
:103BE00024C08091DA008E7F8093DA008091D90022
:103BF00080FFE1C080E189BD82E189BD09B400FE9A
:103C0000FDCF81E08093B0028CE79FE00E9488089E
:103C10008091A302811109C00E942A090E94F5091E
:103C20008091E20084608093E2008091E10080FF57
:103C30001BC08091E20080FF17C08091E2008E7F60
:103C40008093E2008091E20080618093E2008091A5
:103C5000D80080628093D80019BC85E08093B002C0
:103C600084E89FE00E9488088091E10084FF2DC0D5
:103C70008091E20084FF29C080E189BD82E189BD95
:103C800089B5982F917080FFFBCF8091D8008F7DF0
:103C90008093D8008091E1008F7E8093E100809135
:103CA000E2008F7E8093E2008091E2008160809349
:103CB000E2008091B102882309F487C084E08093F8
:103CC000B00288E89FE00E9488088091E10083FFAD
:103CD0002BC08091E20083FF27C08091E100877FA5
:103CE0008093E10082E08093B0021092B102809153
:103CF000E1008E7F8093E1008091E2008E7F8093CF
:103D0000E2008091E20080618093E20042E060E0A6
:103D100080E00E94C3098091F00088608093F000E9
:103D20008CE89FE00E948808FF91EF91BF91AF91CE
:103D30009F918F917F916F915F914F913F912F91C3
:103D40000F900FBE0F901F9018951092A2028091B5
:103D5000A102882309F43DCF8091B0028430C1F4E0
:103D60009091E9009F702091EC00822F817020FDDE
:103D700080E8892B95E09093E9009091EB0090FF0B
:103D800004C09091EE0097FD08C08F708093E90009
:103D90001092A1021ECF1092F1009091E80095FDC3
:103DA000FACF9091E80090FFF0CF9091E8009E77D5
:103DB0009093E800EACF19BC1092B00280E89FE02F
:103DC0000E9488081092A30230CF8091E30087FD03
:103DD00093E09093B00275CF0F931F930E9443130B
:103DE000882321F01F910F910C94CA0A0E94CA0ADD
:103DF000009158021091590220915A0230915B02B1
:103E0000600F711F821F931F1F910F9108950E94D1
:103E1000431381110C94D60A0E94EC1ECB01089525
:103E200060919002669570E041E050E080E091E0A2
:103E30000E949232892B19F481E080937B020E94C8
:103E4000071F909375028093740280917C028460B6
:103E500080937C0280918F0280FF08C087EC98E0FD
:103E60009F938F930E9421090F900F900895909136
:103E7000900290FF5AC09170811141C0926090935E
:103E8000900280917C02816080937C026623F1F134
:103E900060919002709191028091920290919302B0
:103EA0000E94C91380918F0280FF0FC08091900201
:103EB00086951F928F9385E298E09F938F930E943F
:103EC00021090F900F900F900F90609190026695CE
:103ED00070E041E050E080E091E00E949232892B56
:103EE00009F10E94C71081E08093770220E04091A1
:103EF000930260919202809191020C94DB138531C0
:103F000010F09862BCCF880F982BB9CF80918F02A8
:103F100080FFDBCF8091900286951F928F9387E080
:103F200098E0CBCF0E94101FDECF089580919002C1
:103F30008695815009F484E161E00C94371F8091EB
:103F4000900286958F5F853108F081E061E00C94E6
:103F5000371F9091900290FF07C09695981720F018
:103F6000961710F40C949F1F61E00C94371F4F922A
:103F70005F926F927F928F929F92AF92BF92CF92F9
:103F8000DF92EF92FF920F931F93CF93DF9300D0B6
:103F900000D00F92CDB7DEB77C01FC018381948104
:103FA000892B31F08081918189238F3F09F0E1C510
:103FB0000F900F900F900F900F90DF91CF911F9166
:103FC0000F91FF90EF90DF90CF90BF90AF909F90B8
:103FD0008F907F906F905F904F9008950E94830E16
:103FE000182F682F89819A810E94360B69817A8106
:103FF000812F0E94F70C8C01F7018281882309F43C
:10400000ADC5980122513F452031310508F078C5F2
:104010008FEF93E00E944A32025156E6C52E52E0DD
:10402000D52E882379F180914E02877009F4C0CF94
:10403000F7018281882309F4BBCF82E00F900F90B3
:104040000F900F900F90DF91CF911F910F91FF90E4
:10405000EF90DF90CF90BF90AF909F908F907F9028
:104060006F905F904F900C941910C114F4E0DF062C
:10407000D1F2C6010E944A32811101C001502FEFD6
:10408000C21AD20A0111F1CF1C821B82BB24B39445
:104090004AE0A42E86010F5F1F4FC6010E944A32DC
:1040A00089831A82882309F4BECF9FEF980F93303B
:1040B00008F58A83B98232E0C30ED11CC8010E9480
:1040C0004A328B83882309F4AECF8E010F5F1F4FD6
:1040D000F80180818823F1F2813009F043C0918199
:1040E0008281913049F40E5F1F4F0E940A1B0F5FBF
:1040F0001F4FEECF6801E9CF923029F40E5F1F4FBA
:104100000E94451AF4CF933029F40E5F1F4F0E948E
:104110007110EDCF943019F00F5F1F4FE8CF0E5F95
:104120001F4F30E020E0B8016F5F7F4FF801418101
:104130008053990B8A30910550F021503109B8F223
:104140008FE99FE00197F1F700C00000F6CFA29E33
:10415000F001A39EF00D11249C012E0F3F1F842F10
:104160008B01E1CF0E94A61BC2CF81E00E943110DB
:104170000E94DA0F58CF81E00E94F60FF9CF82E05B
:10418000F5CF882321F08DE39CE00E940C1CF70101
:104190009281992309F4FEC41092C0020230FCE51A
:1041A0001F0708F447C106312CE5120738F09801C3
:1041B0002B5F3C452930310508F03CC10E94C30CFF
:1041C00090936B0280936A0200313CE5130709F477
:1041D00000C108F08EC008309CE5190709F4EFC053
:1041E00008F05DC00430FCE51F0709F4E0C008F0EA
:1041F00043C002303CE5130709F4CFC003301C452F
:1042000009F4D1C060916A0210916B0284E090E0E1
:104210000E945E32612F81E290E00E945E320E9435
:10422000E21401CF882309F4B2CF89E39CE0ADCF3B
:10423000063FFCE51F07C9F0A0F027E245EE66EE59
:10424000073F3CE5130709F0A2CFC7010E94271BD7
:10425000EACE27E245EE65EEF8CF26E241EE60EECB
:10426000F4CF27E245EE64EEF0CF26E241EE62EEB7
:10427000ECCF28E241E0EFCF80916A028061063006
:104280009CE5190709F48CC080916A0288600730A8
:104290001C4508F485C080916A02806281C08091CB
:1042A0006A028D7F0C30FCE51F0709F479C070F4B9
:1042B00080916A028C600A303CE5130709F470C0F3
:1042C00008F481C080916A028E7F6AC080916A0280
:1042D000877F0E309CE5190709F462C080916A025D
:1042E0008B7F0F301C4508F45BC080916A028F7E83
:1042F00057C00C3FFCE51F0709F45DC030F50331E2
:104300003CE5130709F46DC078F401319CE5190709
:1043100009F463C002311C4509F074CF0E94E21415
:1043200080916A028F773CC00531FCE51F0709F4D4
:1043300060C008F474C080916B0281600B3F1C4523
:1043400009F060CF80936B025DCF01158DE51807F2
:1043500009F44BC088F480916B028D7F0E3FECE531
:104360001E0781F380916B028E7F0F3F1C4550F337
:1043700080916B028360E6CF02302DE5120709F4CD
:1043800057C008F442C060E003301D4509F03ACF41
:104390008EE090E00E945E3235CF80916A028160AB
:1043A00080936A022FCF80916A028260F9CF809158
:1043B0006A028460F5CF80916B028260C3CF8091E6
:1043C0006A028064EDCF0E94E21480916A028068E4
:1043D000E7CF80916A028F7DE3CF80916A028F7B65
:1043E000DFCF80916A02837FDBCF80916B028C7F6D
:1043F000A9CF80916A0282FB992790F921E0922748
:1044000090FB82F990FB83F9CBCF80916B02982FC0
:10441000909591708E7F892B90FB81F993CF0E94AC
:10442000E21490916A02892F97FB87F98058B8CFE0
:1044300061E0AECF0631ECE51E0709F0B7C380910D
:1044400051028A7A91E009F490E09093D8018111A9
:1044500006C089E20E94F50A0E94560FE4CD85E36A
:10446000F9CF85E3A0C380918F0280FF10C08091B7
:104470009002809581701F928F938FEA9CE09F93AA
:104480008F930E9421090F900F900F900F908091B1
:10449000900280FF33C08E7F8093900260919002E3
:1044A0007091910280919202909193020E94C9139F
:1044B00080918F0280FF0FC08091900281701F92C7
:1044C0008F9380E49CE09F938F930E9421090F902B
:1044D0000F900F900F900E94C71080917C02816016
:1044E00080937C02FFEF20E732E0F1502040304023
:1044F000E1F700C000000E94A41195CD8160809377
:10450000900280918F0280FF0DC01F9281E08F93F7
:1045100088E79CE09F938F930E9421090F900F9052
:104520000F900F908091900261E086950E94371F56
:104530007ACD46E95FE16FE97FE10E94A70B73CD79
:104540004FE95FE166E97FE1F8CF47E954E160EACE
:1045500074E1F3CF40EA54E167E974E1EECF4FE74D
:1045600054E16BE874E1E9CF4BE854E16FE774E1A3
:10457000E4CF47E654E163E774E1DFCF43E754E17A
:1045800067E674E1DACF49EA54E16AEB74E1D5CF2A
:104590004AEB54E169EA74E1D0CF61E081E0C6CF33
:1045A00065E082E00E94A91F3ECD68E086E0FACF78
:1045B0006EE089E0F7CF64E18FE0F4CF90918F0255
:1045C000892F8E7F90FF816080938F0280FF05C0CE
:1045D00088EF9CE00E94880826CD86EE9CE0FACF0A
:1045E0000E945F1320CDF701008111819923D9F139
:1045F000C8010E94830ED82E682FC8010E94360B76
:10460000B8018D2D0E94040D8C01882EF701D280F7
:10461000A580A2943FE0A32280914E028770A1F072
:10462000CD2CDD2091F0812F807F803421F080E23D
:10463000800F883048F082E00E94191080914E026D
:104640008770CC24C3948111C12CB12EB2942FE079
:10465000B222FBE0FB1508F440C0EB2DF0E0E7547C
:10466000FD4C0C943D32C8010E940E0BD82EC8CFD1
:10467000212F2F70A22E107F19F0A29490EFA92263
:10468000DD20C9F0AA2069F080E2800F883010F0A8
:1046900081100BC080915102A82AA09251020E9461
:1046A000560F802F0E94451A18C080915002A82AE8
:1046B000A0925002F4CF802F0E947110AA2069F0BE
:1046C000A094005E083010F081103BC08091510230
:1046D000A822A09251020E94560FEB2DE850FF0B2A
:1046E000349710F40E949B0BCC2009F461CC80918C
:1046F0004E0280FD5DCCF7011282859585958595EA
:104700000E943110C7010E94B71F80914E0285950B
:10471000859585950F900F900F900F900F90DF91DA
:10472000CF911F910F91FF90EF90DF90CF90BF90AE
:10473000AF909F908F907F906F905F904F900C9470
:10474000F60F80915002A822A0925002C4CF312FC0
:104750003F70932E107F103219F0929480EF9822C0
:10476000882071F081E0881661F1DD20B9F1AA207E
:1047700071F1F701858180FF94CF8F70858327C009
:10478000DD2091F090915202892D892BA11003C058
:104790000E946710A2CFE1E0AE12FACF981709F499
:1047A0009CCF8093520299CFA11006C00E94E20ACA
:1047B000892D0E945C1091CFF1E0AF1609F48DCFE6
:1047C000F5CFDD2031F025E02A1508F486CF892DBC
:1047D000DFCF34E03A1508F480CFEACFAA2041F3C6
:1047E000F9E38F1286C12FEF37EE83E0215030407E
:1047F0008040E1F700C000007CC1812F869586953E
:10480000837061F0813009F068CFC8019370D110D6
:1048100002C090E080E00E946F0B5FCFC8019370F0
:10482000D11002C090E080E00E94850B56CF812F0E
:10483000837009F066C0D11050CF802F8295869585
:104840008770880F880F602F6F70462E512C712C47
:10485000612C082E04C0440C551C661C771C0A945D
:10486000D2F740E050E0BA0104FF0FC04FE050E043
:1048700060E070E004C0440F551F661F771F8A95E3
:10488000D2F74095509560957095812F86958695C5
:104890008370823019F1D8F40091530210915402C0
:1048A0002091550230915602813069F044295529F2
:1048B00066297729CB01BA016023712382239323D0
:1048C0000E9452100ACF402A512A622A732ACB0131
:1048D000BA016429752986299729F2CF44295529D7
:1048E00066297729009153021091540220915502B4
:1048F00030915602CB01BA01602771278227932796
:10490000DFCF8695DD2011F0812F8170882309F497
:10491000E4CE802F829586958770880F880F602F50
:104920006F70462E512C712C612C082E04C0440C43
:10493000551C661C771C0A94D2F740E050E0BA017F
:1049400004FF0FC04FE050E060E070E004C0440F8F
:10495000551F661F771F8A95D2F740955095609531
:104960007095812F869586958370823019F1D8F4E1
:104970000091C1021091C2022091C3023091C40281
:10498000813069F04429552966297729CB01BA017C
:1049900060237123822393230E94D00F9ECE402A4E
:1049A000512A622A732ACB01BA0164297529862902
:1049B0009729F2CF44295529662977290091C10208
:1049C0001091C2022091C3023091C402CB01BA01FE
:1049D0006027712782279327DFCF1F70DD2029F002
:1049E000812F0E943110802FD3CE802F0E945C1027
:1049F000812F0E94F60F71CE802F92EF891609F455
:104A000050C0981578F0E0EF8E1619F1F1EF8F167F
:104A100009F43FC0DD2009F467C0A11042CE812F08
:104A20008F713CC023EF821609F440C034EF83122B
:104A3000F1CFDD2009F44DC01F71812F0E9431108C
:104A4000E8E01E9FC0011124836080934E02812FF5
:104A500025C0DD20C9F084E08A1508F43ECE1F7120
:104A600061E070E080E090E004C0660F771F881F6F
:104A7000991F1A95D2F70091C1021091C20220919C
:104A8000C3023091C402A4CF95E09A1508F425CE54
:104A9000E6CF812F8F71DD2009F4ABCF0E9431105A
:104AA0001CCE812F8F71DD20C9F3A3CF60E070E0B1
:104AB000CB01DD2009F470CF1F7161E070E080E070
:104AC00090E004C0660F771F881F991F1A95D2F7D0
:104AD00063CF81E00E941910F1E0FA1508F0FDCDD6
:104AE00082E00E941910F9CDAA2039F0893309F427
:104AF0007ACE802F0E947110F0CD812F8F7179CFE7
:104B00000031FFE51F0709F430CB01312FE5120713
:104B100009F435CB0932EDE51E0709F432CB0A3230
:104B2000FDE51F0709F47ECB043F2CE5120709F4CD
:104B300094CB08F07DCB093D8CE5180709F489CBAF
:104B40000A3D9CE5190709F494CB083DECE51E07E6
:104B500009F01DCB26E241EE61EE77CB00313FE557
:104B6000130709F408CB01319FE5190799F682E094
:104B700003CB85E0DE01119601900D928A95E1F755
:104B8000F701228189819A81211128CA0E940E0B86
:104B9000182F2CCA0631FCE51F0719F58091D801A2
:104BA00081115FCC89E20E94E80A56CC01302CE5E5
:104BB000120709F403CD0F3D3CE5130709F410CDAE
:104BC00001151C4509F00FCD0E94E2148FEF94E30C
:104BD000ECE081509040E040E1F700C000000E940E
:104BE000B90A809151028272F801E35CFC45E4311C
:104BF000F10508F0F8CCEB53FD4C0C943D321F93BB
:104C0000CF93DF938091DF01807FA9F48091DC0155
:104C1000882389F080911102D091E0016091DA013E
:104C20007091DB01A091DD01B091DE01C62FC72399
:104C300016E0D81304C0DF91CF911F91089590E042
:104C4000109711F0CF3F19F401968770F2CF189F9B
:104C50009001199F300D1124F901EF51FE4F418150
:104C60004713F2CF40814613EFCF42814111ECCF81
:104C7000438154814A1B5B0B483C510528F78091C6
:104C8000DF018F7080618093DF01F901EA51FE4FEF
:104C900080818F70806180838AED91E00E94B71FD0
:104CA000DF91CF911F910C94630BAF92BF92CF9283
:104CB000DF92EF92FF920F931F93CF93DF93CDB7C5
:104CC000DEB761970FB6F894DEBF0FBECDBF8C0183
:104CD00085E0F801DE011D9601900D928A95E1F7BD
:104CE000F80180819181E2802AEDA22E21E0B22E8E
:104CF0006091DD017091DE016115710509F43EC11D
:104D00003091DA014091DB01232F24232F3F09F456
:104D100035C1C380D480F090DC01F601E61BF70BAF
:104D2000FF2009F4FBC02091DF01522F507FE83CA7
:104D3000F10508F0BBC0511178C0FE2C491321C009
:104D400038131FC0E1101DC02F7020612093DF01B8
:104D5000C5010E94B71F8091DF01F80185838F2D67
:104D600061960FB6F894DEBF0FBECDBFDF91CF9135
:104D70001F910F91FF90EF90DF90CF90BF90AF9079
:104D80000895CD2829F0282F29232F3F09F014C199
:104D900020E0F22FF170DF2E20FF3DC020911102A4
:104DA0004091E00156E0241315C08D879E878D85C4
:104DB0009E850E94C50E292F22952F702230F8F073
:104DC000243020F59F70F9F0F8019581907FD9F497
:104DD000D12C1FC030E0529FF001539FF00D1124E1
:104DE000EF51FE4F6181961306C06081861303C0A8
:104DF0006281E61210C02F5F3F4F2770D4CF9F70A3
:104E000011F0882329F3805E883010F3C8010E94D6
:104E1000B71FFD2CA4CFEE2009F4A1CF8091DF01B4
:104E200081608093DF01F12C9ACF491312C03813AF
:104E300010C0E1100EC0F8012583C8010E94B71F01
:104E400086E0F801AAEDB1E001900D928A95E1F7B4
:104E500086CF8D879E878D859E850E94CF0E882365
:104E600009F1EE20F9F08091DF01803270F020919D
:104E7000DA013091DB0138872F831986DB86CA86F9
:104E80008C87CE0107960E94B71F86E0F801AAED35
:104E9000B1E001900D928A95E1F70E94FF25FF2471
:104EA000F3945DCFC8010E94B71FF9CF51110AC01A
:104EB0008AED91E00E94B71F86E0F50111928A9574
:104EC000E9F7B1CF49130FC038130DC0E1100BC083
:104ED000F8012583C8010E94B71F86E0F5011192F1
:104EE0008A95E9F73CCF8D879E878D859E850E94A8
:104EF000CF0E8823B9F2EE20A9F28091DF01803233
:104F000020F22091DA013091DB013A8329831B8260
:104F1000DD82CC828E83CE010196B5CFE83CF105CF
:104F2000E0F6FE2CEE2009F4BDCF491316C038136D
:104F300014C08091DF0180FD83CF982F907F09F40A
:104F40007FCFF8018583903F09F477CF982F907F2A
:104F5000905F8F70892B858370CF8D879E878D851D
:104F60009E850E94CF0E811190CF8091DF018160DC
:104F70008093DF01C8010E94B71FF1CEEE2009F433
:104F800091CF8D879E878D859E850E94CF0EF82EAE
:104F9000882309F487CF86E0F801AAEDB1E00190FB
:104FA0000D928A95E1F78091DA019091DB010E94E0
:104FB000C50E0E94FF25D3CE21E02E25EACE1F93F9
:104FC000CF93DF93CDB7DEB767970FB6F894DEBF08
:104FD0000FBECDBF342F4B8B252F5C8B6D8B7E8B03
:104FE0008F8B8E899F896111109250021A8A198ABB
:104FF0003D872E876F87998B888B86E0FE013D96D3
:10500000DE01179601900D928A95E1F7CE01079681
:105010000E945526882389F016E080911102909114
:10502000E001891349C067960FB6F894DEBF0FBE42
:10503000CDBFDF91CF911F91089586E0FE01379695
:10504000DE01119601900D928A95E1F78A859B8584
:10505000892B11F38F81988589238F3FE9F2209165
:10506000E00130E0C9010196877099274091110253
:105070004817190671F40E94E2141092E001109290
:10508000110286E0EAEDF1E0DF011D928A95E9F771
:10509000C3CF96E0929FD001939FB00D1124AF51E2
:1050A000BE4FFE01319601900D929A95E1F78093E3
:1050B000E0010E94630BB0CF819FC00111248F518A
:1050C0009E4F0E945526882309F4ADCF809111028E
:1050D00090E0019687709927809311029ECFCDB7FB
:1050E000DEB7AC970FB6F894DEBF0FBECDBF84B766
:1050F000877F84BF0FB6F894A8958091600088617F
:1051000080936000109260000FBE80E890E00FB6C0
:10511000F89480936100909361000FBE85B780681A
:1051200085BF85B7806885BF8BED90E19093A10125
:105130008093A0010E942A090E94F5098091E20053
:1051400084608093E20078948091B0028823A1F07B
:105150001091E9001F709091EC00892F817090FDF3
:1051600080E8182B1092E9008091E80083FD0E94EE
:10517000ED141F701093E90082E084BD93E095BDAB
:105180009AEF97BD80936E001092580210925902C8
:1051900010925A0210925B020E9443138093060100
:1051A00080910601882309F46AC01092010186E00B
:1051B000809302010E94431381110E94BD2F8091B0
:1051C00006018091060196E0811190E090936902BA
:1051D00086E0891B8093680286EF0E94510C87EF5E
:1051E0000E94510C81E30E94510C83E30E94510CF8
:1051F00082E30E94510C86E30E94510C04E711E007
:105200008CE7E82E81E0F82EF80181918F010E9451
:10521000510CE016F106C1F7ECE5F2E088E692E009
:10522000A5E9B2E011921D928E179F07D9F70E944F
:105230006A1CFFEF26E741E0F15020404040E1F7D3
:1052400000C000000E946A1C8091950280FF1BC074
:105250006FEF82E290E00E945E326FEF83E290E0B7
:105260000E945E326FEF84E290E00E945E326FEF48
:105270007FEF90E080E00E947C320E94B90A86E0D5
:105280008093010195CF90E080E00E9458328B3EE0
:105290009E4F11F00E945F130E944313811102C0C0
:1052A0000E94C32F82E290E00E944A32813209F0CC
:1052B00045C583E290E00E944A32833009F03EC542
:1052C00084E290E00E944A32803109F037C590E0D4
:1052D00080E00E9458328B3E9E4F11F00E945F1377
:1052E00082E090E00E944A3280938F020E94C30CB9
:1052F00090936B0280936A0283E090E00E944A32AE
:10530000682F70E090E080E00E94521080916C0263
:105310008111EAC080918F0280FF14C086E89EE070
:105320009F938F930E94210980918F020F900F907D
:1053300080FF08C080E79EE09F938F930E94210921
:105340000F900F9090E080E00E9458328B3E9E4F6D
:1053500081F080918F0280FF08C088E49EE09F93D7
:105360008F930E9421090F900F900E945F130E945B
:10537000CB1488E090E00E945232609390027093C8
:105380009102809392029093930280917C028360B9
:1053900080937C026E7FD1F480918F0280FF08C0E1
:1053A0008FEF9DE09F938F930E9421090F900F90A4
:1053B0000E94CB1488E090E00E94523260939002E9
:1053C0007093910280939202909393020E94AC0B8F
:1053D00080918F0280FF76C086EE9DE09F938F9331
:1053E0000E94210980918F020F900F9080FF6AC068
:1053F0008091900281701F928F9389EC9DE09F9322
:105400008F930E94210980918F020F900F900F902F
:105410000F9080FF57C08091900286951F928F93C6
:105420008EEA9DE09F938F930E94210980918F02C5
:105430000F900F900F900F9080FF44C080919102C9
:105440001F928F9384E99DE09F938F930E9421097F
:1054500080918F020F900F900F900F9080FF32C0BD
:10546000809192021F928F938AE79DE09F938F9382
:105470000E94210980918F020F900F900F900F9042
:1054800080FF20C0809193021F928F9380E69DE061
:105490009F938F930E94210980918F020F900F900C
:1054A0000F900F9080FF0EC0809194021F928F93F7
:1054B00084E49DE09F938F930E9421090F900F90A9
:1054C0000F900F9010927B0280917C0284608093F9
:1054D0007C028091900280FF04C060E086950E946B
:1054E000371F81E080936C0285988D9A84988C9AFE
:1054F0008FB185FB882780F97C9960C090E0892B6B
:10550000809381029091060181E098279093800218
:10551000891B80936D0287E091E090936F028093E6
:105520006E028BE69FE00E94880885E992E02CE0FD
:10553000280F2CA78091B002853071F487E69FE098
:105540000E94880800E112E18091B0028530C1F12B
:105550000E94E2140E949B0B0E946A1C81110E940F
:10556000CA0AF3E84F2EF2E05F2EA5E96A2EA2E008
:105570007A2E10E000E0B7EACB2EBEE0DB2E0BA7C0
:10558000F30131903F01F20121902F01231050C00F
:105590000F5F1F4F0C30110591F78FEF8EA38FA374
:1055A00018A60E94D60A8160782F9AA789A74EA1D3
:1055B0005FA168A58AA50E94DF2764C092E09FCF03
:1055C0008091B002843021F11092700248E150E0E5
:1055D00080E40FB6F894A895409360000FBE8093C6
:1055E000600083B7817F846083BF83B7816083BF9E
:1055F0007894889583B78E7F83BF0FB6F894A8956B
:1056000080916000886180936000109260000FBEFE
:105610008091AF02882309F497CF0E946A1CE5E9C4
:10562000F2E08191811174C39CA59E13FACF8CCFB7
:1056300080918F0281FD45C12324E12CFF24F39446
:10564000822D8F2109F46FC10E9443138823A1F09A
:10565000E9A22BA52AA33F2081E009F480E08BA3D7
:105660000E94D60A8160782F9DA38CA349A15AA1DC
:105670006BA18DA10E94DF27F801ED57FD4F8081BE
:10568000F826F08280917B02882309F476C080910D
:105690007A02E0919002E695E81BE0937602823070
:1056A00009F047C1F0E0E351F14FE4910E2F10E013
:1056B00078EFE72E72E1F72E80917702882361F070
:1056C000109277020E94071F9093750280937402D4
:1056D00010927902109278020E94071F20917402A2
:1056E00030917502FC01E21BF30B9F012F3F3F47F6
:1056F00008F043C020917302222311F1109273022B
:105700002091710230917202821B930B8F3F9F4751
:10571000B8F4205D3A483093720220937102809170
:105720008F0280FF08C08BEB9EE09F938F930E94B7
:1057300021090F900F9080917C02886080937C02F9
:10574000C0907802D0907902E0917402F0917502D5
:105750000E0F1F1F109375020093740284E792E0EE
:10576000F70109958091780290917902892B29F4AB
:10577000CD2819F081E080937302E0918102EE0F51
:10578000EE0FE09381028FB185FBAA24A0F87C99EB
:1057900000C180E08A29E82BE09381021091800209
:1057A000EF70F0E0E458FE4F808190917F02890F06
:1057B00080937F0220E0843074F0E12F012E000CF2
:1057C000FF0BE358FD4F80818F5F808360E0812F66
:1057D0000E94961B21E080917F028D3F74F4E12F9F
:1057E000012E000CFF0BE358FD4F80818150808318
:1057F00061E0812F0E94961B21E080917F02082E9C
:10580000000C990B64E070E00E94293280937F02C3
:1058100021110E946D0B0E949B0B909182028917AF
:1058200039F10E949B0B182F8093820280918F0286
:1058300082FF1EC080FF1CC088EF9EE00E94880887
:1058400080918F0280FF14C01F921F9383EF9EE010
:105850009F938F930E94210980918F020F900F9048
:105860000F900F9080FF04C081EF9EE00E94880897
:105870008091B002843009F05DCE83E08093E9002E
:105880008091E80082FF56CE8091E80090E085FF8D
:1058900006C00E944909882309F47EC091E08091E6
:1058A000E8008B778093E800992309F443CEE981DF
:1058B000E150E33108F0E2C0F0E0E752FD4C0C9417
:1058C0003D328CEA9EE00E948808E5E98E2EE2E0F7
:1058D0009E2EF12CE12CFF92EF92DF92CF920E944C
:1058E000210984EA9EE00E948808F40181914F0119
:1058F0000E94AB0C1F928F934FE95EE05F934F9332
:105900000E9421098DE99EE00E9488089FEFE91A14
:10591000F90A0FB6F894DEBF0FBECDBFFCE0EF165C
:10592000F104C9F689CEE394FF0C48E0E41288CE76
:105930002FCE863059F4F0E0E651F14FE4910E2F6E
:1059400010E06CE0E62E63E1F62EB6CE893061F40D
:10595000E695F0E0E951F14FE4910E2F10E058E8A0
:10596000E52E52E1F52EA8CE00ED17E034EBE32E44
:105970003AE0F32E8F3009F09FCEE695F0E0EC513F
:10598000F14FE4910E2F10E04FEEE42E41E1F42EA2
:1059900093CE82E090E0FECE00E210E0AE014F5FD9
:1059A0005F4F7A018091E80085FD0AC08091E80090
:1059B0008B778093E8000E944909882399F36ECF82
:1059C0008091F100F70181937F010150110951F796
:1059D00065CF1A8289E08B8311C08A81823009F4F5
:1059E000C6C1833091F1813009F048C00E94CA0AD3
:1059F0000E9443326B837C838D839E838091B002AF
:105A0000843009F097CD1091E9001F709091EC005F
:105A1000892F817090FD80E8182B82E08093E90047
:105A20008091E80080FF0DC050E040E060E270E04F
:105A3000CE0101960E947A098091E8008E778093CA
:105A4000E8001F701093E90075CDDE011396E5E9BB
:105A5000F2E081918D9322E0E13AF207D1F7CECFC7
:105A60008A81823059F46B817C818D819E810E9474
:105A7000433285E290E00E945E32C0CF8FEF89838F
:105A8000BDCF4C816B818A810E94D10C98278927D8
:105A900098279E838D83B2CFED80FE80FE24EF2475
:105AA000FE248A810B8140E1049F8001112450EC87
:105AB000859F000D111D11248C8190E0880F991F86
:105AC000080F191F6F2DC80186960E945E326E2D39
:105AD000C8018796D0CF0E94F30E90CF8A8181387B
